{
  "_format": "hh-sol-artifact-1",
  "contractName": "GOAT",
  "sourceName": "contracts/GOAT.sol",
  "abi": [
    {
      "inputs": [],
      "stateMutability": "nonpayable",
      "type": "constructor"
    },
    {
      "inputs": [
        {
          "internalType": "address",
          "name": "spender",
          "type": "address"
        },
        {
          "internalType": "uint256",
          "name": "allowance",
          "type": "uint256"
        },
        {
          "internalType": "uint256",
          "name": "needed",
          "type": "uint256"
        }
      ],
      "name": "ERC20InsufficientAllowance",
      "type": "error"
    },
    {
      "inputs": [
        {
          "internalType": "address",
          "name": "sender",
          "type": "address"
        },
        {
          "internalType": "uint256",
          "name": "balance",
          "type": "uint256"
        },
        {
          "internalType": "uint256",
          "name": "needed",
          "type": "uint256"
        }
      ],
      "name": "ERC20InsufficientBalance",
      "type": "error"
    },
    {
      "inputs": [
        {
          "internalType": "address",
          "name": "approver",
          "type": "address"
        }
      ],
      "name": "ERC20InvalidApprover",
      "type": "error"
    },
    {
      "inputs": [
        {
          "internalType": "address",
          "name": "receiver",
          "type": "address"
        }
      ],
      "name": "ERC20InvalidReceiver",
      "type": "error"
    },
    {
      "inputs": [
        {
          "internalType": "address",
          "name": "sender",
          "type": "address"
        }
      ],
      "name": "ERC20InvalidSender",
      "type": "error"
    },
    {
      "inputs": [
        {
          "internalType": "address",
          "name": "spender",
          "type": "address"
        }
      ],
      "name": "ERC20InvalidSpender",
      "type": "error"
    },
    {
      "anonymous": false,
      "inputs": [
        {
          "indexed": true,
          "internalType": "address",
          "name": "owner",
          "type": "address"
        },
        {
          "indexed": true,
          "internalType": "address",
          "name": "spender",
          "type": "address"
        },
        {
          "indexed": false,
          "internalType": "uint256",
          "name": "value",
          "type": "uint256"
        }
      ],
      "name": "Approval",
      "type": "event"
    },
    {
      "anonymous": false,
      "inputs": [
        {
          "indexed": true,
          "internalType": "address",
          "name": "user",
          "type": "address"
        },
        {
          "indexed": false,
          "internalType": "uint256",
          "name": "reward",
          "type": "uint256"
        }
      ],
      "name": "Compounded",
      "type": "event"
    },
    {
      "anonymous": false,
      "inputs": [
        {
          "indexed": true,
          "internalType": "address",
          "name": "user",
          "type": "address"
        },
        {
          "indexed": false,
          "internalType": "uint256",
          "name": "amount",
          "type": "uint256"
        }
      ],
      "name": "EmergencyUnstaked",
      "type": "event"
    },
    {
      "anonymous": false,
      "inputs": [
        {
          "indexed": true,
          "internalType": "address",
          "name": "user",
          "type": "address"
        },
        {
          "indexed": false,
          "internalType": "uint256",
          "name": "reward",
          "type": "uint256"
        }
      ],
      "name": "RewardClaimed",
      "type": "event"
    },
    {
      "anonymous": false,
      "inputs": [
        {
          "indexed": false,
          "internalType": "uint256",
          "name": "oldRate",
          "type": "uint256"
        },
        {
          "indexed": false,
          "internalType": "uint256",
          "name": "newRate",
          "type": "uint256"
        },
        {
          "indexed": false,
          "internalType": "uint256",
          "name": "oldInterval",
          "type": "uint256"
        },
        {
          "indexed": false,
          "internalType": "uint256",
          "name": "newInterval",
          "type": "uint256"
        },
        {
          "indexed": false,
          "internalType": "uint256",
          "name": "oldMinClaimTime",
          "type": "uint256"
        },
        {
          "indexed": false,
          "internalType": "uint256",
          "name": "newMinClaimTime",
          "type": "uint256"
        }
      ],
      "name": "RewardConfigChanged",
      "type": "event"
    },
    {
      "anonymous": false,
      "inputs": [
        {
          "indexed": true,
          "internalType": "address",
          "name": "user",
          "type": "address"
        },
        {
          "indexed": false,
          "internalType": "uint256",
          "name": "amount",
          "type": "uint256"
        }
      ],
      "name": "Staked",
      "type": "event"
    },
    {
      "anonymous": false,
      "inputs": [
        {
          "indexed": true,
          "internalType": "address",
          "name": "from",
          "type": "address"
        },
        {
          "indexed": true,
          "internalType": "address",
          "name": "to",
          "type": "address"
        },
        {
          "indexed": false,
          "internalType": "uint256",
          "name": "value",
          "type": "uint256"
        }
      ],
      "name": "Transfer",
      "type": "event"
    },
    {
      "anonymous": false,
      "inputs": [
        {
          "indexed": true,
          "internalType": "address",
          "name": "user",
          "type": "address"
        },
        {
          "indexed": false,
          "internalType": "uint256",
          "name": "amount",
          "type": "uint256"
        },
        {
          "indexed": false,
          "internalType": "uint256",
          "name": "reward",
          "type": "uint256"
        }
      ],
      "name": "Unstaked",
      "type": "event"
    },
    {
      "anonymous": false,
      "inputs": [
        {
          "indexed": true,
          "internalType": "address",
          "name": "oldAddress",
          "type": "address"
        },
        {
          "indexed": true,
          "internalType": "address",
          "name": "newAddress",
          "type": "address"
        }
      ],
      "name": "WrapperAddressUpdated",
      "type": "event"
    },
    {
      "inputs": [
        {
          "internalType": "address",
          "name": "owner",
          "type": "address"
        },
        {
          "internalType": "address",
          "name": "spender",
          "type": "address"
        }
      ],
      "name": "allowance",
      "outputs": [
        {
          "internalType": "uint256",
          "name": "",
          "type": "uint256"
        }
      ],
      "stateMutability": "view",
      "type": "function"
    },
    {
      "inputs": [
        {
          "internalType": "address",
          "name": "spender",
          "type": "address"
        },
        {
          "internalType": "uint256",
          "name": "value",
          "type": "uint256"
        }
      ],
      "name": "approve",
      "outputs": [
        {
          "internalType": "bool",
          "name": "",
          "type": "bool"
        }
      ],
      "stateMutability": "nonpayable",
      "type": "function"
    },
    {
      "inputs": [
        {
          "internalType": "address",
          "name": "account",
          "type": "address"
        }
      ],
      "name": "balanceOf",
      "outputs": [
        {
          "internalType": "uint256",
          "name": "",
          "type": "uint256"
        }
      ],
      "stateMutability": "view",
      "type": "function"
    },
    {
      "inputs": [
        {
          "internalType": "address",
          "name": "from",
          "type": "address"
        },
        {
          "internalType": "uint256",
          "name": "amount",
          "type": "uint256"
        }
      ],
      "name": "burnFrom",
      "outputs": [],
      "stateMutability": "nonpayable",
      "type": "function"
    },
    {
      "inputs": [],
      "name": "claimReward",
      "outputs": [],
      "stateMutability": "nonpayable",
      "type": "function"
    },
    {
      "inputs": [],
      "name": "compoundReward",
      "outputs": [],
      "stateMutability": "nonpayable",
      "type": "function"
    },
    {
      "inputs": [],
      "name": "decimals",
      "outputs": [
        {
          "internalType": "uint8",
          "name": "",
          "type": "uint8"
        }
      ],
      "stateMutability": "view",
      "type": "function"
    },
    {
      "inputs": [],
      "name": "emergencyUnstake",
      "outputs": [],
      "stateMutability": "nonpayable",
      "type": "function"
    },
    {
      "inputs": [
        {
          "internalType": "address",
          "name": "",
          "type": "address"
        }
      ],
      "name": "lastStakedTime",
      "outputs": [
        {
          "internalType": "uint256",
          "name": "",
          "type": "uint256"
        }
      ],
      "stateMutability": "view",
      "type": "function"
    },
    {
      "inputs": [],
      "name": "minClaimInterval",
      "outputs": [
        {
          "internalType": "uint256",
          "name": "",
          "type": "uint256"
        }
      ],
      "stateMutability": "view",
      "type": "function"
    },
    {
      "inputs": [
        {
          "internalType": "address",
          "name": "to",
          "type": "address"
        },
        {
          "internalType": "uint256",
          "name": "amount",
          "type": "uint256"
        }
      ],
      "name": "mint",
      "outputs": [],
      "stateMutability": "nonpayable",
      "type": "function"
    },
    {
      "inputs": [],
      "name": "name",
      "outputs": [
        {
          "internalType": "string",
          "name": "",
          "type": "string"
        }
      ],
      "stateMutability": "view",
      "type": "function"
    },
    {
      "inputs": [
        {
          "internalType": "address",
          "name": "user",
          "type": "address"
        }
      ],
      "name": "nextClaimTime",
      "outputs": [
        {
          "internalType": "uint256",
          "name": "",
          "type": "uint256"
        }
      ],
      "stateMutability": "view",
      "type": "function"
    },
    {
      "inputs": [],
      "name": "owner",
      "outputs": [
        {
          "internalType": "address",
          "name": "",
          "type": "address"
        }
      ],
      "stateMutability": "view",
      "type": "function"
    },
    {
      "inputs": [
        {
          "internalType": "address",
          "name": "user",
          "type": "address"
        }
      ],
      "name": "pendingReward",
      "outputs": [
        {
          "internalType": "uint256",
          "name": "",
          "type": "uint256"
        }
      ],
      "stateMutability": "view",
      "type": "function"
    },
    {
      "inputs": [],
      "name": "rewardInterval",
      "outputs": [
        {
          "internalType": "uint256",
          "name": "",
          "type": "uint256"
        }
      ],
      "stateMutability": "view",
      "type": "function"
    },
    {
      "inputs": [],
      "name": "rewardRate",
      "outputs": [
        {
          "internalType": "uint256",
          "name": "",
          "type": "uint256"
        }
      ],
      "stateMutability": "view",
      "type": "function"
    },
    {
      "inputs": [
        {
          "internalType": "uint256",
          "name": "newRate",
          "type": "uint256"
        },
        {
          "internalType": "uint256",
          "name": "newInterval",
          "type": "uint256"
        },
        {
          "internalType": "uint256",
          "name": "newMinClaimTime",
          "type": "uint256"
        }
      ],
      "name": "setRewardConfig",
      "outputs": [],
      "stateMutability": "nonpayable",
      "type": "function"
    },
    {
      "inputs": [
        {
          "internalType": "address",
          "name": "wrapperAddress",
          "type": "address"
        }
      ],
      "name": "setWrapperContract",
      "outputs": [],
      "stateMutability": "nonpayable",
      "type": "function"
    },
    {
      "inputs": [
        {
          "internalType": "uint256",
          "name": "amount",
          "type": "uint256"
        }
      ],
      "name": "stake",
      "outputs": [],
      "stateMutability": "nonpayable",
      "type": "function"
    },
    {
      "inputs": [
        {
          "internalType": "address",
          "name": "",
          "type": "address"
        }
      ],
      "name": "stakingBalance",
      "outputs": [
        {
          "internalType": "uint256",
          "name": "",
          "type": "uint256"
        }
      ],
      "stateMutability": "view",
      "type": "function"
    },
    {
      "inputs": [],
      "name": "symbol",
      "outputs": [
        {
          "internalType": "string",
          "name": "",
          "type": "string"
        }
      ],
      "stateMutability": "view",
      "type": "function"
    },
    {
      "inputs": [],
      "name": "totalSupply",
      "outputs": [
        {
          "internalType": "uint256",
          "name": "",
          "type": "uint256"
        }
      ],
      "stateMutability": "view",
      "type": "function"
    },
    {
      "inputs": [
        {
          "internalType": "address",
          "name": "to",
          "type": "address"
        },
        {
          "internalType": "uint256",
          "name": "value",
          "type": "uint256"
        }
      ],
      "name": "transfer",
      "outputs": [
        {
          "internalType": "bool",
          "name": "",
          "type": "bool"
        }
      ],
      "stateMutability": "nonpayable",
      "type": "function"
    },
    {
      "inputs": [
        {
          "internalType": "address",
          "name": "from",
          "type": "address"
        },
        {
          "internalType": "address",
          "name": "to",
          "type": "address"
        },
        {
          "internalType": "uint256",
          "name": "value",
          "type": "uint256"
        }
      ],
      "name": "transferFrom",
      "outputs": [
        {
          "internalType": "bool",
          "name": "",
          "type": "bool"
        }
      ],
      "stateMutability": "nonpayable",
      "type": "function"
    },
    {
      "inputs": [],
      "name": "unstake",
      "outputs": [],
      "stateMutability": "nonpayable",
      "type": "function"
    },
    {
      "inputs": [],
      "name": "wrapperContract",
      "outputs": [
        {
          "internalType": "address",
          "name": "",
          "type": "address"
        }
      ],
      "stateMutability": "view",
      "type": "function"
    }
  ],
  "bytecode": "0x60a06040523461037157604080519081016001600160401b0381118282101761027c576040908152601e82527f477561726469616e206f66204167726963756c747572616c2054726164650000602083015280519081016001600160401b0381118282101761027c57604052600481526311d3d05560e21b602082015281516001600160401b03811161027c57600354600181811c91168015610367575b602082101461025c57601f8111610302575b50602092601f821160011461029d5792819293600092610292575b50508160011b916000199060031b1c1916176003555b80516001600160401b03811161027c57600454600181811c91168015610272575b602082101461025c57601f81116101f7575b50602091601f821160011461019357918192600092610188575b50508160011b916000199060031b1c1916176004555b674563918244f400006007556301e1338060085562093a8060095533608052604051611270908161037782396080518181816105950152818161091401526109ec0152f35b01519050388061012d565b601f198216926004600052806000209160005b8581106101df575083600195106101c6575b505050811b01600455610143565b015160001960f88460031b161c191690553880806101b8565b919260206001819286850151815501940192016101a6565b60046000527f8a35acfbc15ff81a39ae7d344fd709f28e8600b4aa8c65c6b64bfe7fe36bd19b601f830160051c81019160208410610252575b601f0160051c01905b8181106102465750610113565b60008155600101610239565b9091508190610230565b634e487b7160e01b600052602260045260246000fd5b90607f1690610101565b634e487b7160e01b600052604160045260246000fd5b0151905038806100ca565b601f198216936003600052806000209160005b8681106102ea57508360019596106102d1575b505050811b016003556100e0565b015160001960f88460031b161c191690553880806102c3565b919260206001819286850151815501940192016102b0565b60036000527fc2575a0e9e593c00f959f8c92f12db2869c3395a3b0502d05e2516446f71f85b601f830160051c8101916020841061035d575b601f0160051c01905b81811061035157506100af565b60008155600101610344565b909150819061033b565b90607f169061009d565b600080fdfe608080604052600436101561001357600080fd5b60003560e01c90816306fdde0314610e2357508063095ea7b314610d9d57806318160ddd14610d7f5780631afcd0e614610d6157806323b872dd14610c745780632def662014610b80578063313ce56714610b6457806340c10f1914610af157806345bc78ab14610ab75780634e4d735e146109cc5780634e558127146108f55780636d971a10146107f857806370a08231146107be57806370f23da71461079b5780637589cf2f146106e557806379cc6790146105e25780637b0a47ee146105c45780638da5cb5b1461057f57806395d89b411461045e578063a694fc3a146103a6578063a9059cbb14610375578063b88a802f14610263578063bec4de3f14610245578063c57a202c1461020b578063dd62ed3e146101ba578063e2e8b935146101915763f40f0f521461014857600080fd5b3461018c57602036600319011261018c576020610184610166610f3f565b6001600160a01b038116600090815260068452604090205490611151565b604051908152f35b600080fd5b3461018c57600036600319011261018c57600a546040516001600160a01b039091168152602090f35b3461018c57604036600319011261018c576101d3610f3f565b6101db610f55565b6001600160a01b039182166000908152600160209081526040808320949093168252928352819020549051908152f35b3461018c57602036600319011261018c576001600160a01b0361022c610f3f565b1660005260066020526020604060002054604051908152f35b3461018c57600036600319011261018c576020600854604051908152f35b3461018c57600036600319011261018c573360005260066020526102a360406000205461029d6102938242610fac565b6009541115610fcf565b33611151565b801561033b573060005260006020526040600020548181101560001461030d57506102cf81333061108f565b336000526006602052426040600020556040519081527f106f923f993c2149d49b4255ff723acafa1f2d94393f561d3eda32ae348f724160203392a2005b610320816103269261032b575b83610fac565b336111dc565b6102cf565b61033681333061108f565b61031a565b60405162461bcd60e51b81526020600482015260126024820152714e6f2072657761726420746f20636c61696d60701b6044820152606490fd5b3461018c57604036600319011261018c5761039b610391610f3f565b602435903361108f565b602060405160018152f35b3461018c57602036600319011261018c576004358015610424576103cb81303361108f565b33600052600560205260406000206103e4828254611013565b9055336000526006602052426040600020556040519081527f9e71bc8eea02a63969f509818f2dafb9254532904319f9dbda79b67bd34a5f3d60203392a2005b60405162461bcd60e51b81526020600482015260126024820152710416d6f756e74206d757374206265203e20360741b6044820152606490fd5b3461018c57600036600319011261018c5760405160006004548060011c90600181168015610575575b6020831081146105615782855290811561054557506001146104ee575b50819003601f01601f191681019067ffffffffffffffff8211818310176104d8576104d482918260405282610ef6565b0390f35b634e487b7160e01b600052604160045260246000fd5b905060046000527f8a35acfbc15ff81a39ae7d344fd709f28e8600b4aa8c65c6b64bfe7fe36bd19b6000905b82821061052f575060209150820101826104a4565b600181602092548385880101520191019061051a565b90506020925060ff191682840152151560051b820101826104a4565b634e487b7160e01b84526022600452602484fd5b91607f1691610487565b3461018c57600036600319011261018c576040517f00000000000000000000000000000000000000000000000000000000000000006001600160a01b03168152602090f35b3461018c57600036600319011261018c576020600754604051908152f35b3461018c57604036600319011261018c576105fb610f3f565b600a5460243591906001600160a01b031633036106ac576001600160a01b03169081156106965760009082825281602052604082205481811061067e5760208285937fddf252ad1be2c89b69c2b068fc378daa952ba7f163c4a11628f55a4df523b3ef93869787528684520360408620558060025403600255604051908152a380f35b60649363391434e360e21b8452600452602452604452fd5b634b637e8f60e11b600052600060045260246000fd5b60405162461bcd60e51b81526020600482015260116024820152702ab730baba3437b934bd32b210313ab93760791b6044820152606490fd5b3461018c57600036600319011261018c57336000526005602052604060002054610710811515610f6b565b336000526005602052600060408120553360005260066020526000604081205530600052600060205260406000205481811015600014610784575061075681333061108f565b6040519081527fb7eb776ef583a719429ef1d1fa5f886dd63c2df82bd8da540ac25bdc81c4a13460203392a2005b610320816107969261032b5783610fac565b610756565b3461018c57602036600319011261018c5760206101846107b9610f3f565b61105c565b3461018c57602036600319011261018c576001600160a01b036107df610f3f565b1660005260006020526020604060002054604051908152f35b3461018c57600036600319011261018c5733600052600660205261082860406000205461029d6102938242610fac565b80156108b85730600052600060205260406000205481811061089f575b50336000526005602052604060002061085f828254611013565b9055336000526006602052426040600020556040519081527fc16de066392da7e40ceccb739c331fc48a2e76bf147449613c48023d960eec3260203392a2005b6108ac6108b29183610fac565b306111dc565b81610845565b60405162461bcd60e51b8152602060048201526015602482015274139bc81c995dd85c99081d1bc818dbdb5c1bdd5b99605a1b6044820152606490fd5b3461018c57602036600319011261018c5761090e610f3f565b610942337f00000000000000000000000000000000000000000000000000000000000000006001600160a01b031614611020565b6001600160a01b0316801561099557600a80546001600160a01b0319811683179091556001600160a01b03167f54252f16f132af3769d691057038bc87d9fdc9619c9e830ceec8a49cc13fff44600080a3005b60405162461bcd60e51b815260206004820152600f60248201526e496e76616c6964206164647265737360881b6044820152606490fd5b3461018c57606036600319011261018c57604435602435600435610a1a337f00000000000000000000000000000000000000000000000000000000000000006001600160a01b031614611020565b8115610a7b577f55764ed25d8d6fea4fcffc2914ad2587a52f9fc766559d1bc91b2d7cf6bf774260c060075460085460095490604051928352856020840152604083015285606083015260808201528560a0820152a1600755600855600955005b60405162461bcd60e51b81526020600482015260146024820152730496e74657276616c206d757374206265203e20360641b6044820152606490fd5b3461018c57602036600319011261018c576001600160a01b03610ad8610f3f565b1660005260056020526020604060002054604051908152f35b3461018c57604036600319011261018c57610b0a610f3f565b600a546001600160a01b03163303610b2b57610b2990602435906111dc565b005b60405162461bcd60e51b8152602060048201526011602482015270155b985d5d1a1bdc9a5e9959081b5a5b9d607a1b6044820152606490fd5b3461018c57600036600319011261018c57602060405160128152f35b3461018c57600036600319011261018c57336000526005602052604060002054610bab811515610f6b565b336000526006602052610bca60406000205461029d6102938242610fac565b610bd48183611013565b336000526005602052600060408120553360005260066020526000604081205530600052600060205260406000205481811015600014610c4d5750610c1a90333061108f565b60405191825260208201527f7fc4727e062e336010f2c282598ef5f14facb3de68cf8195c2f23e1454b2b74e60403392a2005b80610c5f9261032092610c6457610fac565b610c1a565b610c6f82333061108f565b610fac565b3461018c57606036600319011261018c57610c8d610f3f565b610c95610f55565b6001600160a01b0382166000818152600160209081526040808320338452909152902054909260443592916000198110610cd5575b5061039b935061108f565b838110610d44578415610d2e573315610d185761039b946000526001602052604060002060018060a01b0333166000526020528360406000209103905584610cca565b634a1406b160e11b600052600060045260246000fd5b63e602df0560e01b600052600060045260246000fd5b8390637dc7a0d960e11b6000523360045260245260445260646000fd5b3461018c57600036600319011261018c576020600954604051908152f35b3461018c57600036600319011261018c576020600254604051908152f35b3461018c57604036600319011261018c57610db6610f3f565b602435903315610d2e576001600160a01b0316908115610d1857336000526001602052604060002082600052602052806040600020556040519081527f8c5be1e5ebec7d5bd14f71427d1e84f3dd0314c0f7b2291e5b200ac8c7c3b92560203392a3602060405160018152f35b3461018c57600036600319011261018c5760006003548060011c90600181168015610eec575b602083108114610561578285529081156105455750600114610e955750819003601f01601f191681019067ffffffffffffffff8211818310176104d8576104d482918260405282610ef6565b905060036000527fc2575a0e9e593c00f959f8c92f12db2869c3395a3b0502d05e2516446f71f85b6000905b828210610ed6575060209150820101826104a4565b6001816020925483858801015201910190610ec1565b91607f1691610e49565b91909160208152825180602083015260005b818110610f29575060409293506000838284010152601f8019910116010190565b8060208092870101516040828601015201610f08565b600435906001600160a01b038216820361018c57565b602435906001600160a01b038216820361018c57565b15610f7257565b60405162461bcd60e51b81526020600482015260126024820152714e6f7468696e6720746f20756e7374616b6560701b6044820152606490fd5b91908203918211610fb957565b634e487b7160e01b600052601160045260246000fd5b15610fd657565b60405162461bcd60e51b815260206004820152601560248201527410db185a5b481b9bdd08185b1b1bddd959081e595d605a1b6044820152606490fd5b91908201809211610fb957565b1561102757565b60405162461bcd60e51b815260206004820152600d60248201526c2737ba103a34329037bbb732b960991b6044820152606490fd5b6001600160a01b031660009081526006602052604090205480156110895760095461108691611013565b90565b50600090565b6001600160a01b0316908115610696576001600160a01b031691821561112857600082815280602052604081205482811061110e5791604082827fddf252ad1be2c89b69c2b068fc378daa952ba7f163c4a11628f55a4df523b3ef958760209652828652038282205586815280845220818154019055604051908152a3565b916064928463391434e360e21b8452600452602452604452fd5b63ec442f0560e01b600052600060045260246000fd5b81810292918115918404141715610fb957565b6001600160a01b03166000908152600560205260409020549081156111d557611190916111816111879242610fac565b9061113e565b6007549061113e565b60085490670de0b6b3a7640000820291808304670de0b6b3a76400001490151715610fb95781156111bf570490565b634e487b7160e01b600052601260045260246000fd5b5050600090565b6001600160a01b0316908115611128576111f881600254611013565b6002557fddf252ad1be2c89b69c2b068fc378daa952ba7f163c4a11628f55a4df523b3ef602060009284845283825260408420818154019055604051908152a356fea2646970667358221220dfcb5c939d79b4e4defa351a497ced535a5e233fb28d11228bbb9662fcee6e0264736f6c634300081d0033",
  "linkReferences": {},
  "deployedLinkReferences": {}
}