{
  "_format": "hh-sol-artifact-1",
  "contractName": "GOAT",
  "sourceName": "contracts/GOAT.sol",
  "abi": [
    {
      "inputs": [
        {
          "internalType": "address",
          "name": "meatAddress",
          "type": "address"
        }
      ],
      "stateMutability": "nonpayable",
      "type": "constructor"
    },
    {
      "inputs": [
        {
          "internalType": "address",
          "name": "spender",
          "type": "address"
        },
        {
          "internalType": "uint256",
          "name": "allowance",
          "type": "uint256"
        },
        {
          "internalType": "uint256",
          "name": "needed",
          "type": "uint256"
        }
      ],
      "name": "ERC20InsufficientAllowance",
      "type": "error"
    },
    {
      "inputs": [
        {
          "internalType": "address",
          "name": "sender",
          "type": "address"
        },
        {
          "internalType": "uint256",
          "name": "balance",
          "type": "uint256"
        },
        {
          "internalType": "uint256",
          "name": "needed",
          "type": "uint256"
        }
      ],
      "name": "ERC20InsufficientBalance",
      "type": "error"
    },
    {
      "inputs": [
        {
          "internalType": "address",
          "name": "approver",
          "type": "address"
        }
      ],
      "name": "ERC20InvalidApprover",
      "type": "error"
    },
    {
      "inputs": [
        {
          "internalType": "address",
          "name": "receiver",
          "type": "address"
        }
      ],
      "name": "ERC20InvalidReceiver",
      "type": "error"
    },
    {
      "inputs": [
        {
          "internalType": "address",
          "name": "sender",
          "type": "address"
        }
      ],
      "name": "ERC20InvalidSender",
      "type": "error"
    },
    {
      "inputs": [
        {
          "internalType": "address",
          "name": "spender",
          "type": "address"
        }
      ],
      "name": "ERC20InvalidSpender",
      "type": "error"
    },
    {
      "anonymous": false,
      "inputs": [
        {
          "indexed": true,
          "internalType": "address",
          "name": "owner",
          "type": "address"
        },
        {
          "indexed": true,
          "internalType": "address",
          "name": "spender",
          "type": "address"
        },
        {
          "indexed": false,
          "internalType": "uint256",
          "name": "value",
          "type": "uint256"
        }
      ],
      "name": "Approval",
      "type": "event"
    },
    {
      "anonymous": false,
      "inputs": [
        {
          "indexed": true,
          "internalType": "address",
          "name": "user",
          "type": "address"
        },
        {
          "indexed": false,
          "internalType": "uint256",
          "name": "reward",
          "type": "uint256"
        }
      ],
      "name": "Compounded",
      "type": "event"
    },
    {
      "anonymous": false,
      "inputs": [
        {
          "indexed": true,
          "internalType": "address",
          "name": "user",
          "type": "address"
        },
        {
          "indexed": false,
          "internalType": "uint256",
          "name": "amount",
          "type": "uint256"
        }
      ],
      "name": "EmergencyUnstaked",
      "type": "event"
    },
    {
      "anonymous": false,
      "inputs": [
        {
          "indexed": true,
          "internalType": "address",
          "name": "oldAddress",
          "type": "address"
        },
        {
          "indexed": true,
          "internalType": "address",
          "name": "newAddress",
          "type": "address"
        }
      ],
      "name": "MeatAddressUpdated",
      "type": "event"
    },
    {
      "anonymous": false,
      "inputs": [
        {
          "indexed": true,
          "internalType": "address",
          "name": "oldAddress",
          "type": "address"
        },
        {
          "indexed": true,
          "internalType": "address",
          "name": "newAddress",
          "type": "address"
        }
      ],
      "name": "NftAddressUpdated",
      "type": "event"
    },
    {
      "anonymous": false,
      "inputs": [
        {
          "indexed": true,
          "internalType": "address",
          "name": "user",
          "type": "address"
        },
        {
          "indexed": false,
          "internalType": "uint256",
          "name": "reward",
          "type": "uint256"
        }
      ],
      "name": "RewardClaimed",
      "type": "event"
    },
    {
      "anonymous": false,
      "inputs": [
        {
          "indexed": false,
          "internalType": "uint256",
          "name": "oldRate",
          "type": "uint256"
        },
        {
          "indexed": false,
          "internalType": "uint256",
          "name": "newRate",
          "type": "uint256"
        },
        {
          "indexed": false,
          "internalType": "uint256",
          "name": "oldInterval",
          "type": "uint256"
        },
        {
          "indexed": false,
          "internalType": "uint256",
          "name": "newInterval",
          "type": "uint256"
        },
        {
          "indexed": false,
          "internalType": "uint256",
          "name": "oldMinClaimTime",
          "type": "uint256"
        },
        {
          "indexed": false,
          "internalType": "uint256",
          "name": "newMinClaimTime",
          "type": "uint256"
        }
      ],
      "name": "RewardConfigChanged",
      "type": "event"
    },
    {
      "anonymous": false,
      "inputs": [
        {
          "indexed": true,
          "internalType": "address",
          "name": "user",
          "type": "address"
        },
        {
          "indexed": false,
          "internalType": "uint256",
          "name": "amount",
          "type": "uint256"
        }
      ],
      "name": "Staked",
      "type": "event"
    },
    {
      "anonymous": false,
      "inputs": [
        {
          "indexed": true,
          "internalType": "address",
          "name": "from",
          "type": "address"
        },
        {
          "indexed": true,
          "internalType": "address",
          "name": "to",
          "type": "address"
        },
        {
          "indexed": false,
          "internalType": "uint256",
          "name": "value",
          "type": "uint256"
        }
      ],
      "name": "Transfer",
      "type": "event"
    },
    {
      "anonymous": false,
      "inputs": [
        {
          "indexed": true,
          "internalType": "address",
          "name": "user",
          "type": "address"
        },
        {
          "indexed": false,
          "internalType": "uint256",
          "name": "amount",
          "type": "uint256"
        },
        {
          "indexed": false,
          "internalType": "uint256",
          "name": "reward",
          "type": "uint256"
        }
      ],
      "name": "Unstaked",
      "type": "event"
    },
    {
      "inputs": [
        {
          "internalType": "address",
          "name": "owner",
          "type": "address"
        },
        {
          "internalType": "address",
          "name": "spender",
          "type": "address"
        }
      ],
      "name": "allowance",
      "outputs": [
        {
          "internalType": "uint256",
          "name": "",
          "type": "uint256"
        }
      ],
      "stateMutability": "view",
      "type": "function"
    },
    {
      "inputs": [
        {
          "internalType": "address",
          "name": "spender",
          "type": "address"
        },
        {
          "internalType": "uint256",
          "name": "value",
          "type": "uint256"
        }
      ],
      "name": "approve",
      "outputs": [
        {
          "internalType": "bool",
          "name": "",
          "type": "bool"
        }
      ],
      "stateMutability": "nonpayable",
      "type": "function"
    },
    {
      "inputs": [
        {
          "internalType": "address",
          "name": "account",
          "type": "address"
        }
      ],
      "name": "balanceOf",
      "outputs": [
        {
          "internalType": "uint256",
          "name": "",
          "type": "uint256"
        }
      ],
      "stateMutability": "view",
      "type": "function"
    },
    {
      "inputs": [
        {
          "internalType": "address",
          "name": "from",
          "type": "address"
        },
        {
          "internalType": "uint256",
          "name": "amount",
          "type": "uint256"
        }
      ],
      "name": "burnFrom",
      "outputs": [],
      "stateMutability": "nonpayable",
      "type": "function"
    },
    {
      "inputs": [],
      "name": "claimReward",
      "outputs": [],
      "stateMutability": "nonpayable",
      "type": "function"
    },
    {
      "inputs": [],
      "name": "compoundReward",
      "outputs": [],
      "stateMutability": "nonpayable",
      "type": "function"
    },
    {
      "inputs": [],
      "name": "decimals",
      "outputs": [
        {
          "internalType": "uint8",
          "name": "",
          "type": "uint8"
        }
      ],
      "stateMutability": "view",
      "type": "function"
    },
    {
      "inputs": [],
      "name": "emergencyUnstake",
      "outputs": [],
      "stateMutability": "nonpayable",
      "type": "function"
    },
    {
      "inputs": [
        {
          "internalType": "address",
          "name": "",
          "type": "address"
        }
      ],
      "name": "lastStakedTime",
      "outputs": [
        {
          "internalType": "uint256",
          "name": "",
          "type": "uint256"
        }
      ],
      "stateMutability": "view",
      "type": "function"
    },
    {
      "inputs": [],
      "name": "meatContract",
      "outputs": [
        {
          "internalType": "address",
          "name": "",
          "type": "address"
        }
      ],
      "stateMutability": "view",
      "type": "function"
    },
    {
      "inputs": [],
      "name": "minClaimInterval",
      "outputs": [
        {
          "internalType": "uint256",
          "name": "",
          "type": "uint256"
        }
      ],
      "stateMutability": "view",
      "type": "function"
    },
    {
      "inputs": [
        {
          "internalType": "address",
          "name": "to",
          "type": "address"
        },
        {
          "internalType": "uint256",
          "name": "amount",
          "type": "uint256"
        }
      ],
      "name": "mint",
      "outputs": [],
      "stateMutability": "nonpayable",
      "type": "function"
    },
    {
      "inputs": [
        {
          "internalType": "address",
          "name": "to",
          "type": "address"
        },
        {
          "internalType": "uint256",
          "name": "amount",
          "type": "uint256"
        }
      ],
      "name": "mintTo",
      "outputs": [],
      "stateMutability": "nonpayable",
      "type": "function"
    },
    {
      "inputs": [],
      "name": "name",
      "outputs": [
        {
          "internalType": "string",
          "name": "",
          "type": "string"
        }
      ],
      "stateMutability": "view",
      "type": "function"
    },
    {
      "inputs": [
        {
          "internalType": "address",
          "name": "user",
          "type": "address"
        }
      ],
      "name": "nextClaimTime",
      "outputs": [
        {
          "internalType": "uint256",
          "name": "",
          "type": "uint256"
        }
      ],
      "stateMutability": "view",
      "type": "function"
    },
    {
      "inputs": [],
      "name": "nftContract",
      "outputs": [
        {
          "internalType": "address",
          "name": "",
          "type": "address"
        }
      ],
      "stateMutability": "view",
      "type": "function"
    },
    {
      "inputs": [],
      "name": "owner",
      "outputs": [
        {
          "internalType": "address",
          "name": "",
          "type": "address"
        }
      ],
      "stateMutability": "view",
      "type": "function"
    },
    {
      "inputs": [
        {
          "internalType": "address",
          "name": "user",
          "type": "address"
        }
      ],
      "name": "pendingReward",
      "outputs": [
        {
          "internalType": "uint256",
          "name": "",
          "type": "uint256"
        }
      ],
      "stateMutability": "view",
      "type": "function"
    },
    {
      "inputs": [],
      "name": "rewardInterval",
      "outputs": [
        {
          "internalType": "uint256",
          "name": "",
          "type": "uint256"
        }
      ],
      "stateMutability": "view",
      "type": "function"
    },
    {
      "inputs": [],
      "name": "rewardRate",
      "outputs": [
        {
          "internalType": "uint256",
          "name": "",
          "type": "uint256"
        }
      ],
      "stateMutability": "view",
      "type": "function"
    },
    {
      "inputs": [
        {
          "internalType": "address",
          "name": "meatAddress",
          "type": "address"
        }
      ],
      "name": "setMEATAddress",
      "outputs": [],
      "stateMutability": "nonpayable",
      "type": "function"
    },
    {
      "inputs": [
        {
          "internalType": "address",
          "name": "nftAddress",
          "type": "address"
        }
      ],
      "name": "setNFTAddress",
      "outputs": [],
      "stateMutability": "nonpayable",
      "type": "function"
    },
    {
      "inputs": [
        {
          "internalType": "uint256",
          "name": "newRate",
          "type": "uint256"
        },
        {
          "internalType": "uint256",
          "name": "newInterval",
          "type": "uint256"
        },
        {
          "internalType": "uint256",
          "name": "newMinClaimTime",
          "type": "uint256"
        }
      ],
      "name": "setRewardConfig",
      "outputs": [],
      "stateMutability": "nonpayable",
      "type": "function"
    },
    {
      "inputs": [
        {
          "internalType": "uint256",
          "name": "amount",
          "type": "uint256"
        }
      ],
      "name": "stake",
      "outputs": [],
      "stateMutability": "nonpayable",
      "type": "function"
    },
    {
      "inputs": [
        {
          "internalType": "address",
          "name": "",
          "type": "address"
        }
      ],
      "name": "stakingBalance",
      "outputs": [
        {
          "internalType": "uint256",
          "name": "",
          "type": "uint256"
        }
      ],
      "stateMutability": "view",
      "type": "function"
    },
    {
      "inputs": [],
      "name": "symbol",
      "outputs": [
        {
          "internalType": "string",
          "name": "",
          "type": "string"
        }
      ],
      "stateMutability": "view",
      "type": "function"
    },
    {
      "inputs": [],
      "name": "totalSupply",
      "outputs": [
        {
          "internalType": "uint256",
          "name": "",
          "type": "uint256"
        }
      ],
      "stateMutability": "view",
      "type": "function"
    },
    {
      "inputs": [
        {
          "internalType": "address",
          "name": "to",
          "type": "address"
        },
        {
          "internalType": "uint256",
          "name": "value",
          "type": "uint256"
        }
      ],
      "name": "transfer",
      "outputs": [
        {
          "internalType": "bool",
          "name": "",
          "type": "bool"
        }
      ],
      "stateMutability": "nonpayable",
      "type": "function"
    },
    {
      "inputs": [
        {
          "internalType": "address",
          "name": "from",
          "type": "address"
        },
        {
          "internalType": "address",
          "name": "to",
          "type": "address"
        },
        {
          "internalType": "uint256",
          "name": "value",
          "type": "uint256"
        }
      ],
      "name": "transferFrom",
      "outputs": [
        {
          "internalType": "bool",
          "name": "",
          "type": "bool"
        }
      ],
      "stateMutability": "nonpayable",
      "type": "function"
    },
    {
      "inputs": [],
      "name": "unstake",
      "outputs": [],
      "stateMutability": "nonpayable",
      "type": "function"
    }
  ],
  "bytecode": "0x60a0604052346103a2576117726020813803918261001c816103a7565b9384928339810103126103a257516001600160a01b038116908190036103a25761004660406103a7565b90601e82527f477561726469616e206f66204167726963756c747572616c2054726164650000602083015261007b60406103a7565b600481526311d3d05560e21b602082015282519091906001600160401b0381116102ab57600354600181811c91168015610398575b602082101461028b57601f8111610333575b506020601f82116001146102cc57819293946000926102c1575b50508160011b916000199060031b1c1916176003555b81516001600160401b0381116102ab57600454600181811c911680156102a1575b602082101461028b57601f8111610226575b50602092601f82116001146101c157928192936000926101b6575b50508160011b916000199060031b1c1916176004555b674563918244f400006007556301e1338060085562093a8060095533608052600a80546001600160a01b0319169190911790556040516113a590816103cd82396080518181816105b60152818161093501528181610a040152610b950152f35b015190503880610140565b601f198216936004600052806000209160005b86811061020e57508360019596106101f5575b505050811b01600455610156565b015160001960f88460031b161c191690553880806101e7565b919260206001819286850151815501940192016101d4565b60046000527f8a35acfbc15ff81a39ae7d344fd709f28e8600b4aa8c65c6b64bfe7fe36bd19b601f830160051c81019160208410610281575b601f0160051c01905b8181106102755750610125565b60008155600101610268565b909150819061025f565b634e487b7160e01b600052602260045260246000fd5b90607f1690610113565b634e487b7160e01b600052604160045260246000fd5b0151905038806100dc565b601f198216906003600052806000209160005b81811061031b57509583600195969710610302575b505050811b016003556100f2565b015160001960f88460031b161c191690553880806102f4565b9192602060018192868b0151815501940192016102df565b60036000527fc2575a0e9e593c00f959f8c92f12db2869c3395a3b0502d05e2516446f71f85b601f830160051c8101916020841061038e575b601f0160051c01905b81811061038257506100c2565b60008155600101610375565b909150819061036c565b90607f16906100b0565b600080fd5b6040519190601f01601f191682016001600160401b038111838210176102ab5760405256fe608080604052600436101561001357600080fd5b60003560e01c90816306fdde0314610eda57508063095ea7b314610e5457806318160ddd14610e365780631afcd0e614610e1857806323b872dd14610d2b5780632def662014610c37578063313ce56714610c1b5780633ab4328914610b7657806340c10f1914610b45578063449a52f814610b0957806345bc78ab14610acf5780634e4d735e146109e4578063689b6417146109bb57806369d03738146109165780636d971a101461081957806370a08231146107df57806370f23da7146107bc5780637589cf2f1461070657806379cc6790146106035780637b0a47ee146105e55780638da5cb5b146105a057806395d89b411461047f578063a694fc3a146103c7578063a9059cbb14610396578063b88a802f14610284578063bec4de3f14610266578063c57a202c1461022c578063d56d229d14610203578063dd62ed3e146101b25763f40f0f521461016957600080fd5b346101ad5760203660031901126101ad5760206101a5610187610ff6565b6001600160a01b038116600090815260068452604090205490611286565b604051908152f35b600080fd5b346101ad5760403660031901126101ad576101cb610ff6565b6101d361100c565b6001600160a01b039182166000908152600160209081526040808320949093168252928352819020549051908152f35b346101ad5760003660031901126101ad57600b546040516001600160a01b039091168152602090f35b346101ad5760203660031901126101ad576001600160a01b0361024d610ff6565b1660005260066020526020604060002054604051908152f35b346101ad5760003660031901126101ad576020600854604051908152f35b346101ad5760003660031901126101ad573360005260066020526102c46040600020546102be6102b48242611063565b6009541115611086565b33611286565b801561035c573060005260006020526040600020548181101560001461032e57506102f08133306111c4565b336000526006602052426040600020556040519081527f106f923f993c2149d49b4255ff723acafa1f2d94393f561d3eda32ae348f724160203392a2005b610341816103479261034c575b83611063565b33611311565b6102f0565b6103578133306111c4565b61033b565b60405162461bcd60e51b81526020600482015260126024820152714e6f2072657761726420746f20636c61696d60701b6044820152606490fd5b346101ad5760403660031901126101ad576103bc6103b2610ff6565b60243590336111c4565b602060405160018152f35b346101ad5760203660031901126101ad576004358015610445576103ec8130336111c4565b33600052600560205260406000206104058282546110ca565b9055336000526006602052426040600020556040519081527f9e71bc8eea02a63969f509818f2dafb9254532904319f9dbda79b67bd34a5f3d60203392a2005b60405162461bcd60e51b81526020600482015260126024820152710416d6f756e74206d757374206265203e20360741b6044820152606490fd5b346101ad5760003660031901126101ad5760405160006004548060011c90600181168015610596575b60208310811461058257828552908115610566575060011461050f575b50819003601f01601f191681019067ffffffffffffffff8211818310176104f9576104f582918260405282610fad565b0390f35b634e487b7160e01b600052604160045260246000fd5b905060046000527f8a35acfbc15ff81a39ae7d344fd709f28e8600b4aa8c65c6b64bfe7fe36bd19b6000905b828210610550575060209150820101826104c5565b600181602092548385880101520191019061053b565b90506020925060ff191682840152151560051b820101826104c5565b634e487b7160e01b84526022600452602484fd5b91607f16916104a8565b346101ad5760003660031901126101ad576040517f00000000000000000000000000000000000000000000000000000000000000006001600160a01b03168152602090f35b346101ad5760003660031901126101ad576020600754604051908152f35b346101ad5760403660031901126101ad5761061c610ff6565b600b5460243591906001600160a01b031633036106cd576001600160a01b03169081156106b75760009082825281602052604082205481811061069f5760208285937fddf252ad1be2c89b69c2b068fc378daa952ba7f163c4a11628f55a4df523b3ef93869787528684520360408620558060025403600255604051908152a380f35b60649363391434e360e21b8452600452602452604452fd5b634b637e8f60e11b600052600060045260246000fd5b60405162461bcd60e51b81526020600482015260116024820152702ab730baba3437b934bd32b210313ab93760791b6044820152606490fd5b346101ad5760003660031901126101ad57336000526005602052604060002054610731811515611022565b3360005260056020526000604081205533600052600660205260006040812055306000526000602052604060002054818110156000146107a557506107778133306111c4565b6040519081527fb7eb776ef583a719429ef1d1fa5f886dd63c2df82bd8da540ac25bdc81c4a13460203392a2005b610341816107b79261034c5783611063565b610777565b346101ad5760203660031901126101ad5760206101a56107da610ff6565b611191565b346101ad5760203660031901126101ad576001600160a01b03610800610ff6565b1660005260006020526020604060002054604051908152f35b346101ad5760003660031901126101ad573360005260066020526108496040600020546102be6102b48242611063565b80156108d9573060005260006020526040600020548181106108c0575b5033600052600560205260406000206108808282546110ca565b9055336000526006602052426040600020556040519081527fc16de066392da7e40ceccb739c331fc48a2e76bf147449613c48023d960eec3260203392a2005b6108cd6108d39183611063565b30611311565b81610866565b60405162461bcd60e51b8152602060048201526015602482015274139bc81c995dd85c99081d1bc818dbdb5c1bdd5b99605a1b6044820152606490fd5b346101ad5760203660031901126101ad5761092f610ff6565b610963337f00000000000000000000000000000000000000000000000000000000000000006001600160a01b0316146110d7565b6001600160a01b0316610977811515611113565b600b80546001600160a01b0319811683179091556001600160a01b03167f51d2761f030964e882529b208c5390589ddac658d9a1a6d3b8a1cbaed35e7d33600080a3005b346101ad5760003660031901126101ad57600a546040516001600160a01b039091168152602090f35b346101ad5760603660031901126101ad57604435602435600435610a32337f00000000000000000000000000000000000000000000000000000000000000006001600160a01b0316146110d7565b8115610a93577f55764ed25d8d6fea4fcffc2914ad2587a52f9fc766559d1bc91b2d7cf6bf774260c060075460085460095490604051928352856020840152604083015285606083015260808201528560a0820152a1600755600855600955005b60405162461bcd60e51b81526020600482015260146024820152730496e74657276616c206d757374206265203e20360641b6044820152606490fd5b346101ad5760203660031901126101ad576001600160a01b03610af0610ff6565b1660005260056020526020604060002054604051908152f35b346101ad5760403660031901126101ad57610b43610b25610ff6565b610b3a60018060a01b03600a54163314611151565b60243590611311565b005b346101ad5760403660031901126101ad57610b43610b61610ff6565b610b3a60018060a01b03600b54163314611151565b346101ad5760203660031901126101ad57610b8f610ff6565b610bc3337f00000000000000000000000000000000000000000000000000000000000000006001600160a01b0316146110d7565b6001600160a01b0316610bd7811515611113565b600a80546001600160a01b0319811683179091556001600160a01b03167fd81c1149683089dec8dd03ff33fd8b5213095d59fcee5d7c640dcd7ec4c7b116600080a3005b346101ad5760003660031901126101ad57602060405160128152f35b346101ad5760003660031901126101ad57336000526005602052604060002054610c62811515611022565b336000526006602052610c816040600020546102be6102b48242611063565b610c8b81836110ca565b336000526005602052600060408120553360005260066020526000604081205530600052600060205260406000205481811015600014610d045750610cd19033306111c4565b60405191825260208201527f7fc4727e062e336010f2c282598ef5f14facb3de68cf8195c2f23e1454b2b74e60403392a2005b80610d169261034192610d1b57611063565b610cd1565b610d268233306111c4565b611063565b346101ad5760603660031901126101ad57610d44610ff6565b610d4c61100c565b6001600160a01b0382166000818152600160209081526040808320338452909152902054909260443592916000198110610d8c575b506103bc93506111c4565b838110610dfb578415610de5573315610dcf576103bc946000526001602052604060002060018060a01b0333166000526020528360406000209103905584610d81565b634a1406b160e11b600052600060045260246000fd5b63e602df0560e01b600052600060045260246000fd5b8390637dc7a0d960e11b6000523360045260245260445260646000fd5b346101ad5760003660031901126101ad576020600954604051908152f35b346101ad5760003660031901126101ad576020600254604051908152f35b346101ad5760403660031901126101ad57610e6d610ff6565b602435903315610de5576001600160a01b0316908115610dcf57336000526001602052604060002082600052602052806040600020556040519081527f8c5be1e5ebec7d5bd14f71427d1e84f3dd0314c0f7b2291e5b200ac8c7c3b92560203392a3602060405160018152f35b346101ad5760003660031901126101ad5760006003548060011c90600181168015610fa3575b602083108114610582578285529081156105665750600114610f4c5750819003601f01601f191681019067ffffffffffffffff8211818310176104f9576104f582918260405282610fad565b905060036000527fc2575a0e9e593c00f959f8c92f12db2869c3395a3b0502d05e2516446f71f85b6000905b828210610f8d575060209150820101826104c5565b6001816020925483858801015201910190610f78565b91607f1691610f00565b91909160208152825180602083015260005b818110610fe0575060409293506000838284010152601f8019910116010190565b8060208092870101516040828601015201610fbf565b600435906001600160a01b03821682036101ad57565b602435906001600160a01b03821682036101ad57565b1561102957565b60405162461bcd60e51b81526020600482015260126024820152714e6f7468696e6720746f20756e7374616b6560701b6044820152606490fd5b9190820391821161107057565b634e487b7160e01b600052601160045260246000fd5b1561108d57565b60405162461bcd60e51b815260206004820152601560248201527410db185a5b481b9bdd08185b1b1bddd959081e595d605a1b6044820152606490fd5b9190820180921161107057565b156110de57565b60405162461bcd60e51b815260206004820152600d60248201526c2737ba103a34329037bbb732b960991b6044820152606490fd5b1561111a57565b60405162461bcd60e51b815260206004820152600f60248201526e496e76616c6964206164647265737360881b6044820152606490fd5b1561115857565b60405162461bcd60e51b8152602060048201526011602482015270155b985d5d1a1bdc9a5e9959081b5a5b9d607a1b6044820152606490fd5b6001600160a01b031660009081526006602052604090205480156111be576009546111bb916110ca565b90565b50600090565b6001600160a01b03169081156106b7576001600160a01b031691821561125d5760008281528060205260408120548281106112435791604082827fddf252ad1be2c89b69c2b068fc378daa952ba7f163c4a11628f55a4df523b3ef958760209652828652038282205586815280845220818154019055604051908152a3565b916064928463391434e360e21b8452600452602452604452fd5b63ec442f0560e01b600052600060045260246000fd5b8181029291811591840414171561107057565b6001600160a01b031660009081526005602052604090205490811561130a576112c5916112b66112bc9242611063565b90611273565b60075490611273565b60085490670de0b6b3a7640000820291808304670de0b6b3a764000014901517156110705781156112f4570490565b634e487b7160e01b600052601260045260246000fd5b5050600090565b6001600160a01b031690811561125d5761132d816002546110ca565b6002557fddf252ad1be2c89b69c2b068fc378daa952ba7f163c4a11628f55a4df523b3ef602060009284845283825260408420818154019055604051908152a356fea26469706673582212206472d22e020574a1218438e314f901098e51c50bf379fe745fe1eeb2fb0e5ef864736f6c634300081d0033",
  "linkReferences": {},
  "deployedLinkReferences": {}
}