{
  "_format": "hh-sol-artifact-1",
  "contractName": "GOAT",
  "sourceName": "contracts/GOAT.sol",
  "abi": [
    {
      "inputs": [
        {
          "internalType": "address",
          "name": "meatAddress",
          "type": "address"
        }
      ],
      "stateMutability": "nonpayable",
      "type": "constructor"
    },
    {
      "inputs": [
        {
          "internalType": "address",
          "name": "spender",
          "type": "address"
        },
        {
          "internalType": "uint256",
          "name": "allowance",
          "type": "uint256"
        },
        {
          "internalType": "uint256",
          "name": "needed",
          "type": "uint256"
        }
      ],
      "name": "ERC20InsufficientAllowance",
      "type": "error"
    },
    {
      "inputs": [
        {
          "internalType": "address",
          "name": "sender",
          "type": "address"
        },
        {
          "internalType": "uint256",
          "name": "balance",
          "type": "uint256"
        },
        {
          "internalType": "uint256",
          "name": "needed",
          "type": "uint256"
        }
      ],
      "name": "ERC20InsufficientBalance",
      "type": "error"
    },
    {
      "inputs": [
        {
          "internalType": "address",
          "name": "approver",
          "type": "address"
        }
      ],
      "name": "ERC20InvalidApprover",
      "type": "error"
    },
    {
      "inputs": [
        {
          "internalType": "address",
          "name": "receiver",
          "type": "address"
        }
      ],
      "name": "ERC20InvalidReceiver",
      "type": "error"
    },
    {
      "inputs": [
        {
          "internalType": "address",
          "name": "sender",
          "type": "address"
        }
      ],
      "name": "ERC20InvalidSender",
      "type": "error"
    },
    {
      "inputs": [
        {
          "internalType": "address",
          "name": "spender",
          "type": "address"
        }
      ],
      "name": "ERC20InvalidSpender",
      "type": "error"
    },
    {
      "anonymous": false,
      "inputs": [
        {
          "indexed": true,
          "internalType": "address",
          "name": "owner",
          "type": "address"
        },
        {
          "indexed": true,
          "internalType": "address",
          "name": "spender",
          "type": "address"
        },
        {
          "indexed": false,
          "internalType": "uint256",
          "name": "value",
          "type": "uint256"
        }
      ],
      "name": "Approval",
      "type": "event"
    },
    {
      "anonymous": false,
      "inputs": [
        {
          "indexed": true,
          "internalType": "address",
          "name": "user",
          "type": "address"
        },
        {
          "indexed": false,
          "internalType": "uint256",
          "name": "reward",
          "type": "uint256"
        }
      ],
      "name": "Compounded",
      "type": "event"
    },
    {
      "anonymous": false,
      "inputs": [
        {
          "indexed": true,
          "internalType": "address",
          "name": "user",
          "type": "address"
        },
        {
          "indexed": false,
          "internalType": "uint256",
          "name": "amount",
          "type": "uint256"
        }
      ],
      "name": "EmergencyUnstaked",
      "type": "event"
    },
    {
      "anonymous": false,
      "inputs": [
        {
          "indexed": true,
          "internalType": "address",
          "name": "oldAddress",
          "type": "address"
        },
        {
          "indexed": true,
          "internalType": "address",
          "name": "newAddress",
          "type": "address"
        }
      ],
      "name": "MeatAddressUpdated",
      "type": "event"
    },
    {
      "anonymous": false,
      "inputs": [
        {
          "indexed": true,
          "internalType": "address",
          "name": "oldAddress",
          "type": "address"
        },
        {
          "indexed": true,
          "internalType": "address",
          "name": "newAddress",
          "type": "address"
        }
      ],
      "name": "NftAddressUpdated",
      "type": "event"
    },
    {
      "anonymous": false,
      "inputs": [
        {
          "indexed": true,
          "internalType": "address",
          "name": "user",
          "type": "address"
        },
        {
          "indexed": false,
          "internalType": "uint256",
          "name": "reward",
          "type": "uint256"
        }
      ],
      "name": "RewardClaimed",
      "type": "event"
    },
    {
      "anonymous": false,
      "inputs": [
        {
          "indexed": false,
          "internalType": "uint256",
          "name": "oldRate",
          "type": "uint256"
        },
        {
          "indexed": false,
          "internalType": "uint256",
          "name": "newRate",
          "type": "uint256"
        },
        {
          "indexed": false,
          "internalType": "uint256",
          "name": "oldInterval",
          "type": "uint256"
        },
        {
          "indexed": false,
          "internalType": "uint256",
          "name": "newInterval",
          "type": "uint256"
        },
        {
          "indexed": false,
          "internalType": "uint256",
          "name": "oldMinClaimTime",
          "type": "uint256"
        },
        {
          "indexed": false,
          "internalType": "uint256",
          "name": "newMinClaimTime",
          "type": "uint256"
        }
      ],
      "name": "RewardConfigChanged",
      "type": "event"
    },
    {
      "anonymous": false,
      "inputs": [
        {
          "indexed": true,
          "internalType": "address",
          "name": "user",
          "type": "address"
        },
        {
          "indexed": false,
          "internalType": "uint256",
          "name": "amount",
          "type": "uint256"
        }
      ],
      "name": "Staked",
      "type": "event"
    },
    {
      "anonymous": false,
      "inputs": [
        {
          "indexed": true,
          "internalType": "address",
          "name": "from",
          "type": "address"
        },
        {
          "indexed": true,
          "internalType": "address",
          "name": "to",
          "type": "address"
        },
        {
          "indexed": false,
          "internalType": "uint256",
          "name": "value",
          "type": "uint256"
        }
      ],
      "name": "Transfer",
      "type": "event"
    },
    {
      "anonymous": false,
      "inputs": [
        {
          "indexed": true,
          "internalType": "address",
          "name": "user",
          "type": "address"
        },
        {
          "indexed": false,
          "internalType": "uint256",
          "name": "amount",
          "type": "uint256"
        },
        {
          "indexed": false,
          "internalType": "uint256",
          "name": "reward",
          "type": "uint256"
        }
      ],
      "name": "Unstaked",
      "type": "event"
    },
    {
      "inputs": [
        {
          "internalType": "address",
          "name": "owner",
          "type": "address"
        },
        {
          "internalType": "address",
          "name": "spender",
          "type": "address"
        }
      ],
      "name": "allowance",
      "outputs": [
        {
          "internalType": "uint256",
          "name": "",
          "type": "uint256"
        }
      ],
      "stateMutability": "view",
      "type": "function"
    },
    {
      "inputs": [
        {
          "internalType": "address",
          "name": "spender",
          "type": "address"
        },
        {
          "internalType": "uint256",
          "name": "value",
          "type": "uint256"
        }
      ],
      "name": "approve",
      "outputs": [
        {
          "internalType": "bool",
          "name": "",
          "type": "bool"
        }
      ],
      "stateMutability": "nonpayable",
      "type": "function"
    },
    {
      "inputs": [
        {
          "internalType": "address",
          "name": "account",
          "type": "address"
        }
      ],
      "name": "balanceOf",
      "outputs": [
        {
          "internalType": "uint256",
          "name": "",
          "type": "uint256"
        }
      ],
      "stateMutability": "view",
      "type": "function"
    },
    {
      "inputs": [],
      "name": "claimReward",
      "outputs": [],
      "stateMutability": "nonpayable",
      "type": "function"
    },
    {
      "inputs": [],
      "name": "compoundReward",
      "outputs": [],
      "stateMutability": "nonpayable",
      "type": "function"
    },
    {
      "inputs": [],
      "name": "decimals",
      "outputs": [
        {
          "internalType": "uint8",
          "name": "",
          "type": "uint8"
        }
      ],
      "stateMutability": "view",
      "type": "function"
    },
    {
      "inputs": [],
      "name": "emergencyUnstake",
      "outputs": [],
      "stateMutability": "nonpayable",
      "type": "function"
    },
    {
      "inputs": [
        {
          "internalType": "address",
          "name": "",
          "type": "address"
        }
      ],
      "name": "lastStakedTime",
      "outputs": [
        {
          "internalType": "uint256",
          "name": "",
          "type": "uint256"
        }
      ],
      "stateMutability": "view",
      "type": "function"
    },
    {
      "inputs": [],
      "name": "meatContract",
      "outputs": [
        {
          "internalType": "address",
          "name": "",
          "type": "address"
        }
      ],
      "stateMutability": "view",
      "type": "function"
    },
    {
      "inputs": [],
      "name": "minClaimInterval",
      "outputs": [
        {
          "internalType": "uint256",
          "name": "",
          "type": "uint256"
        }
      ],
      "stateMutability": "view",
      "type": "function"
    },
    {
      "inputs": [
        {
          "internalType": "address",
          "name": "to",
          "type": "address"
        },
        {
          "internalType": "uint256",
          "name": "amount",
          "type": "uint256"
        }
      ],
      "name": "mint",
      "outputs": [],
      "stateMutability": "nonpayable",
      "type": "function"
    },
    {
      "inputs": [
        {
          "internalType": "address",
          "name": "to",
          "type": "address"
        },
        {
          "internalType": "uint256",
          "name": "amount",
          "type": "uint256"
        }
      ],
      "name": "mintTo",
      "outputs": [],
      "stateMutability": "nonpayable",
      "type": "function"
    },
    {
      "inputs": [],
      "name": "name",
      "outputs": [
        {
          "internalType": "string",
          "name": "",
          "type": "string"
        }
      ],
      "stateMutability": "view",
      "type": "function"
    },
    {
      "inputs": [
        {
          "internalType": "address",
          "name": "user",
          "type": "address"
        }
      ],
      "name": "nextClaimTime",
      "outputs": [
        {
          "internalType": "uint256",
          "name": "",
          "type": "uint256"
        }
      ],
      "stateMutability": "view",
      "type": "function"
    },
    {
      "inputs": [],
      "name": "nftContract",
      "outputs": [
        {
          "internalType": "address",
          "name": "",
          "type": "address"
        }
      ],
      "stateMutability": "view",
      "type": "function"
    },
    {
      "inputs": [],
      "name": "owner",
      "outputs": [
        {
          "internalType": "address",
          "name": "",
          "type": "address"
        }
      ],
      "stateMutability": "view",
      "type": "function"
    },
    {
      "inputs": [
        {
          "internalType": "address",
          "name": "user",
          "type": "address"
        }
      ],
      "name": "pendingReward",
      "outputs": [
        {
          "internalType": "uint256",
          "name": "",
          "type": "uint256"
        }
      ],
      "stateMutability": "view",
      "type": "function"
    },
    {
      "inputs": [],
      "name": "rewardInterval",
      "outputs": [
        {
          "internalType": "uint256",
          "name": "",
          "type": "uint256"
        }
      ],
      "stateMutability": "view",
      "type": "function"
    },
    {
      "inputs": [],
      "name": "rewardRate",
      "outputs": [
        {
          "internalType": "uint256",
          "name": "",
          "type": "uint256"
        }
      ],
      "stateMutability": "view",
      "type": "function"
    },
    {
      "inputs": [
        {
          "internalType": "address",
          "name": "meatAddress",
          "type": "address"
        }
      ],
      "name": "setMEATAddress",
      "outputs": [],
      "stateMutability": "nonpayable",
      "type": "function"
    },
    {
      "inputs": [
        {
          "internalType": "address",
          "name": "nftAddress",
          "type": "address"
        }
      ],
      "name": "setNFTAddress",
      "outputs": [],
      "stateMutability": "nonpayable",
      "type": "function"
    },
    {
      "inputs": [
        {
          "internalType": "uint256",
          "name": "newRate",
          "type": "uint256"
        },
        {
          "internalType": "uint256",
          "name": "newInterval",
          "type": "uint256"
        },
        {
          "internalType": "uint256",
          "name": "newMinClaimTime",
          "type": "uint256"
        }
      ],
      "name": "setRewardConfig",
      "outputs": [],
      "stateMutability": "nonpayable",
      "type": "function"
    },
    {
      "inputs": [
        {
          "internalType": "uint256",
          "name": "amount",
          "type": "uint256"
        }
      ],
      "name": "stake",
      "outputs": [],
      "stateMutability": "nonpayable",
      "type": "function"
    },
    {
      "inputs": [
        {
          "internalType": "address",
          "name": "",
          "type": "address"
        }
      ],
      "name": "stakingBalance",
      "outputs": [
        {
          "internalType": "uint256",
          "name": "",
          "type": "uint256"
        }
      ],
      "stateMutability": "view",
      "type": "function"
    },
    {
      "inputs": [],
      "name": "symbol",
      "outputs": [
        {
          "internalType": "string",
          "name": "",
          "type": "string"
        }
      ],
      "stateMutability": "view",
      "type": "function"
    },
    {
      "inputs": [],
      "name": "totalSupply",
      "outputs": [
        {
          "internalType": "uint256",
          "name": "",
          "type": "uint256"
        }
      ],
      "stateMutability": "view",
      "type": "function"
    },
    {
      "inputs": [
        {
          "internalType": "address",
          "name": "to",
          "type": "address"
        },
        {
          "internalType": "uint256",
          "name": "value",
          "type": "uint256"
        }
      ],
      "name": "transfer",
      "outputs": [
        {
          "internalType": "bool",
          "name": "",
          "type": "bool"
        }
      ],
      "stateMutability": "nonpayable",
      "type": "function"
    },
    {
      "inputs": [
        {
          "internalType": "address",
          "name": "from",
          "type": "address"
        },
        {
          "internalType": "address",
          "name": "to",
          "type": "address"
        },
        {
          "internalType": "uint256",
          "name": "value",
          "type": "uint256"
        }
      ],
      "name": "transferFrom",
      "outputs": [
        {
          "internalType": "bool",
          "name": "",
          "type": "bool"
        }
      ],
      "stateMutability": "nonpayable",
      "type": "function"
    },
    {
      "inputs": [],
      "name": "unstake",
      "outputs": [],
      "stateMutability": "nonpayable",
      "type": "function"
    }
  ],
  "bytecode": "0x60a0604052674563918244f400006007556301e1338060085562093a8060095534801561002b57600080fd5b50604051612e6d380380612e6d833981810160405281019061004d91906101b9565b6040518060400160405280601e81526020017f477561726469616e206f66204167726963756c747572616c20547261646500008152506040518060400160405280600481526020017f474f41540000000000000000000000000000000000000000000000000000000081525081600390816100c89190610436565b5080600490816100d89190610436565b5050503373ffffffffffffffffffffffffffffffffffffffff1660808173ffffffffffffffffffffffffffffffffffffffff168152505080600a60006101000a81548173ffffffffffffffffffffffffffffffffffffffff021916908373ffffffffffffffffffffffffffffffffffffffff16021790555050610508565b600080fd5b600073ffffffffffffffffffffffffffffffffffffffff82169050919050565b60006101868261015b565b9050919050565b6101968161017b565b81146101a157600080fd5b50565b6000815190506101b38161018d565b92915050565b6000602082840312156101cf576101ce610156565b5b60006101dd848285016101a4565b91505092915050565b600081519050919050565b7f4e487b7100000000000000000000000000000000000000000000000000000000600052604160045260246000fd5b7f4e487b7100000000000000000000000000000000000000000000000000000000600052602260045260246000fd5b6000600282049050600182168061026757607f821691505b60208210810361027a57610279610220565b5b50919050565b60008190508160005260206000209050919050565b60006020601f8301049050919050565b600082821b905092915050565b6000600883026102e27fffffffffffffffffffffffffffffffffffffffffffffffffffffffffffffffff826102a5565b6102ec86836102a5565b95508019841693508086168417925050509392505050565b6000819050919050565b6000819050919050565b600061033361032e61032984610304565b61030e565b610304565b9050919050565b6000819050919050565b61034d83610318565b6103616103598261033a565b8484546102b2565b825550505050565b600090565b610376610369565b610381818484610344565b505050565b5b818110156103a55761039a60008261036e565b600181019050610387565b5050565b601f8211156103ea576103bb81610280565b6103c484610295565b810160208510156103d3578190505b6103e76103df85610295565b830182610386565b50505b505050565b600082821c905092915050565b600061040d600019846008026103ef565b1980831691505092915050565b600061042683836103fc565b9150826002028217905092915050565b61043f826101e6565b67ffffffffffffffff811115610458576104576101f1565b5b610462825461024f565b61046d8282856103a9565b600060209050601f8311600181146104a0576000841561048e578287015190505b610498858261041a565b865550610500565b601f1984166104ae86610280565b60005b828110156104d6578489015182556001820191506020850194506020810190506104b1565b868310156104f357848901516104ef601f8916826103fc565b8355505b6001600288020188555050505b505050505050565b608051612935610538600039600081816108e801528181610bff01528181610d57015261138701526129356000f3fe608060405234801561001057600080fd5b50600436106101cf5760003560e01c80636d971a1011610104578063a694fc3a116100a2578063c57a202c11610071578063c57a202c146104d2578063d56d229d14610502578063dd62ed3e14610520578063f40f0f5214610550576101cf565b8063a694fc3a1461045e578063a9059cbb1461047a578063b88a802f146104aa578063bec4de3f146104b4576101cf565b80637589cf2f116100de5780637589cf2f146103fa5780637b0a47ee146104045780638da5cb5b1461042257806395d89b4114610440576101cf565b80636d971a101461039057806370a082311461039a57806370f23da7146103ca576101cf565b80633ab432891161017157806345bc78ab1161014b57806345bc78ab1461030a5780634e4d735e1461033a578063689b64171461035657806369d0373814610374576101cf565b80633ab43289146102b657806340c10f19146102d2578063449a52f8146102ee576101cf565b80631afcd0e6116101ad5780631afcd0e61461024057806323b872dd1461025e5780632def66201461028e578063313ce56714610298576101cf565b806306fdde03146101d4578063095ea7b3146101f257806318160ddd14610222575b600080fd5b6101dc610580565b6040516101e99190611fdd565b60405180910390f35b61020c60048036038101906102079190612098565b610612565b60405161021991906120f3565b60405180910390f35b61022a610635565b604051610237919061211d565b60405180910390f35b61024861063f565b604051610255919061211d565b60405180910390f35b61027860048036038101906102739190612138565b610645565b60405161028591906120f3565b60405180910390f35b610296610674565b005b6102a06108dd565b6040516102ad91906121a7565b60405180910390f35b6102d060048036038101906102cb91906121c2565b6108e6565b005b6102ec60048036038101906102e79190612098565b610aa9565b005b61030860048036038101906103039190612098565b610b47565b005b610324600480360381019061031f91906121c2565b610be5565b604051610331919061211d565b60405180910390f35b610354600480360381019061034f91906121ef565b610bfd565b005b61035e610d2f565b60405161036b9190612251565b60405180910390f35b61038e600480360381019061038991906121c2565b610d55565b005b610398610f18565b005b6103b460048036038101906103af91906121c2565b611115565b6040516103c1919061211d565b60405180910390f35b6103e460048036038101906103df91906121c2565b61115d565b6040516103f1919061211d565b60405180910390f35b6104026111cb565b005b61040c61137d565b604051610419919061211d565b60405180910390f35b61042a611383565b6040516104379190612251565b60405180910390f35b6104486113ab565b6040516104559190611fdd565b60405180910390f35b6104786004803603810190610473919061226c565b61143d565b005b610494600480360381019061048f9190612098565b611576565b6040516104a191906120f3565b60405180910390f35b6104b2611599565b005b6104bc611764565b6040516104c9919061211d565b60405180910390f35b6104ec60048036038101906104e791906121c2565b61176a565b6040516104f9919061211d565b60405180910390f35b61050a611782565b6040516105179190612251565b60405180910390f35b61053a60048036038101906105359190612299565b6117a8565b604051610547919061211d565b60405180910390f35b61056a600480360381019061056591906121c2565b61182f565b604051610577919061211d565b60405180910390f35b60606003805461058f90612308565b80601f01602080910402602001604051908101604052809291908181526020018280546105bb90612308565b80156106085780601f106105dd57610100808354040283529160200191610608565b820191906000526020600020905b8154815290600101906020018083116105eb57829003601f168201915b5050505050905090565b60008061061d611881565b905061062a818585611889565b600191505092915050565b6000600254905090565b60095481565b600080610650611881565b905061065d85828561189b565b610668858585611930565b60019150509392505050565b6000600560003373ffffffffffffffffffffffffffffffffffffffff1673ffffffffffffffffffffffffffffffffffffffff168152602001908152602001600020549050600081116106fb576040517f08c379a00000000000000000000000000000000000000000000000000000000081526004016106f290612385565b60405180910390fd5b6000600660003373ffffffffffffffffffffffffffffffffffffffff1673ffffffffffffffffffffffffffffffffffffffff168152602001908152602001600020549050600954814261074e91906123d4565b101561078f576040517f08c379a000000000000000000000000000000000000000000000000000000000815260040161078690612454565b60405180910390fd5b600061079b3383611a24565b9050600081846107ab9190612474565b90506000600560003373ffffffffffffffffffffffffffffffffffffffff1673ffffffffffffffffffffffffffffffffffffffff168152602001908152602001600020819055506000600660003373ffffffffffffffffffffffffffffffffffffffff1673ffffffffffffffffffffffffffffffffffffffff16815260200190815260200160002081905550600061084230611115565b905081811061085b57610856303384611930565b610886565b60008111156108705761086f303383611930565b5b61088533828461088091906123d4565b611acf565b5b3373ffffffffffffffffffffffffffffffffffffffff167f7fc4727e062e336010f2c282598ef5f14facb3de68cf8195c2f23e1454b2b74e86856040516108ce9291906124a8565b60405180910390a25050505050565b60006012905090565b7f000000000000000000000000000000000000000000000000000000000000000073ffffffffffffffffffffffffffffffffffffffff163373ffffffffffffffffffffffffffffffffffffffff1614610974576040517f08c379a000000000000000000000000000000000000000000000000000000000815260040161096b9061251d565b60405180910390fd5b600073ffffffffffffffffffffffffffffffffffffffff168173ffffffffffffffffffffffffffffffffffffffff16036109e3576040517f08c379a00000000000000000000000000000000000000000000000000000000081526004016109da90612589565b60405180910390fd5b6000600a60009054906101000a900473ffffffffffffffffffffffffffffffffffffffff16905081600a60006101000a81548173ffffffffffffffffffffffffffffffffffffffff021916908373ffffffffffffffffffffffffffffffffffffffff1602179055508173ffffffffffffffffffffffffffffffffffffffff168173ffffffffffffffffffffffffffffffffffffffff167fd81c1149683089dec8dd03ff33fd8b5213095d59fcee5d7c640dcd7ec4c7b11660405160405180910390a35050565b600b60009054906101000a900473ffffffffffffffffffffffffffffffffffffffff1673ffffffffffffffffffffffffffffffffffffffff163373ffffffffffffffffffffffffffffffffffffffff1614610b39576040517f08c379a0000000000000000000000000000000000000000000000000000000008152600401610b30906125f5565b60405180910390fd5b610b438282611acf565b5050565b600a60009054906101000a900473ffffffffffffffffffffffffffffffffffffffff1673ffffffffffffffffffffffffffffffffffffffff163373ffffffffffffffffffffffffffffffffffffffff1614610bd7576040517f08c379a0000000000000000000000000000000000000000000000000000000008152600401610bce906125f5565b60405180910390fd5b610be18282611acf565b5050565b60056020528060005260406000206000915090505481565b7f000000000000000000000000000000000000000000000000000000000000000073ffffffffffffffffffffffffffffffffffffffff163373ffffffffffffffffffffffffffffffffffffffff1614610c8b576040517f08c379a0000000000000000000000000000000000000000000000000000000008152600401610c829061251d565b60405180910390fd5b60008211610cce576040517f08c379a0000000000000000000000000000000000000000000000000000000008152600401610cc590612661565b60405180910390fd5b7f55764ed25d8d6fea4fcffc2914ad2587a52f9fc766559d1bc91b2d7cf6bf7742600754846008548560095486604051610d0d96959493929190612681565b60405180910390a1826007819055508160088190555080600981905550505050565b600a60009054906101000a900473ffffffffffffffffffffffffffffffffffffffff1681565b7f000000000000000000000000000000000000000000000000000000000000000073ffffffffffffffffffffffffffffffffffffffff163373ffffffffffffffffffffffffffffffffffffffff1614610de3576040517f08c379a0000000000000000000000000000000000000000000000000000000008152600401610dda9061251d565b60405180910390fd5b600073ffffffffffffffffffffffffffffffffffffffff168173ffffffffffffffffffffffffffffffffffffffff1603610e52576040517f08c379a0000000000000000000000000000000000000000000000000000000008152600401610e4990612589565b60405180910390fd5b6000600b60009054906101000a900473ffffffffffffffffffffffffffffffffffffffff16905081600b60006101000a81548173ffffffffffffffffffffffffffffffffffffffff021916908373ffffffffffffffffffffffffffffffffffffffff1602179055508173ffffffffffffffffffffffffffffffffffffffff168173ffffffffffffffffffffffffffffffffffffffff167f51d2761f030964e882529b208c5390589ddac658d9a1a6d3b8a1cbaed35e7d3360405160405180910390a35050565b6000600660003373ffffffffffffffffffffffffffffffffffffffff1673ffffffffffffffffffffffffffffffffffffffff1681526020019081526020016000205490506009548142610f6b91906123d4565b1015610fac576040517f08c379a0000000000000000000000000000000000000000000000000000000008152600401610fa390612454565b60405180910390fd5b6000610fb83383611a24565b905060008111610ffd576040517f08c379a0000000000000000000000000000000000000000000000000000000008152600401610ff49061272e565b60405180910390fd5b600061100830611115565b9050818110156110285761102730828461102291906123d4565b611acf565b5b81600560003373ffffffffffffffffffffffffffffffffffffffff1673ffffffffffffffffffffffffffffffffffffffff16815260200190815260200160002060008282546110779190612474565b9250508190555042600660003373ffffffffffffffffffffffffffffffffffffffff1673ffffffffffffffffffffffffffffffffffffffff168152602001908152602001600020819055503373ffffffffffffffffffffffffffffffffffffffff167fc16de066392da7e40ceccb739c331fc48a2e76bf147449613c48023d960eec3283604051611108919061211d565b60405180910390a2505050565b60008060008373ffffffffffffffffffffffffffffffffffffffff1673ffffffffffffffffffffffffffffffffffffffff168152602001908152602001600020549050919050565b600080600660008473ffffffffffffffffffffffffffffffffffffffff1673ffffffffffffffffffffffffffffffffffffffff168152602001908152602001600020549050600081036111b45760009150506111c6565b600954816111c29190612474565b9150505b919050565b6000600560003373ffffffffffffffffffffffffffffffffffffffff1673ffffffffffffffffffffffffffffffffffffffff16815260200190815260200160002054905060008111611252576040517f08c379a000000000000000000000000000000000000000000000000000000000815260040161124990612385565b60405180910390fd5b6000600560003373ffffffffffffffffffffffffffffffffffffffff1673ffffffffffffffffffffffffffffffffffffffff168152602001908152602001600020819055506000600660003373ffffffffffffffffffffffffffffffffffffffff1673ffffffffffffffffffffffffffffffffffffffff1681526020019081526020016000208190555060006112e730611115565b9050818110611300576112fb303384611930565b61132b565b600081111561131557611314303383611930565b5b61132a33828461132591906123d4565b611acf565b5b3373ffffffffffffffffffffffffffffffffffffffff167fb7eb776ef583a719429ef1d1fa5f886dd63c2df82bd8da540ac25bdc81c4a13483604051611371919061211d565b60405180910390a25050565b60075481565b60007f0000000000000000000000000000000000000000000000000000000000000000905090565b6060600480546113ba90612308565b80601f01602080910402602001604051908101604052809291908181526020018280546113e690612308565b80156114335780601f1061140857610100808354040283529160200191611433565b820191906000526020600020905b81548152906001019060200180831161141657829003601f168201915b5050505050905090565b60008111611480576040517f08c379a00000000000000000000000000000000000000000000000000000000081526004016114779061279a565b60405180910390fd5b61148b333083611930565b80600560003373ffffffffffffffffffffffffffffffffffffffff1673ffffffffffffffffffffffffffffffffffffffff16815260200190815260200160002060008282546114da9190612474565b9250508190555042600660003373ffffffffffffffffffffffffffffffffffffffff1673ffffffffffffffffffffffffffffffffffffffff168152602001908152602001600020819055503373ffffffffffffffffffffffffffffffffffffffff167f9e71bc8eea02a63969f509818f2dafb9254532904319f9dbda79b67bd34a5f3d8260405161156b919061211d565b60405180910390a250565b600080611581611881565b905061158e818585611930565b600191505092915050565b6000600660003373ffffffffffffffffffffffffffffffffffffffff1673ffffffffffffffffffffffffffffffffffffffff16815260200190815260200160002054905060095481426115ec91906123d4565b101561162d576040517f08c379a000000000000000000000000000000000000000000000000000000000815260040161162490612454565b60405180910390fd5b60006116393383611a24565b90506000811161167e576040517f08c379a000000000000000000000000000000000000000000000000000000000815260040161167590612806565b60405180910390fd5b600061168930611115565b90508181106116a25761169d303384611930565b6116cd565b60008111156116b7576116b6303383611930565b5b6116cc3382846116c791906123d4565b611acf565b5b42600660003373ffffffffffffffffffffffffffffffffffffffff1673ffffffffffffffffffffffffffffffffffffffff168152602001908152602001600020819055503373ffffffffffffffffffffffffffffffffffffffff167f106f923f993c2149d49b4255ff723acafa1f2d94393f561d3eda32ae348f724183604051611757919061211d565b60405180910390a2505050565b60085481565b60066020528060005260406000206000915090505481565b600b60009054906101000a900473ffffffffffffffffffffffffffffffffffffffff1681565b6000600160008473ffffffffffffffffffffffffffffffffffffffff1673ffffffffffffffffffffffffffffffffffffffff16815260200190815260200160002060008373ffffffffffffffffffffffffffffffffffffffff1673ffffffffffffffffffffffffffffffffffffffff16815260200190815260200160002054905092915050565b600061187a82600660008573ffffffffffffffffffffffffffffffffffffffff1673ffffffffffffffffffffffffffffffffffffffff16815260200190815260200160002054611a24565b9050919050565b600033905090565b6118968383836001611b51565b505050565b60006118a784846117a8565b90507fffffffffffffffffffffffffffffffffffffffffffffffffffffffffffffffff81101561192a578181101561191a578281836040517ffb8f41b200000000000000000000000000000000000000000000000000000000815260040161191193929190612826565b60405180910390fd5b61192984848484036000611b51565b5b50505050565b600073ffffffffffffffffffffffffffffffffffffffff168373ffffffffffffffffffffffffffffffffffffffff16036119a25760006040517f96c6fd1e0000000000000000000000000000000000000000000000000000000081526004016119999190612251565b60405180910390fd5b600073ffffffffffffffffffffffffffffffffffffffff168273ffffffffffffffffffffffffffffffffffffffff1603611a145760006040517fec442f05000000000000000000000000000000000000000000000000000000008152600401611a0b9190612251565b60405180910390fd5b611a1f838383611d28565b505050565b600080600560008573ffffffffffffffffffffffffffffffffffffffff1673ffffffffffffffffffffffffffffffffffffffff16815260200190815260200160002054905060008103611a7b576000915050611ac9565b60008342611a8991906123d4565b9050670de0b6b3a7640000600854611aa1919061285d565b6007548284611ab0919061285d565b611aba919061285d565b611ac491906128ce565b925050505b92915050565b600073ffffffffffffffffffffffffffffffffffffffff168273ffffffffffffffffffffffffffffffffffffffff1603611b415760006040517fec442f05000000000000000000000000000000000000000000000000000000008152600401611b389190612251565b60405180910390fd5b611b4d60008383611d28565b5050565b600073ffffffffffffffffffffffffffffffffffffffff168473ffffffffffffffffffffffffffffffffffffffff1603611bc35760006040517fe602df05000000000000000000000000000000000000000000000000000000008152600401611bba9190612251565b60405180910390fd5b600073ffffffffffffffffffffffffffffffffffffffff168373ffffffffffffffffffffffffffffffffffffffff1603611c355760006040517f94280d62000000000000000000000000000000000000000000000000000000008152600401611c2c9190612251565b60405180910390fd5b81600160008673ffffffffffffffffffffffffffffffffffffffff1673ffffffffffffffffffffffffffffffffffffffff16815260200190815260200160002060008573ffffffffffffffffffffffffffffffffffffffff1673ffffffffffffffffffffffffffffffffffffffff168152602001908152602001600020819055508015611d22578273ffffffffffffffffffffffffffffffffffffffff168473ffffffffffffffffffffffffffffffffffffffff167f8c5be1e5ebec7d5bd14f71427d1e84f3dd0314c0f7b2291e5b200ac8c7c3b92584604051611d19919061211d565b60405180910390a35b50505050565b600073ffffffffffffffffffffffffffffffffffffffff168373ffffffffffffffffffffffffffffffffffffffff1603611d7a578060026000828254611d6e9190612474565b92505081905550611e4d565b60008060008573ffffffffffffffffffffffffffffffffffffffff1673ffffffffffffffffffffffffffffffffffffffff16815260200190815260200160002054905081811015611e06578381836040517fe450d38c000000000000000000000000000000000000000000000000000000008152600401611dfd93929190612826565b60405180910390fd5b8181036000808673ffffffffffffffffffffffffffffffffffffffff1673ffffffffffffffffffffffffffffffffffffffff16815260200190815260200160002081905550505b600073ffffffffffffffffffffffffffffffffffffffff168273ffffffffffffffffffffffffffffffffffffffff1603611e965780600260008282540392505081905550611ee3565b806000808473ffffffffffffffffffffffffffffffffffffffff1673ffffffffffffffffffffffffffffffffffffffff168152602001908152602001600020600082825401925050819055505b8173ffffffffffffffffffffffffffffffffffffffff168373ffffffffffffffffffffffffffffffffffffffff167fddf252ad1be2c89b69c2b068fc378daa952ba7f163c4a11628f55a4df523b3ef83604051611f40919061211d565b60405180910390a3505050565b600081519050919050565b600082825260208201905092915050565b60005b83811015611f87578082015181840152602081019050611f6c565b60008484015250505050565b6000601f19601f8301169050919050565b6000611faf82611f4d565b611fb98185611f58565b9350611fc9818560208601611f69565b611fd281611f93565b840191505092915050565b60006020820190508181036000830152611ff78184611fa4565b905092915050565b600080fd5b600073ffffffffffffffffffffffffffffffffffffffff82169050919050565b600061202f82612004565b9050919050565b61203f81612024565b811461204a57600080fd5b50565b60008135905061205c81612036565b92915050565b6000819050919050565b61207581612062565b811461208057600080fd5b50565b6000813590506120928161206c565b92915050565b600080604083850312156120af576120ae611fff565b5b60006120bd8582860161204d565b92505060206120ce85828601612083565b9150509250929050565b60008115159050919050565b6120ed816120d8565b82525050565b600060208201905061210860008301846120e4565b92915050565b61211781612062565b82525050565b6000602082019050612132600083018461210e565b92915050565b60008060006060848603121561215157612150611fff565b5b600061215f8682870161204d565b93505060206121708682870161204d565b925050604061218186828701612083565b9150509250925092565b600060ff82169050919050565b6121a18161218b565b82525050565b60006020820190506121bc6000830184612198565b92915050565b6000602082840312156121d8576121d7611fff565b5b60006121e68482850161204d565b91505092915050565b60008060006060848603121561220857612207611fff565b5b600061221686828701612083565b935050602061222786828701612083565b925050604061223886828701612083565b9150509250925092565b61224b81612024565b82525050565b60006020820190506122666000830184612242565b92915050565b60006020828403121561228257612281611fff565b5b600061229084828501612083565b91505092915050565b600080604083850312156122b0576122af611fff565b5b60006122be8582860161204d565b92505060206122cf8582860161204d565b9150509250929050565b7f4e487b7100000000000000000000000000000000000000000000000000000000600052602260045260246000fd5b6000600282049050600182168061232057607f821691505b602082108103612333576123326122d9565b5b50919050565b7f4e6f7468696e6720746f20756e7374616b650000000000000000000000000000600082015250565b600061236f601283611f58565b915061237a82612339565b602082019050919050565b6000602082019050818103600083015261239e81612362565b9050919050565b7f4e487b7100000000000000000000000000000000000000000000000000000000600052601160045260246000fd5b60006123df82612062565b91506123ea83612062565b9250828203905081811115612402576124016123a5565b5b92915050565b7f436c61696d206e6f7420616c6c6f776564207965740000000000000000000000600082015250565b600061243e601583611f58565b915061244982612408565b602082019050919050565b6000602082019050818103600083015261246d81612431565b9050919050565b600061247f82612062565b915061248a83612062565b92508282019050808211156124a2576124a16123a5565b5b92915050565b60006040820190506124bd600083018561210e565b6124ca602083018461210e565b9392505050565b7f4e6f7420746865206f776e657200000000000000000000000000000000000000600082015250565b6000612507600d83611f58565b9150612512826124d1565b602082019050919050565b60006020820190508181036000830152612536816124fa565b9050919050565b7f496e76616c696420616464726573730000000000000000000000000000000000600082015250565b6000612573600f83611f58565b915061257e8261253d565b602082019050919050565b600060208201905081810360008301526125a281612566565b9050919050565b7f556e617574686f72697a6564206d696e74000000000000000000000000000000600082015250565b60006125df601183611f58565b91506125ea826125a9565b602082019050919050565b6000602082019050818103600083015261260e816125d2565b9050919050565b7f496e74657276616c206d757374206265203e2030000000000000000000000000600082015250565b600061264b601483611f58565b915061265682612615565b602082019050919050565b6000602082019050818103600083015261267a8161263e565b9050919050565b600060c082019050612696600083018961210e565b6126a3602083018861210e565b6126b0604083018761210e565b6126bd606083018661210e565b6126ca608083018561210e565b6126d760a083018461210e565b979650505050505050565b7f4e6f2072657761726420746f20636f6d706f756e640000000000000000000000600082015250565b6000612718601583611f58565b9150612723826126e2565b602082019050919050565b600060208201905081810360008301526127478161270b565b9050919050565b7f416d6f756e74206d757374206265203e20300000000000000000000000000000600082015250565b6000612784601283611f58565b915061278f8261274e565b602082019050919050565b600060208201905081810360008301526127b381612777565b9050919050565b7f4e6f2072657761726420746f20636c61696d0000000000000000000000000000600082015250565b60006127f0601283611f58565b91506127fb826127ba565b602082019050919050565b6000602082019050818103600083015261281f816127e3565b9050919050565b600060608201905061283b6000830186612242565b612848602083018561210e565b612855604083018461210e565b949350505050565b600061286882612062565b915061287383612062565b925082820261288181612062565b91508282048414831517612898576128976123a5565b5b5092915050565b7f4e487b7100000000000000000000000000000000000000000000000000000000600052601260045260246000fd5b60006128d982612062565b91506128e483612062565b9250826128f4576128f361289f565b5b82820490509291505056fea2646970667358221220f5d3817f6338e2da0ab8f5bd639875b4fe87f2b6d7a4de5653a8666282df0e6564736f6c634300081d0033",
  "linkReferences": {},
  "deployedLinkReferences": {}
}