{
  "_format": "hh-sol-artifact-1",
  "contractName": "GOAT",
  "sourceName": "contracts/GOAT.sol",
  "abi": [
    {
      "inputs": [
        {
          "internalType": "address",
          "name": "meatAddress",
          "type": "address"
        }
      ],
      "stateMutability": "nonpayable",
      "type": "constructor"
    },
    {
      "inputs": [
        {
          "internalType": "address",
          "name": "spender",
          "type": "address"
        },
        {
          "internalType": "uint256",
          "name": "allowance",
          "type": "uint256"
        },
        {
          "internalType": "uint256",
          "name": "needed",
          "type": "uint256"
        }
      ],
      "name": "ERC20InsufficientAllowance",
      "type": "error"
    },
    {
      "inputs": [
        {
          "internalType": "address",
          "name": "sender",
          "type": "address"
        },
        {
          "internalType": "uint256",
          "name": "balance",
          "type": "uint256"
        },
        {
          "internalType": "uint256",
          "name": "needed",
          "type": "uint256"
        }
      ],
      "name": "ERC20InsufficientBalance",
      "type": "error"
    },
    {
      "inputs": [
        {
          "internalType": "address",
          "name": "approver",
          "type": "address"
        }
      ],
      "name": "ERC20InvalidApprover",
      "type": "error"
    },
    {
      "inputs": [
        {
          "internalType": "address",
          "name": "receiver",
          "type": "address"
        }
      ],
      "name": "ERC20InvalidReceiver",
      "type": "error"
    },
    {
      "inputs": [
        {
          "internalType": "address",
          "name": "sender",
          "type": "address"
        }
      ],
      "name": "ERC20InvalidSender",
      "type": "error"
    },
    {
      "inputs": [
        {
          "internalType": "address",
          "name": "spender",
          "type": "address"
        }
      ],
      "name": "ERC20InvalidSpender",
      "type": "error"
    },
    {
      "anonymous": false,
      "inputs": [
        {
          "indexed": true,
          "internalType": "address",
          "name": "owner",
          "type": "address"
        },
        {
          "indexed": true,
          "internalType": "address",
          "name": "spender",
          "type": "address"
        },
        {
          "indexed": false,
          "internalType": "uint256",
          "name": "value",
          "type": "uint256"
        }
      ],
      "name": "Approval",
      "type": "event"
    },
    {
      "anonymous": false,
      "inputs": [
        {
          "indexed": true,
          "internalType": "address",
          "name": "user",
          "type": "address"
        },
        {
          "indexed": false,
          "internalType": "uint256",
          "name": "reward",
          "type": "uint256"
        }
      ],
      "name": "Compounded",
      "type": "event"
    },
    {
      "anonymous": false,
      "inputs": [
        {
          "indexed": true,
          "internalType": "address",
          "name": "oldAddress",
          "type": "address"
        },
        {
          "indexed": true,
          "internalType": "address",
          "name": "newAddress",
          "type": "address"
        }
      ],
      "name": "MeatAddressUpdated",
      "type": "event"
    },
    {
      "anonymous": false,
      "inputs": [
        {
          "indexed": true,
          "internalType": "address",
          "name": "oldAddress",
          "type": "address"
        },
        {
          "indexed": true,
          "internalType": "address",
          "name": "newAddress",
          "type": "address"
        }
      ],
      "name": "NftAddressUpdated",
      "type": "event"
    },
    {
      "anonymous": false,
      "inputs": [
        {
          "indexed": true,
          "internalType": "address",
          "name": "user",
          "type": "address"
        },
        {
          "indexed": false,
          "internalType": "uint256",
          "name": "reward",
          "type": "uint256"
        }
      ],
      "name": "RewardClaimed",
      "type": "event"
    },
    {
      "anonymous": false,
      "inputs": [
        {
          "indexed": false,
          "internalType": "uint256",
          "name": "oldRate",
          "type": "uint256"
        },
        {
          "indexed": false,
          "internalType": "uint256",
          "name": "newRate",
          "type": "uint256"
        },
        {
          "indexed": false,
          "internalType": "uint256",
          "name": "oldInterval",
          "type": "uint256"
        },
        {
          "indexed": false,
          "internalType": "uint256",
          "name": "newInterval",
          "type": "uint256"
        },
        {
          "indexed": false,
          "internalType": "uint256",
          "name": "oldMinClaimTime",
          "type": "uint256"
        },
        {
          "indexed": false,
          "internalType": "uint256",
          "name": "newMinClaimTime",
          "type": "uint256"
        }
      ],
      "name": "RewardConfigChanged",
      "type": "event"
    },
    {
      "anonymous": false,
      "inputs": [
        {
          "indexed": true,
          "internalType": "address",
          "name": "user",
          "type": "address"
        },
        {
          "indexed": false,
          "internalType": "uint256",
          "name": "amount",
          "type": "uint256"
        }
      ],
      "name": "Staked",
      "type": "event"
    },
    {
      "anonymous": false,
      "inputs": [
        {
          "indexed": true,
          "internalType": "address",
          "name": "from",
          "type": "address"
        },
        {
          "indexed": true,
          "internalType": "address",
          "name": "to",
          "type": "address"
        },
        {
          "indexed": false,
          "internalType": "uint256",
          "name": "value",
          "type": "uint256"
        }
      ],
      "name": "Transfer",
      "type": "event"
    },
    {
      "anonymous": false,
      "inputs": [
        {
          "indexed": true,
          "internalType": "address",
          "name": "user",
          "type": "address"
        },
        {
          "indexed": false,
          "internalType": "uint256",
          "name": "amount",
          "type": "uint256"
        },
        {
          "indexed": false,
          "internalType": "uint256",
          "name": "reward",
          "type": "uint256"
        }
      ],
      "name": "Unstaked",
      "type": "event"
    },
    {
      "inputs": [
        {
          "internalType": "address",
          "name": "owner",
          "type": "address"
        },
        {
          "internalType": "address",
          "name": "spender",
          "type": "address"
        }
      ],
      "name": "allowance",
      "outputs": [
        {
          "internalType": "uint256",
          "name": "",
          "type": "uint256"
        }
      ],
      "stateMutability": "view",
      "type": "function"
    },
    {
      "inputs": [
        {
          "internalType": "address",
          "name": "spender",
          "type": "address"
        },
        {
          "internalType": "uint256",
          "name": "value",
          "type": "uint256"
        }
      ],
      "name": "approve",
      "outputs": [
        {
          "internalType": "bool",
          "name": "",
          "type": "bool"
        }
      ],
      "stateMutability": "nonpayable",
      "type": "function"
    },
    {
      "inputs": [
        {
          "internalType": "address",
          "name": "account",
          "type": "address"
        }
      ],
      "name": "balanceOf",
      "outputs": [
        {
          "internalType": "uint256",
          "name": "",
          "type": "uint256"
        }
      ],
      "stateMutability": "view",
      "type": "function"
    },
    {
      "inputs": [
        {
          "internalType": "uint256",
          "name": "tokenId",
          "type": "uint256"
        }
      ],
      "name": "burnAndMint",
      "outputs": [],
      "stateMutability": "nonpayable",
      "type": "function"
    },
    {
      "inputs": [],
      "name": "claimReward",
      "outputs": [],
      "stateMutability": "nonpayable",
      "type": "function"
    },
    {
      "inputs": [],
      "name": "compoundReward",
      "outputs": [],
      "stateMutability": "nonpayable",
      "type": "function"
    },
    {
      "inputs": [],
      "name": "decimals",
      "outputs": [
        {
          "internalType": "uint8",
          "name": "",
          "type": "uint8"
        }
      ],
      "stateMutability": "view",
      "type": "function"
    },
    {
      "inputs": [],
      "name": "emergencyUnstake",
      "outputs": [],
      "stateMutability": "nonpayable",
      "type": "function"
    },
    {
      "inputs": [
        {
          "internalType": "address",
          "name": "",
          "type": "address"
        }
      ],
      "name": "lastStakedTime",
      "outputs": [
        {
          "internalType": "uint256",
          "name": "",
          "type": "uint256"
        }
      ],
      "stateMutability": "view",
      "type": "function"
    },
    {
      "inputs": [],
      "name": "meatContract",
      "outputs": [
        {
          "internalType": "address",
          "name": "",
          "type": "address"
        }
      ],
      "stateMutability": "view",
      "type": "function"
    },
    {
      "inputs": [],
      "name": "minClaimInterval",
      "outputs": [
        {
          "internalType": "uint256",
          "name": "",
          "type": "uint256"
        }
      ],
      "stateMutability": "view",
      "type": "function"
    },
    {
      "inputs": [
        {
          "internalType": "address",
          "name": "to",
          "type": "address"
        },
        {
          "internalType": "uint256",
          "name": "amount",
          "type": "uint256"
        }
      ],
      "name": "mintTo",
      "outputs": [],
      "stateMutability": "nonpayable",
      "type": "function"
    },
    {
      "inputs": [],
      "name": "name",
      "outputs": [
        {
          "internalType": "string",
          "name": "",
          "type": "string"
        }
      ],
      "stateMutability": "view",
      "type": "function"
    },
    {
      "inputs": [
        {
          "internalType": "address",
          "name": "user",
          "type": "address"
        }
      ],
      "name": "nextClaimTime",
      "outputs": [
        {
          "internalType": "uint256",
          "name": "",
          "type": "uint256"
        }
      ],
      "stateMutability": "view",
      "type": "function"
    },
    {
      "inputs": [],
      "name": "nftContract",
      "outputs": [
        {
          "internalType": "address",
          "name": "",
          "type": "address"
        }
      ],
      "stateMutability": "view",
      "type": "function"
    },
    {
      "inputs": [],
      "name": "owner",
      "outputs": [
        {
          "internalType": "address",
          "name": "",
          "type": "address"
        }
      ],
      "stateMutability": "view",
      "type": "function"
    },
    {
      "inputs": [
        {
          "internalType": "address",
          "name": "user",
          "type": "address"
        }
      ],
      "name": "pendingReward",
      "outputs": [
        {
          "internalType": "uint256",
          "name": "",
          "type": "uint256"
        }
      ],
      "stateMutability": "view",
      "type": "function"
    },
    {
      "inputs": [],
      "name": "rewardInterval",
      "outputs": [
        {
          "internalType": "uint256",
          "name": "",
          "type": "uint256"
        }
      ],
      "stateMutability": "view",
      "type": "function"
    },
    {
      "inputs": [],
      "name": "rewardRate",
      "outputs": [
        {
          "internalType": "uint256",
          "name": "",
          "type": "uint256"
        }
      ],
      "stateMutability": "view",
      "type": "function"
    },
    {
      "inputs": [
        {
          "internalType": "address",
          "name": "meatAddress",
          "type": "address"
        }
      ],
      "name": "setMEATAddress",
      "outputs": [],
      "stateMutability": "nonpayable",
      "type": "function"
    },
    {
      "inputs": [
        {
          "internalType": "address",
          "name": "nftAddress",
          "type": "address"
        }
      ],
      "name": "setNFTAddress",
      "outputs": [],
      "stateMutability": "nonpayable",
      "type": "function"
    },
    {
      "inputs": [
        {
          "internalType": "uint256",
          "name": "newRate",
          "type": "uint256"
        },
        {
          "internalType": "uint256",
          "name": "newInterval",
          "type": "uint256"
        },
        {
          "internalType": "uint256",
          "name": "newMinClaimTime",
          "type": "uint256"
        }
      ],
      "name": "setRewardConfig",
      "outputs": [],
      "stateMutability": "nonpayable",
      "type": "function"
    },
    {
      "inputs": [
        {
          "internalType": "uint256",
          "name": "amount",
          "type": "uint256"
        }
      ],
      "name": "stake",
      "outputs": [],
      "stateMutability": "nonpayable",
      "type": "function"
    },
    {
      "inputs": [
        {
          "internalType": "address",
          "name": "",
          "type": "address"
        }
      ],
      "name": "stakingBalance",
      "outputs": [
        {
          "internalType": "uint256",
          "name": "",
          "type": "uint256"
        }
      ],
      "stateMutability": "view",
      "type": "function"
    },
    {
      "inputs": [],
      "name": "symbol",
      "outputs": [
        {
          "internalType": "string",
          "name": "",
          "type": "string"
        }
      ],
      "stateMutability": "view",
      "type": "function"
    },
    {
      "inputs": [],
      "name": "totalSupply",
      "outputs": [
        {
          "internalType": "uint256",
          "name": "",
          "type": "uint256"
        }
      ],
      "stateMutability": "view",
      "type": "function"
    },
    {
      "inputs": [
        {
          "internalType": "address",
          "name": "to",
          "type": "address"
        },
        {
          "internalType": "uint256",
          "name": "value",
          "type": "uint256"
        }
      ],
      "name": "transfer",
      "outputs": [
        {
          "internalType": "bool",
          "name": "",
          "type": "bool"
        }
      ],
      "stateMutability": "nonpayable",
      "type": "function"
    },
    {
      "inputs": [
        {
          "internalType": "address",
          "name": "from",
          "type": "address"
        },
        {
          "internalType": "address",
          "name": "to",
          "type": "address"
        },
        {
          "internalType": "uint256",
          "name": "value",
          "type": "uint256"
        }
      ],
      "name": "transferFrom",
      "outputs": [
        {
          "internalType": "bool",
          "name": "",
          "type": "bool"
        }
      ],
      "stateMutability": "nonpayable",
      "type": "function"
    },
    {
      "inputs": [],
      "name": "unstake",
      "outputs": [],
      "stateMutability": "nonpayable",
      "type": "function"
    }
  ],
  "bytecode": "0x60a0604052674563918244f400006007556301e1338060085562093a8060095534801561002b57600080fd5b506040516131ee3803806131ee833981810160405281019061004d91906101b9565b6040518060400160405280601e81526020017f477561726469616e206f66204167726963756c747572616c20547261646500008152506040518060400160405280600481526020017f474f41540000000000000000000000000000000000000000000000000000000081525081600390816100c89190610436565b5080600490816100d89190610436565b5050503373ffffffffffffffffffffffffffffffffffffffff1660808173ffffffffffffffffffffffffffffffffffffffff168152505080600a60006101000a81548173ffffffffffffffffffffffffffffffffffffffff021916908373ffffffffffffffffffffffffffffffffffffffff16021790555050610508565b600080fd5b600073ffffffffffffffffffffffffffffffffffffffff82169050919050565b60006101868261015b565b9050919050565b6101968161017b565b81146101a157600080fd5b50565b6000815190506101b38161018d565b92915050565b6000602082840312156101cf576101ce610156565b5b60006101dd848285016101a4565b91505092915050565b600081519050919050565b7f4e487b7100000000000000000000000000000000000000000000000000000000600052604160045260246000fd5b7f4e487b7100000000000000000000000000000000000000000000000000000000600052602260045260246000fd5b6000600282049050600182168061026757607f821691505b60208210810361027a57610279610220565b5b50919050565b60008190508160005260206000209050919050565b60006020601f8301049050919050565b600082821b905092915050565b6000600883026102e27fffffffffffffffffffffffffffffffffffffffffffffffffffffffffffffffff826102a5565b6102ec86836102a5565b95508019841693508086168417925050509392505050565b6000819050919050565b6000819050919050565b600061033361032e61032984610304565b61030e565b610304565b9050919050565b6000819050919050565b61034d83610318565b6103616103598261033a565b8484546102b2565b825550505050565b600090565b610376610369565b610381818484610344565b505050565b5b818110156103a55761039a60008261036e565b600181019050610387565b5050565b601f8211156103ea576103bb81610280565b6103c484610295565b810160208510156103d3578190505b6103e76103df85610295565b830182610386565b50505b505050565b600082821c905092915050565b600061040d600019846008026103ef565b1980831691505092915050565b600061042683836103fc565b9150826002028217905092915050565b61043f826101e6565b67ffffffffffffffff811115610458576104576101f1565b5b610462825461024f565b61046d8282856103a9565b600060209050601f8311600181146104a0576000841561048e578287015190505b610498858261041a565b865550610500565b601f1984166104ae86610280565b60005b828110156104d6578489015182556001820191506020850194506020810190506104b1565b868310156104f357848901516104ef601f8916826103fc565b8355505b6001600288020188555050505b505050505050565b608051612cb661053860003960008181610b3a01528181610db301528181610f0b015261153e0152612cb66000f3fe608060405234801561001057600080fd5b50600436106101cf5760003560e01c80636d971a1011610104578063a694fc3a116100a2578063c57a202c11610071578063c57a202c146104d2578063d56d229d14610502578063dd62ed3e14610520578063f40f0f5214610550576101cf565b8063a694fc3a1461045e578063a9059cbb1461047a578063b88a802f146104aa578063bec4de3f146104b4576101cf565b80637589cf2f116100de5780637589cf2f146103fa5780637b0a47ee146104045780638da5cb5b1461042257806395d89b4114610440576101cf565b80636d971a101461039057806370a082311461039a57806370f23da7146103ca576101cf565b8063313ce5671161017157806345bc78ab1161014b57806345bc78ab1461030a5780634e4d735e1461033a578063689b64171461035657806369d0373814610374576101cf565b8063313ce567146102b45780633ab43289146102d2578063449a52f8146102ee576101cf565b806318160ddd116101ad57806318160ddd1461023e5780631afcd0e61461025c57806323b872dd1461027a5780632def6620146102aa576101cf565b806306fdde03146101d4578063095ea7b3146101f257806311104e9414610222575b600080fd5b6101dc610580565b6040516101e99190612194565b60405180910390f35b61020c6004803603810190610207919061224f565b610612565b60405161021991906122aa565b60405180910390f35b61023c600480360381019061023791906122c5565b610635565b005b6102466108cc565b6040516102539190612301565b60405180910390f35b6102646108d6565b6040516102719190612301565b60405180910390f35b610294600480360381019061028f919061231c565b6108dc565b6040516102a191906122aa565b60405180910390f35b6102b261090b565b005b6102bc610b2f565b6040516102c9919061238b565b60405180910390f35b6102ec60048036038101906102e791906123a6565b610b38565b005b6103086004803603810190610303919061224f565b610cfb565b005b610324600480360381019061031f91906123a6565b610d99565b6040516103319190612301565b60405180910390f35b610354600480360381019061034f91906123d3565b610db1565b005b61035e610ee3565b60405161036b9190612435565b60405180910390f35b61038e600480360381019061038991906123a6565b610f09565b005b6103986110cc565b005b6103b460048036038101906103af91906123a6565b6112c9565b6040516103c19190612301565b60405180910390f35b6103e460048036038101906103df91906123a6565b611311565b6040516103f19190612301565b60405180910390f35b61040261137f565b005b61040c611534565b6040516104199190612301565b60405180910390f35b61042a61153a565b6040516104379190612435565b60405180910390f35b610448611562565b6040516104559190612194565b60405180910390f35b610478600480360381019061047391906122c5565b6115f4565b005b610494600480360381019061048f919061224f565b61172d565b6040516104a191906122aa565b60405180910390f35b6104b2611750565b005b6104bc61191b565b6040516104c99190612301565b60405180910390f35b6104ec60048036038101906104e791906123a6565b611921565b6040516104f99190612301565b60405180910390f35b61050a611939565b6040516105179190612435565b60405180910390f35b61053a60048036038101906105359190612450565b61195f565b6040516105479190612301565b60405180910390f35b61056a600480360381019061056591906123a6565b6119e6565b6040516105779190612301565b60405180910390f35b60606003805461058f906124bf565b80601f01602080910402602001604051908101604052809291908181526020018280546105bb906124bf565b80156106085780601f106105dd57610100808354040283529160200191610608565b820191906000526020600020905b8154815290600101906020018083116105eb57829003601f168201915b5050505050905090565b60008061061d611a38565b905061062a818585611a40565b600191505092915050565b600073ffffffffffffffffffffffffffffffffffffffff16600b60009054906101000a900473ffffffffffffffffffffffffffffffffffffffff1673ffffffffffffffffffffffffffffffffffffffff16036106c6576040517f08c379a00000000000000000000000000000000000000000000000000000000081526004016106bd9061253c565b60405180910390fd5b6000600b60009054906101000a900473ffffffffffffffffffffffffffffffffffffffff1690503373ffffffffffffffffffffffffffffffffffffffff168173ffffffffffffffffffffffffffffffffffffffff16636352211e846040518263ffffffff1660e01b815260040161073d9190612301565b602060405180830381865afa15801561075a573d6000803e3d6000fd5b505050506040513d601f19601f8201168201806040525081019061077e9190612571565b73ffffffffffffffffffffffffffffffffffffffff16146107d4576040517f08c379a00000000000000000000000000000000000000000000000000000000081526004016107cb906125ea565b60405180910390fd5b60008173ffffffffffffffffffffffffffffffffffffffff16639ee094ea846040518263ffffffff1660e01b815260040161080f9190612301565b602060405180830381865afa15801561082c573d6000803e3d6000fd5b505050506040513d601f19601f82011682018060405250810190610850919061261f565b90508173ffffffffffffffffffffffffffffffffffffffff166342966c68846040518263ffffffff1660e01b815260040161088b9190612301565b600060405180830381600087803b1580156108a557600080fd5b505af11580156108b9573d6000803e3d6000fd5b505050506108c73382611a52565b505050565b6000600254905090565b60095481565b6000806108e7611a38565b90506108f4858285611ad4565b6108ff858585611b69565b60019150509392505050565b6000600560003373ffffffffffffffffffffffffffffffffffffffff1673ffffffffffffffffffffffffffffffffffffffff16815260200190815260200160002054905060008111610992576040517f08c379a000000000000000000000000000000000000000000000000000000000815260040161098990612698565b60405180910390fd5b6000600660003373ffffffffffffffffffffffffffffffffffffffff1673ffffffffffffffffffffffffffffffffffffffff16815260200190815260200160002054905060095481426109e591906126e7565b1015610a26576040517f08c379a0000000000000000000000000000000000000000000000000000000008152600401610a1d90612767565b60405180910390fd5b6000610a323383611c5d565b905060008184610a429190612787565b90506000600560003373ffffffffffffffffffffffffffffffffffffffff1673ffffffffffffffffffffffffffffffffffffffff168152602001908152602001600020819055506000610a94306112c9565b9050818110610aad57610aa8303384611b69565b610ad8565b6000811115610ac257610ac1303383611b69565b5b610ad7338284610ad291906126e7565b611a52565b5b3373ffffffffffffffffffffffffffffffffffffffff167f7fc4727e062e336010f2c282598ef5f14facb3de68cf8195c2f23e1454b2b74e8685604051610b209291906127bb565b60405180910390a25050505050565b60006012905090565b7f000000000000000000000000000000000000000000000000000000000000000073ffffffffffffffffffffffffffffffffffffffff163373ffffffffffffffffffffffffffffffffffffffff1614610bc6576040517f08c379a0000000000000000000000000000000000000000000000000000000008152600401610bbd90612830565b60405180910390fd5b600073ffffffffffffffffffffffffffffffffffffffff168173ffffffffffffffffffffffffffffffffffffffff1603610c35576040517f08c379a0000000000000000000000000000000000000000000000000000000008152600401610c2c9061289c565b60405180910390fd5b6000600a60009054906101000a900473ffffffffffffffffffffffffffffffffffffffff16905081600a60006101000a81548173ffffffffffffffffffffffffffffffffffffffff021916908373ffffffffffffffffffffffffffffffffffffffff1602179055508173ffffffffffffffffffffffffffffffffffffffff168173ffffffffffffffffffffffffffffffffffffffff167fd81c1149683089dec8dd03ff33fd8b5213095d59fcee5d7c640dcd7ec4c7b11660405160405180910390a35050565b600a60009054906101000a900473ffffffffffffffffffffffffffffffffffffffff1673ffffffffffffffffffffffffffffffffffffffff163373ffffffffffffffffffffffffffffffffffffffff1614610d8b576040517f08c379a0000000000000000000000000000000000000000000000000000000008152600401610d8290612908565b60405180910390fd5b610d958282611a52565b5050565b60056020528060005260406000206000915090505481565b7f000000000000000000000000000000000000000000000000000000000000000073ffffffffffffffffffffffffffffffffffffffff163373ffffffffffffffffffffffffffffffffffffffff1614610e3f576040517f08c379a0000000000000000000000000000000000000000000000000000000008152600401610e3690612830565b60405180910390fd5b60008211610e82576040517f08c379a0000000000000000000000000000000000000000000000000000000008152600401610e7990612974565b60405180910390fd5b7f55764ed25d8d6fea4fcffc2914ad2587a52f9fc766559d1bc91b2d7cf6bf7742600754846008548560095486604051610ec196959493929190612994565b60405180910390a1826007819055508160088190555080600981905550505050565b600a60009054906101000a900473ffffffffffffffffffffffffffffffffffffffff1681565b7f000000000000000000000000000000000000000000000000000000000000000073ffffffffffffffffffffffffffffffffffffffff163373ffffffffffffffffffffffffffffffffffffffff1614610f97576040517f08c379a0000000000000000000000000000000000000000000000000000000008152600401610f8e90612830565b60405180910390fd5b600073ffffffffffffffffffffffffffffffffffffffff168173ffffffffffffffffffffffffffffffffffffffff1603611006576040517f08c379a0000000000000000000000000000000000000000000000000000000008152600401610ffd9061289c565b60405180910390fd5b6000600b60009054906101000a900473ffffffffffffffffffffffffffffffffffffffff16905081600b60006101000a81548173ffffffffffffffffffffffffffffffffffffffff021916908373ffffffffffffffffffffffffffffffffffffffff1602179055508173ffffffffffffffffffffffffffffffffffffffff168173ffffffffffffffffffffffffffffffffffffffff167f51d2761f030964e882529b208c5390589ddac658d9a1a6d3b8a1cbaed35e7d3360405160405180910390a35050565b6000600660003373ffffffffffffffffffffffffffffffffffffffff1673ffffffffffffffffffffffffffffffffffffffff168152602001908152602001600020549050600954814261111f91906126e7565b1015611160576040517f08c379a000000000000000000000000000000000000000000000000000000000815260040161115790612767565b60405180910390fd5b600061116c3383611c5d565b9050600081116111b1576040517f08c379a00000000000000000000000000000000000000000000000000000000081526004016111a890612a41565b60405180910390fd5b60006111bc306112c9565b9050818110156111dc576111db3082846111d691906126e7565b611a52565b5b81600560003373ffffffffffffffffffffffffffffffffffffffff1673ffffffffffffffffffffffffffffffffffffffff168152602001908152602001600020600082825461122b9190612787565b9250508190555042600660003373ffffffffffffffffffffffffffffffffffffffff1673ffffffffffffffffffffffffffffffffffffffff168152602001908152602001600020819055503373ffffffffffffffffffffffffffffffffffffffff167fc16de066392da7e40ceccb739c331fc48a2e76bf147449613c48023d960eec32836040516112bc9190612301565b60405180910390a2505050565b60008060008373ffffffffffffffffffffffffffffffffffffffff1673ffffffffffffffffffffffffffffffffffffffff168152602001908152602001600020549050919050565b600080600660008473ffffffffffffffffffffffffffffffffffffffff1673ffffffffffffffffffffffffffffffffffffffff1681526020019081526020016000205490506000810361136857600091505061137a565b600954816113769190612787565b9150505b919050565b6000600560003373ffffffffffffffffffffffffffffffffffffffff1673ffffffffffffffffffffffffffffffffffffffff16815260200190815260200160002054905060008111611406576040517f08c379a00000000000000000000000000000000000000000000000000000000081526004016113fd90612698565b60405180910390fd5b6000600560003373ffffffffffffffffffffffffffffffffffffffff1673ffffffffffffffffffffffffffffffffffffffff168152602001908152602001600020819055506000600660003373ffffffffffffffffffffffffffffffffffffffff1673ffffffffffffffffffffffffffffffffffffffff16815260200190815260200160002081905550600061149b306112c9565b90508181106114b4576114af303384611b69565b6114df565b60008111156114c9576114c8303383611b69565b5b6114de3382846114d991906126e7565b611a52565b5b3373ffffffffffffffffffffffffffffffffffffffff167f7fc4727e062e336010f2c282598ef5f14facb3de68cf8195c2f23e1454b2b74e836000604051611528929190612aa6565b60405180910390a25050565b60075481565b60007f0000000000000000000000000000000000000000000000000000000000000000905090565b606060048054611571906124bf565b80601f016020809104026020016040519081016040528092919081815260200182805461159d906124bf565b80156115ea5780601f106115bf576101008083540402835291602001916115ea565b820191906000526020600020905b8154815290600101906020018083116115cd57829003601f168201915b5050505050905090565b60008111611637576040517f08c379a000000000000000000000000000000000000000000000000000000000815260040161162e90612b1b565b60405180910390fd5b611642333083611b69565b80600560003373ffffffffffffffffffffffffffffffffffffffff1673ffffffffffffffffffffffffffffffffffffffff16815260200190815260200160002060008282546116919190612787565b9250508190555042600660003373ffffffffffffffffffffffffffffffffffffffff1673ffffffffffffffffffffffffffffffffffffffff168152602001908152602001600020819055503373ffffffffffffffffffffffffffffffffffffffff167f9e71bc8eea02a63969f509818f2dafb9254532904319f9dbda79b67bd34a5f3d826040516117229190612301565b60405180910390a250565b600080611738611a38565b9050611745818585611b69565b600191505092915050565b6000600660003373ffffffffffffffffffffffffffffffffffffffff1673ffffffffffffffffffffffffffffffffffffffff16815260200190815260200160002054905060095481426117a391906126e7565b10156117e4576040517f08c379a00000000000000000000000000000000000000000000000000000000081526004016117db90612767565b60405180910390fd5b60006117f03383611c5d565b905060008111611835576040517f08c379a000000000000000000000000000000000000000000000000000000000815260040161182c90612b87565b60405180910390fd5b6000611840306112c9565b905081811061185957611854303384611b69565b611884565b600081111561186e5761186d303383611b69565b5b61188333828461187e91906126e7565b611a52565b5b42600660003373ffffffffffffffffffffffffffffffffffffffff1673ffffffffffffffffffffffffffffffffffffffff168152602001908152602001600020819055503373ffffffffffffffffffffffffffffffffffffffff167f106f923f993c2149d49b4255ff723acafa1f2d94393f561d3eda32ae348f72418360405161190e9190612301565b60405180910390a2505050565b60085481565b60066020528060005260406000206000915090505481565b600b60009054906101000a900473ffffffffffffffffffffffffffffffffffffffff1681565b6000600160008473ffffffffffffffffffffffffffffffffffffffff1673ffffffffffffffffffffffffffffffffffffffff16815260200190815260200160002060008373ffffffffffffffffffffffffffffffffffffffff1673ffffffffffffffffffffffffffffffffffffffff16815260200190815260200160002054905092915050565b6000611a3182600660008573ffffffffffffffffffffffffffffffffffffffff1673ffffffffffffffffffffffffffffffffffffffff16815260200190815260200160002054611c5d565b9050919050565b600033905090565b611a4d8383836001611d08565b505050565b600073ffffffffffffffffffffffffffffffffffffffff168273ffffffffffffffffffffffffffffffffffffffff1603611ac45760006040517fec442f05000000000000000000000000000000000000000000000000000000008152600401611abb9190612435565b60405180910390fd5b611ad060008383611edf565b5050565b6000611ae0848461195f565b90507fffffffffffffffffffffffffffffffffffffffffffffffffffffffffffffffff811015611b635781811015611b53578281836040517ffb8f41b2000000000000000000000000000000000000000000000000000000008152600401611b4a93929190612ba7565b60405180910390fd5b611b6284848484036000611d08565b5b50505050565b600073ffffffffffffffffffffffffffffffffffffffff168373ffffffffffffffffffffffffffffffffffffffff1603611bdb5760006040517f96c6fd1e000000000000000000000000000000000000000000000000000000008152600401611bd29190612435565b60405180910390fd5b600073ffffffffffffffffffffffffffffffffffffffff168273ffffffffffffffffffffffffffffffffffffffff1603611c4d5760006040517fec442f05000000000000000000000000000000000000000000000000000000008152600401611c449190612435565b60405180910390fd5b611c58838383611edf565b505050565b600080600560008573ffffffffffffffffffffffffffffffffffffffff1673ffffffffffffffffffffffffffffffffffffffff16815260200190815260200160002054905060008103611cb4576000915050611d02565b60008342611cc291906126e7565b9050670de0b6b3a7640000600854611cda9190612bde565b6007548284611ce99190612bde565b611cf39190612bde565b611cfd9190612c4f565b925050505b92915050565b600073ffffffffffffffffffffffffffffffffffffffff168473ffffffffffffffffffffffffffffffffffffffff1603611d7a5760006040517fe602df05000000000000000000000000000000000000000000000000000000008152600401611d719190612435565b60405180910390fd5b600073ffffffffffffffffffffffffffffffffffffffff168373ffffffffffffffffffffffffffffffffffffffff1603611dec5760006040517f94280d62000000000000000000000000000000000000000000000000000000008152600401611de39190612435565b60405180910390fd5b81600160008673ffffffffffffffffffffffffffffffffffffffff1673ffffffffffffffffffffffffffffffffffffffff16815260200190815260200160002060008573ffffffffffffffffffffffffffffffffffffffff1673ffffffffffffffffffffffffffffffffffffffff168152602001908152602001600020819055508015611ed9578273ffffffffffffffffffffffffffffffffffffffff168473ffffffffffffffffffffffffffffffffffffffff167f8c5be1e5ebec7d5bd14f71427d1e84f3dd0314c0f7b2291e5b200ac8c7c3b92584604051611ed09190612301565b60405180910390a35b50505050565b600073ffffffffffffffffffffffffffffffffffffffff168373ffffffffffffffffffffffffffffffffffffffff1603611f31578060026000828254611f259190612787565b92505081905550612004565b60008060008573ffffffffffffffffffffffffffffffffffffffff1673ffffffffffffffffffffffffffffffffffffffff16815260200190815260200160002054905081811015611fbd578381836040517fe450d38c000000000000000000000000000000000000000000000000000000008152600401611fb493929190612ba7565b60405180910390fd5b8181036000808673ffffffffffffffffffffffffffffffffffffffff1673ffffffffffffffffffffffffffffffffffffffff16815260200190815260200160002081905550505b600073ffffffffffffffffffffffffffffffffffffffff168273ffffffffffffffffffffffffffffffffffffffff160361204d578060026000828254039250508190555061209a565b806000808473ffffffffffffffffffffffffffffffffffffffff1673ffffffffffffffffffffffffffffffffffffffff168152602001908152602001600020600082825401925050819055505b8173ffffffffffffffffffffffffffffffffffffffff168373ffffffffffffffffffffffffffffffffffffffff167fddf252ad1be2c89b69c2b068fc378daa952ba7f163c4a11628f55a4df523b3ef836040516120f79190612301565b60405180910390a3505050565b600081519050919050565b600082825260208201905092915050565b60005b8381101561213e578082015181840152602081019050612123565b60008484015250505050565b6000601f19601f8301169050919050565b600061216682612104565b612170818561210f565b9350612180818560208601612120565b6121898161214a565b840191505092915050565b600060208201905081810360008301526121ae818461215b565b905092915050565b600080fd5b600073ffffffffffffffffffffffffffffffffffffffff82169050919050565b60006121e6826121bb565b9050919050565b6121f6816121db565b811461220157600080fd5b50565b600081359050612213816121ed565b92915050565b6000819050919050565b61222c81612219565b811461223757600080fd5b50565b60008135905061224981612223565b92915050565b60008060408385031215612266576122656121b6565b5b600061227485828601612204565b92505060206122858582860161223a565b9150509250929050565b60008115159050919050565b6122a48161228f565b82525050565b60006020820190506122bf600083018461229b565b92915050565b6000602082840312156122db576122da6121b6565b5b60006122e98482850161223a565b91505092915050565b6122fb81612219565b82525050565b600060208201905061231660008301846122f2565b92915050565b600080600060608486031215612335576123346121b6565b5b600061234386828701612204565b935050602061235486828701612204565b92505060406123658682870161223a565b9150509250925092565b600060ff82169050919050565b6123858161236f565b82525050565b60006020820190506123a0600083018461237c565b92915050565b6000602082840312156123bc576123bb6121b6565b5b60006123ca84828501612204565b91505092915050565b6000806000606084860312156123ec576123eb6121b6565b5b60006123fa8682870161223a565b935050602061240b8682870161223a565b925050604061241c8682870161223a565b9150509250925092565b61242f816121db565b82525050565b600060208201905061244a6000830184612426565b92915050565b60008060408385031215612467576124666121b6565b5b600061247585828601612204565b925050602061248685828601612204565b9150509250929050565b7f4e487b7100000000000000000000000000000000000000000000000000000000600052602260045260246000fd5b600060028204905060018216806124d757607f821691505b6020821081036124ea576124e9612490565b5b50919050565b7f4e4654206e6f7420736574000000000000000000000000000000000000000000600082015250565b6000612526600b8361210f565b9150612531826124f0565b602082019050919050565b6000602082019050818103600083015261255581612519565b9050919050565b60008151905061256b816121ed565b92915050565b600060208284031215612587576125866121b6565b5b60006125958482850161255c565b91505092915050565b7f4e6f7420746f6b656e206f776e65720000000000000000000000000000000000600082015250565b60006125d4600f8361210f565b91506125df8261259e565b602082019050919050565b60006020820190508181036000830152612603816125c7565b9050919050565b60008151905061261981612223565b92915050565b600060208284031215612635576126346121b6565b5b60006126438482850161260a565b91505092915050565b7f4e6f7468696e6720746f20756e7374616b650000000000000000000000000000600082015250565b600061268260128361210f565b915061268d8261264c565b602082019050919050565b600060208201905081810360008301526126b181612675565b9050919050565b7f4e487b7100000000000000000000000000000000000000000000000000000000600052601160045260246000fd5b60006126f282612219565b91506126fd83612219565b9250828203905081811115612715576127146126b8565b5b92915050565b7f436c61696d206e6f7420616c6c6f776564207965740000000000000000000000600082015250565b600061275160158361210f565b915061275c8261271b565b602082019050919050565b6000602082019050818103600083015261278081612744565b9050919050565b600061279282612219565b915061279d83612219565b92508282019050808211156127b5576127b46126b8565b5b92915050565b60006040820190506127d060008301856122f2565b6127dd60208301846122f2565b9392505050565b7f4e6f7420746865206f776e657200000000000000000000000000000000000000600082015250565b600061281a600d8361210f565b9150612825826127e4565b602082019050919050565b600060208201905081810360008301526128498161280d565b9050919050565b7f496e76616c696420616464726573730000000000000000000000000000000000600082015250565b6000612886600f8361210f565b915061289182612850565b602082019050919050565b600060208201905081810360008301526128b581612879565b9050919050565b7f556e617574686f72697a6564206d696e74000000000000000000000000000000600082015250565b60006128f260118361210f565b91506128fd826128bc565b602082019050919050565b60006020820190508181036000830152612921816128e5565b9050919050565b7f496e74657276616c206d757374206265203e2030000000000000000000000000600082015250565b600061295e60148361210f565b915061296982612928565b602082019050919050565b6000602082019050818103600083015261298d81612951565b9050919050565b600060c0820190506129a960008301896122f2565b6129b660208301886122f2565b6129c360408301876122f2565b6129d060608301866122f2565b6129dd60808301856122f2565b6129ea60a08301846122f2565b979650505050505050565b7f4e6f2072657761726420746f20636f6d706f756e640000000000000000000000600082015250565b6000612a2b60158361210f565b9150612a36826129f5565b602082019050919050565b60006020820190508181036000830152612a5a81612a1e565b9050919050565b6000819050919050565b6000819050919050565b6000612a90612a8b612a8684612a61565b612a6b565b612219565b9050919050565b612aa081612a75565b82525050565b6000604082019050612abb60008301856122f2565b612ac86020830184612a97565b9392505050565b7f416d6f756e74206d757374206265203e20300000000000000000000000000000600082015250565b6000612b0560128361210f565b9150612b1082612acf565b602082019050919050565b60006020820190508181036000830152612b3481612af8565b9050919050565b7f4e6f2072657761726420746f20636c61696d0000000000000000000000000000600082015250565b6000612b7160128361210f565b9150612b7c82612b3b565b602082019050919050565b60006020820190508181036000830152612ba081612b64565b9050919050565b6000606082019050612bbc6000830186612426565b612bc960208301856122f2565b612bd660408301846122f2565b949350505050565b6000612be982612219565b9150612bf483612219565b9250828202612c0281612219565b91508282048414831517612c1957612c186126b8565b5b5092915050565b7f4e487b7100000000000000000000000000000000000000000000000000000000600052601260045260246000fd5b6000612c5a82612219565b9150612c6583612219565b925082612c7557612c74612c20565b5b82820490509291505056fea26469706673582212209e01b344dacbbef6622efcb8ffed8ddefc73410d5a5241b5322541f5f64c359864736f6c634300081d0033",
  "linkReferences": {},
  "deployedLinkReferences": {}
}