{
  "_format": "hh-sol-artifact-1",
  "contractName": "GOAT",
  "sourceName": "contracts/GOAT.sol",
  "abi": [
    {
      "inputs": [
        {
          "internalType": "address",
          "name": "meatAddress",
          "type": "address"
        }
      ],
      "stateMutability": "nonpayable",
      "type": "constructor"
    },
    {
      "inputs": [
        {
          "internalType": "address",
          "name": "spender",
          "type": "address"
        },
        {
          "internalType": "uint256",
          "name": "allowance",
          "type": "uint256"
        },
        {
          "internalType": "uint256",
          "name": "needed",
          "type": "uint256"
        }
      ],
      "name": "ERC20InsufficientAllowance",
      "type": "error"
    },
    {
      "inputs": [
        {
          "internalType": "address",
          "name": "sender",
          "type": "address"
        },
        {
          "internalType": "uint256",
          "name": "balance",
          "type": "uint256"
        },
        {
          "internalType": "uint256",
          "name": "needed",
          "type": "uint256"
        }
      ],
      "name": "ERC20InsufficientBalance",
      "type": "error"
    },
    {
      "inputs": [
        {
          "internalType": "address",
          "name": "approver",
          "type": "address"
        }
      ],
      "name": "ERC20InvalidApprover",
      "type": "error"
    },
    {
      "inputs": [
        {
          "internalType": "address",
          "name": "receiver",
          "type": "address"
        }
      ],
      "name": "ERC20InvalidReceiver",
      "type": "error"
    },
    {
      "inputs": [
        {
          "internalType": "address",
          "name": "sender",
          "type": "address"
        }
      ],
      "name": "ERC20InvalidSender",
      "type": "error"
    },
    {
      "inputs": [
        {
          "internalType": "address",
          "name": "spender",
          "type": "address"
        }
      ],
      "name": "ERC20InvalidSpender",
      "type": "error"
    },
    {
      "anonymous": false,
      "inputs": [
        {
          "indexed": true,
          "internalType": "address",
          "name": "owner",
          "type": "address"
        },
        {
          "indexed": true,
          "internalType": "address",
          "name": "spender",
          "type": "address"
        },
        {
          "indexed": false,
          "internalType": "uint256",
          "name": "value",
          "type": "uint256"
        }
      ],
      "name": "Approval",
      "type": "event"
    },
    {
      "anonymous": false,
      "inputs": [
        {
          "indexed": true,
          "internalType": "address",
          "name": "user",
          "type": "address"
        },
        {
          "indexed": false,
          "internalType": "uint256",
          "name": "reward",
          "type": "uint256"
        }
      ],
      "name": "Compounded",
      "type": "event"
    },
    {
      "anonymous": false,
      "inputs": [
        {
          "indexed": true,
          "internalType": "address",
          "name": "user",
          "type": "address"
        },
        {
          "indexed": false,
          "internalType": "uint256",
          "name": "reward",
          "type": "uint256"
        }
      ],
      "name": "RewardClaimed",
      "type": "event"
    },
    {
      "anonymous": false,
      "inputs": [
        {
          "indexed": false,
          "internalType": "uint256",
          "name": "oldRate",
          "type": "uint256"
        },
        {
          "indexed": false,
          "internalType": "uint256",
          "name": "newRate",
          "type": "uint256"
        },
        {
          "indexed": false,
          "internalType": "uint256",
          "name": "oldInterval",
          "type": "uint256"
        },
        {
          "indexed": false,
          "internalType": "uint256",
          "name": "newInterval",
          "type": "uint256"
        },
        {
          "indexed": false,
          "internalType": "uint256",
          "name": "oldMinClaimTime",
          "type": "uint256"
        },
        {
          "indexed": false,
          "internalType": "uint256",
          "name": "newMinClaimTime",
          "type": "uint256"
        }
      ],
      "name": "RewardConfigChanged",
      "type": "event"
    },
    {
      "anonymous": false,
      "inputs": [
        {
          "indexed": true,
          "internalType": "address",
          "name": "user",
          "type": "address"
        },
        {
          "indexed": false,
          "internalType": "uint256",
          "name": "amount",
          "type": "uint256"
        }
      ],
      "name": "Staked",
      "type": "event"
    },
    {
      "anonymous": false,
      "inputs": [
        {
          "indexed": true,
          "internalType": "address",
          "name": "from",
          "type": "address"
        },
        {
          "indexed": true,
          "internalType": "address",
          "name": "to",
          "type": "address"
        },
        {
          "indexed": false,
          "internalType": "uint256",
          "name": "value",
          "type": "uint256"
        }
      ],
      "name": "Transfer",
      "type": "event"
    },
    {
      "anonymous": false,
      "inputs": [
        {
          "indexed": true,
          "internalType": "address",
          "name": "user",
          "type": "address"
        },
        {
          "indexed": false,
          "internalType": "uint256",
          "name": "amount",
          "type": "uint256"
        },
        {
          "indexed": false,
          "internalType": "uint256",
          "name": "reward",
          "type": "uint256"
        }
      ],
      "name": "Unstaked",
      "type": "event"
    },
    {
      "inputs": [
        {
          "internalType": "address",
          "name": "owner",
          "type": "address"
        },
        {
          "internalType": "address",
          "name": "spender",
          "type": "address"
        }
      ],
      "name": "allowance",
      "outputs": [
        {
          "internalType": "uint256",
          "name": "",
          "type": "uint256"
        }
      ],
      "stateMutability": "view",
      "type": "function"
    },
    {
      "inputs": [
        {
          "internalType": "address",
          "name": "spender",
          "type": "address"
        },
        {
          "internalType": "uint256",
          "name": "value",
          "type": "uint256"
        }
      ],
      "name": "approve",
      "outputs": [
        {
          "internalType": "bool",
          "name": "",
          "type": "bool"
        }
      ],
      "stateMutability": "nonpayable",
      "type": "function"
    },
    {
      "inputs": [
        {
          "internalType": "address",
          "name": "account",
          "type": "address"
        }
      ],
      "name": "balanceOf",
      "outputs": [
        {
          "internalType": "uint256",
          "name": "",
          "type": "uint256"
        }
      ],
      "stateMutability": "view",
      "type": "function"
    },
    {
      "inputs": [],
      "name": "claimReward",
      "outputs": [],
      "stateMutability": "nonpayable",
      "type": "function"
    },
    {
      "inputs": [],
      "name": "compoundReward",
      "outputs": [],
      "stateMutability": "nonpayable",
      "type": "function"
    },
    {
      "inputs": [],
      "name": "decimals",
      "outputs": [
        {
          "internalType": "uint8",
          "name": "",
          "type": "uint8"
        }
      ],
      "stateMutability": "view",
      "type": "function"
    },
    {
      "inputs": [],
      "name": "emergencyUnstake",
      "outputs": [],
      "stateMutability": "nonpayable",
      "type": "function"
    },
    {
      "inputs": [
        {
          "internalType": "address",
          "name": "",
          "type": "address"
        }
      ],
      "name": "lastStakedTime",
      "outputs": [
        {
          "internalType": "uint256",
          "name": "",
          "type": "uint256"
        }
      ],
      "stateMutability": "view",
      "type": "function"
    },
    {
      "inputs": [],
      "name": "meatContract",
      "outputs": [
        {
          "internalType": "address",
          "name": "",
          "type": "address"
        }
      ],
      "stateMutability": "view",
      "type": "function"
    },
    {
      "inputs": [],
      "name": "minClaimInterval",
      "outputs": [
        {
          "internalType": "uint256",
          "name": "",
          "type": "uint256"
        }
      ],
      "stateMutability": "view",
      "type": "function"
    },
    {
      "inputs": [
        {
          "internalType": "address",
          "name": "to",
          "type": "address"
        },
        {
          "internalType": "uint256",
          "name": "amount",
          "type": "uint256"
        }
      ],
      "name": "mintTo",
      "outputs": [],
      "stateMutability": "nonpayable",
      "type": "function"
    },
    {
      "inputs": [],
      "name": "name",
      "outputs": [
        {
          "internalType": "string",
          "name": "",
          "type": "string"
        }
      ],
      "stateMutability": "view",
      "type": "function"
    },
    {
      "inputs": [
        {
          "internalType": "address",
          "name": "user",
          "type": "address"
        }
      ],
      "name": "nextClaimTime",
      "outputs": [
        {
          "internalType": "uint256",
          "name": "",
          "type": "uint256"
        }
      ],
      "stateMutability": "view",
      "type": "function"
    },
    {
      "inputs": [],
      "name": "owner",
      "outputs": [
        {
          "internalType": "address",
          "name": "",
          "type": "address"
        }
      ],
      "stateMutability": "view",
      "type": "function"
    },
    {
      "inputs": [
        {
          "internalType": "address",
          "name": "user",
          "type": "address"
        }
      ],
      "name": "pendingReward",
      "outputs": [
        {
          "internalType": "uint256",
          "name": "",
          "type": "uint256"
        }
      ],
      "stateMutability": "view",
      "type": "function"
    },
    {
      "inputs": [],
      "name": "rewardInterval",
      "outputs": [
        {
          "internalType": "uint256",
          "name": "",
          "type": "uint256"
        }
      ],
      "stateMutability": "view",
      "type": "function"
    },
    {
      "inputs": [],
      "name": "rewardRate",
      "outputs": [
        {
          "internalType": "uint256",
          "name": "",
          "type": "uint256"
        }
      ],
      "stateMutability": "view",
      "type": "function"
    },
    {
      "inputs": [
        {
          "internalType": "address",
          "name": "meatAddress",
          "type": "address"
        }
      ],
      "name": "setMEATAddress",
      "outputs": [],
      "stateMutability": "nonpayable",
      "type": "function"
    },
    {
      "inputs": [
        {
          "internalType": "uint256",
          "name": "newRate",
          "type": "uint256"
        },
        {
          "internalType": "uint256",
          "name": "newInterval",
          "type": "uint256"
        },
        {
          "internalType": "uint256",
          "name": "newMinClaimTime",
          "type": "uint256"
        }
      ],
      "name": "setRewardConfig",
      "outputs": [],
      "stateMutability": "nonpayable",
      "type": "function"
    },
    {
      "inputs": [
        {
          "internalType": "uint256",
          "name": "amount",
          "type": "uint256"
        }
      ],
      "name": "stake",
      "outputs": [],
      "stateMutability": "nonpayable",
      "type": "function"
    },
    {
      "inputs": [
        {
          "internalType": "address",
          "name": "",
          "type": "address"
        }
      ],
      "name": "stakingBalance",
      "outputs": [
        {
          "internalType": "uint256",
          "name": "",
          "type": "uint256"
        }
      ],
      "stateMutability": "view",
      "type": "function"
    },
    {
      "inputs": [],
      "name": "symbol",
      "outputs": [
        {
          "internalType": "string",
          "name": "",
          "type": "string"
        }
      ],
      "stateMutability": "view",
      "type": "function"
    },
    {
      "inputs": [],
      "name": "totalSupply",
      "outputs": [
        {
          "internalType": "uint256",
          "name": "",
          "type": "uint256"
        }
      ],
      "stateMutability": "view",
      "type": "function"
    },
    {
      "inputs": [
        {
          "internalType": "address",
          "name": "to",
          "type": "address"
        },
        {
          "internalType": "uint256",
          "name": "value",
          "type": "uint256"
        }
      ],
      "name": "transfer",
      "outputs": [
        {
          "internalType": "bool",
          "name": "",
          "type": "bool"
        }
      ],
      "stateMutability": "nonpayable",
      "type": "function"
    },
    {
      "inputs": [
        {
          "internalType": "address",
          "name": "from",
          "type": "address"
        },
        {
          "internalType": "address",
          "name": "to",
          "type": "address"
        },
        {
          "internalType": "uint256",
          "name": "value",
          "type": "uint256"
        }
      ],
      "name": "transferFrom",
      "outputs": [
        {
          "internalType": "bool",
          "name": "",
          "type": "bool"
        }
      ],
      "stateMutability": "nonpayable",
      "type": "function"
    },
    {
      "inputs": [],
      "name": "unstake",
      "outputs": [],
      "stateMutability": "nonpayable",
      "type": "function"
    }
  ],
  "bytecode": "0x60a0604052631dcd65006007556301e1338060085562093a8060095534801561002757600080fd5b506040516129bd3803806129bd833981810160405281019061004991906101b5565b6040518060400160405280601e81526020017f477561726469616e206f66204167726963756c747572616c20547261646500008152506040518060400160405280600481526020017f474f41540000000000000000000000000000000000000000000000000000000081525081600390816100c49190610432565b5080600490816100d49190610432565b5050503373ffffffffffffffffffffffffffffffffffffffff1660808173ffffffffffffffffffffffffffffffffffffffff168152505080600a60006101000a81548173ffffffffffffffffffffffffffffffffffffffff021916908373ffffffffffffffffffffffffffffffffffffffff16021790555050610504565b600080fd5b600073ffffffffffffffffffffffffffffffffffffffff82169050919050565b600061018282610157565b9050919050565b61019281610177565b811461019d57600080fd5b50565b6000815190506101af81610189565b92915050565b6000602082840312156101cb576101ca610152565b5b60006101d9848285016101a0565b91505092915050565b600081519050919050565b7f4e487b7100000000000000000000000000000000000000000000000000000000600052604160045260246000fd5b7f4e487b7100000000000000000000000000000000000000000000000000000000600052602260045260246000fd5b6000600282049050600182168061026357607f821691505b6020821081036102765761027561021c565b5b50919050565b60008190508160005260206000209050919050565b60006020601f8301049050919050565b600082821b905092915050565b6000600883026102de7fffffffffffffffffffffffffffffffffffffffffffffffffffffffffffffffff826102a1565b6102e886836102a1565b95508019841693508086168417925050509392505050565b6000819050919050565b6000819050919050565b600061032f61032a61032584610300565b61030a565b610300565b9050919050565b6000819050919050565b61034983610314565b61035d61035582610336565b8484546102ae565b825550505050565b600090565b610372610365565b61037d818484610340565b505050565b5b818110156103a15761039660008261036a565b600181019050610383565b5050565b601f8211156103e6576103b78161027c565b6103c084610291565b810160208510156103cf578190505b6103e36103db85610291565b830182610382565b50505b505050565b600082821c905092915050565b6000610409600019846008026103eb565b1980831691505092915050565b600061042283836103f8565b9150826002028217905092915050565b61043b826101e2565b67ffffffffffffffff811115610454576104536101ed565b5b61045e825461024b565b6104698282856103a5565b600060209050601f83116001811461049c576000841561048a578287015190505b6104948582610416565b8655506104fc565b601f1984166104aa8661027c565b60005b828110156104d2578489015182556001820191506020850194506020810190506104ad565b868310156104ef57848901516104eb601f8916826103f8565b8355505b6001600288020188555050505b505050505050565b60805161249061052d600039600081816108050152818161098d0152610f0901526124906000f3fe608060405234801561001057600080fd5b506004361061018e5760003560e01c806370a08231116100de578063a694fc3a11610097578063bec4de3f11610071578063bec4de3f1461043b578063c57a202c14610459578063dd62ed3e14610489578063f40f0f52146104b95761018e565b8063a694fc3a146103e5578063a9059cbb14610401578063b88a802f146104315761018e565b806370a082311461032157806370f23da7146103515780637589cf2f146103815780637b0a47ee1461038b5780638da5cb5b146103a957806395d89b41146103c75761018e565b8063313ce5671161014b57806345bc78ab1161012557806345bc78ab146102ad5780634e4d735e146102dd578063689b6417146102f95780636d971a10146103175761018e565b8063313ce567146102575780633ab4328914610275578063449a52f8146102915761018e565b806306fdde0314610193578063095ea7b3146101b157806318160ddd146101e15780631afcd0e6146101ff57806323b872dd1461021d5780632def66201461024d575b600080fd5b61019b6104e9565b6040516101a89190611b36565b60405180910390f35b6101cb60048036038101906101c69190611bf1565b61057b565b6040516101d89190611c4c565b60405180910390f35b6101e961059e565b6040516101f69190611c76565b60405180910390f35b6102076105a8565b6040516102149190611c76565b60405180910390f35b61023760048036038101906102329190611c91565b6105ae565b6040516102449190611c4c565b60405180910390f35b6102556105dd565b005b61025f6107fa565b60405161026c9190611d00565b60405180910390f35b61028f600480360381019061028a9190611d1b565b610803565b005b6102ab60048036038101906102a69190611bf1565b6108d5565b005b6102c760048036038101906102c29190611d1b565b610973565b6040516102d49190611c76565b60405180910390f35b6102f760048036038101906102f29190611d48565b61098b565b005b610301610abd565b60405161030e9190611daa565b60405180910390f35b61031f610ae3565b005b61033b60048036038101906103369190611d1b565b610cd9565b6040516103489190611c76565b60405180910390f35b61036b60048036038101906103669190611d1b565b610d21565b6040516103789190611c76565b60405180910390f35b610389610d8f565b005b610393610eff565b6040516103a09190611c76565b60405180910390f35b6103b1610f05565b6040516103be9190611daa565b60405180910390f35b6103cf610f2d565b6040516103dc9190611b36565b60405180910390f35b6103ff60048036038101906103fa9190611dc5565b610fbf565b005b61041b60048036038101906104169190611bf1565b6110f8565b6040516104289190611c4c565b60405180910390f35b61043961111b565b005b6104436112e5565b6040516104509190611c76565b60405180910390f35b610473600480360381019061046e9190611d1b565b6112eb565b6040516104809190611c76565b60405180910390f35b6104a3600480360381019061049e9190611df2565b611303565b6040516104b09190611c76565b60405180910390f35b6104d360048036038101906104ce9190611d1b565b61138a565b6040516104e09190611c76565b60405180910390f35b6060600380546104f890611e61565b80601f016020809104026020016040519081016040528092919081815260200182805461052490611e61565b80156105715780601f1061054657610100808354040283529160200191610571565b820191906000526020600020905b81548152906001019060200180831161055457829003601f168201915b5050505050905090565b60008061058661139c565b90506105938185856113a4565b600191505092915050565b6000600254905090565b60095481565b6000806105b961139c565b90506105c68582856113b6565b6105d185858561144b565b60019150509392505050565b6000600560003373ffffffffffffffffffffffffffffffffffffffff1673ffffffffffffffffffffffffffffffffffffffff16815260200190815260200160002054905060008111610664576040517f08c379a000000000000000000000000000000000000000000000000000000000815260040161065b90611ede565b60405180910390fd5b600954600660003373ffffffffffffffffffffffffffffffffffffffff1673ffffffffffffffffffffffffffffffffffffffff16815260200190815260200160002054426106b29190611f2d565b10156106f3576040517f08c379a00000000000000000000000000000000000000000000000000000000081526004016106ea90611fad565b60405180910390fd5b60006106fe3361153f565b90506000818361070e9190611fcd565b90506000600560003373ffffffffffffffffffffffffffffffffffffffff1673ffffffffffffffffffffffffffffffffffffffff16815260200190815260200160002081905550600061076030610cd9565b90508181106107795761077430338461144b565b6107a4565b600081111561078e5761078d30338361144b565b5b6107a333828461079e9190611f2d565b611628565b5b3373ffffffffffffffffffffffffffffffffffffffff167f7fc4727e062e336010f2c282598ef5f14facb3de68cf8195c2f23e1454b2b74e85856040516107ec929190612001565b60405180910390a250505050565b60006012905090565b7f000000000000000000000000000000000000000000000000000000000000000073ffffffffffffffffffffffffffffffffffffffff163373ffffffffffffffffffffffffffffffffffffffff1614610891576040517f08c379a000000000000000000000000000000000000000000000000000000000815260040161088890612076565b60405180910390fd5b80600a60006101000a81548173ffffffffffffffffffffffffffffffffffffffff021916908373ffffffffffffffffffffffffffffffffffffffff16021790555050565b600a60009054906101000a900473ffffffffffffffffffffffffffffffffffffffff1673ffffffffffffffffffffffffffffffffffffffff163373ffffffffffffffffffffffffffffffffffffffff1614610965576040517f08c379a000000000000000000000000000000000000000000000000000000000815260040161095c906120e2565b60405180910390fd5b61096f8282611628565b5050565b60056020528060005260406000206000915090505481565b7f000000000000000000000000000000000000000000000000000000000000000073ffffffffffffffffffffffffffffffffffffffff163373ffffffffffffffffffffffffffffffffffffffff1614610a19576040517f08c379a0000000000000000000000000000000000000000000000000000000008152600401610a1090612076565b60405180910390fd5b60008211610a5c576040517f08c379a0000000000000000000000000000000000000000000000000000000008152600401610a539061214e565b60405180910390fd5b7f55764ed25d8d6fea4fcffc2914ad2587a52f9fc766559d1bc91b2d7cf6bf7742600754846008548560095486604051610a9b9695949392919061216e565b60405180910390a1826007819055508160088190555080600981905550505050565b600a60009054906101000a900473ffffffffffffffffffffffffffffffffffffffff1681565b6000610aee3361153f565b905060008111610b33576040517f08c379a0000000000000000000000000000000000000000000000000000000008152600401610b2a9061221b565b60405180910390fd5b600954600660003373ffffffffffffffffffffffffffffffffffffffff1673ffffffffffffffffffffffffffffffffffffffff1681526020019081526020016000205442610b819190611f2d565b1015610bc2576040517f08c379a0000000000000000000000000000000000000000000000000000000008152600401610bb990611fad565b60405180910390fd5b6000610bcd30610cd9565b905081811015610bed57610bec308284610be79190611f2d565b611628565b5b81600560003373ffffffffffffffffffffffffffffffffffffffff1673ffffffffffffffffffffffffffffffffffffffff1681526020019081526020016000206000828254610c3c9190611fcd565b9250508190555042600660003373ffffffffffffffffffffffffffffffffffffffff1673ffffffffffffffffffffffffffffffffffffffff168152602001908152602001600020819055503373ffffffffffffffffffffffffffffffffffffffff167fc16de066392da7e40ceccb739c331fc48a2e76bf147449613c48023d960eec3283604051610ccd9190611c76565b60405180910390a25050565b60008060008373ffffffffffffffffffffffffffffffffffffffff1673ffffffffffffffffffffffffffffffffffffffff168152602001908152602001600020549050919050565b600080600660008473ffffffffffffffffffffffffffffffffffffffff1673ffffffffffffffffffffffffffffffffffffffff16815260200190815260200160002054905060008103610d78576000915050610d8a565b60095481610d869190611fcd565b9150505b919050565b6000600560003373ffffffffffffffffffffffffffffffffffffffff1673ffffffffffffffffffffffffffffffffffffffff16815260200190815260200160002054905060008111610e16576040517f08c379a0000000000000000000000000000000000000000000000000000000008152600401610e0d90611ede565b60405180910390fd5b6000600560003373ffffffffffffffffffffffffffffffffffffffff1673ffffffffffffffffffffffffffffffffffffffff168152602001908152602001600020819055506000610e6630610cd9565b9050818110610e7f57610e7a30338461144b565b610eaa565b6000811115610e9457610e9330338361144b565b5b610ea9338284610ea49190611f2d565b611628565b5b3373ffffffffffffffffffffffffffffffffffffffff167f7fc4727e062e336010f2c282598ef5f14facb3de68cf8195c2f23e1454b2b74e836000604051610ef3929190612280565b60405180910390a25050565b60075481565b60007f0000000000000000000000000000000000000000000000000000000000000000905090565b606060048054610f3c90611e61565b80601f0160208091040260200160405190810160405280929190818152602001828054610f6890611e61565b8015610fb55780601f10610f8a57610100808354040283529160200191610fb5565b820191906000526020600020905b815481529060010190602001808311610f9857829003601f168201915b5050505050905090565b60008111611002576040517f08c379a0000000000000000000000000000000000000000000000000000000008152600401610ff9906122f5565b60405180910390fd5b61100d33308361144b565b80600560003373ffffffffffffffffffffffffffffffffffffffff1673ffffffffffffffffffffffffffffffffffffffff168152602001908152602001600020600082825461105c9190611fcd565b9250508190555042600660003373ffffffffffffffffffffffffffffffffffffffff1673ffffffffffffffffffffffffffffffffffffffff168152602001908152602001600020819055503373ffffffffffffffffffffffffffffffffffffffff167f9e71bc8eea02a63969f509818f2dafb9254532904319f9dbda79b67bd34a5f3d826040516110ed9190611c76565b60405180910390a250565b60008061110361139c565b905061111081858561144b565b600191505092915050565b6000600660003373ffffffffffffffffffffffffffffffffffffffff1673ffffffffffffffffffffffffffffffffffffffff168152602001908152602001600020549050600061116a3361153f565b9050600081116111af576040517f08c379a00000000000000000000000000000000000000000000000000000000081526004016111a690612361565b60405180910390fd5b60095482426111be9190611f2d565b10156111ff576040517f08c379a00000000000000000000000000000000000000000000000000000000081526004016111f690611fad565b60405180910390fd5b600061120a30610cd9565b90508181106112235761121e30338461144b565b61124e565b60008111156112385761123730338361144b565b5b61124d3382846112489190611f2d565b611628565b5b42600660003373ffffffffffffffffffffffffffffffffffffffff1673ffffffffffffffffffffffffffffffffffffffff168152602001908152602001600020819055503373ffffffffffffffffffffffffffffffffffffffff167f106f923f993c2149d49b4255ff723acafa1f2d94393f561d3eda32ae348f7241836040516112d89190611c76565b60405180910390a2505050565b60085481565b60066020528060005260406000206000915090505481565b6000600160008473ffffffffffffffffffffffffffffffffffffffff1673ffffffffffffffffffffffffffffffffffffffff16815260200190815260200160002060008373ffffffffffffffffffffffffffffffffffffffff1673ffffffffffffffffffffffffffffffffffffffff16815260200190815260200160002054905092915050565b60006113958261153f565b9050919050565b600033905090565b6113b183838360016116aa565b505050565b60006113c28484611303565b90507fffffffffffffffffffffffffffffffffffffffffffffffffffffffffffffffff8110156114455781811015611435578281836040517ffb8f41b200000000000000000000000000000000000000000000000000000000815260040161142c93929190612381565b60405180910390fd5b611444848484840360006116aa565b5b50505050565b600073ffffffffffffffffffffffffffffffffffffffff168373ffffffffffffffffffffffffffffffffffffffff16036114bd5760006040517f96c6fd1e0000000000000000000000000000000000000000000000000000000081526004016114b49190611daa565b60405180910390fd5b600073ffffffffffffffffffffffffffffffffffffffff168273ffffffffffffffffffffffffffffffffffffffff160361152f5760006040517fec442f050000000000000000000000000000000000000000000000000000000081526004016115269190611daa565b60405180910390fd5b61153a838383611881565b505050565b600080600560008473ffffffffffffffffffffffffffffffffffffffff1673ffffffffffffffffffffffffffffffffffffffff16815260200190815260200160002054905060008103611596576000915050611623565b6000600660008573ffffffffffffffffffffffffffffffffffffffff1673ffffffffffffffffffffffffffffffffffffffff16815260200190815260200160002054426115e39190611f2d565b9050670de0b6b3a76400006008546115fb91906123b8565b600754828461160a91906123b8565b61161491906123b8565b61161e9190612429565b925050505b919050565b600073ffffffffffffffffffffffffffffffffffffffff168273ffffffffffffffffffffffffffffffffffffffff160361169a5760006040517fec442f050000000000000000000000000000000000000000000000000000000081526004016116919190611daa565b60405180910390fd5b6116a660008383611881565b5050565b600073ffffffffffffffffffffffffffffffffffffffff168473ffffffffffffffffffffffffffffffffffffffff160361171c5760006040517fe602df050000000000000000000000000000000000000000000000000000000081526004016117139190611daa565b60405180910390fd5b600073ffffffffffffffffffffffffffffffffffffffff168373ffffffffffffffffffffffffffffffffffffffff160361178e5760006040517f94280d620000000000000000000000000000000000000000000000000000000081526004016117859190611daa565b60405180910390fd5b81600160008673ffffffffffffffffffffffffffffffffffffffff1673ffffffffffffffffffffffffffffffffffffffff16815260200190815260200160002060008573ffffffffffffffffffffffffffffffffffffffff1673ffffffffffffffffffffffffffffffffffffffff16815260200190815260200160002081905550801561187b578273ffffffffffffffffffffffffffffffffffffffff168473ffffffffffffffffffffffffffffffffffffffff167f8c5be1e5ebec7d5bd14f71427d1e84f3dd0314c0f7b2291e5b200ac8c7c3b925846040516118729190611c76565b60405180910390a35b50505050565b600073ffffffffffffffffffffffffffffffffffffffff168373ffffffffffffffffffffffffffffffffffffffff16036118d35780600260008282546118c79190611fcd565b925050819055506119a6565b60008060008573ffffffffffffffffffffffffffffffffffffffff1673ffffffffffffffffffffffffffffffffffffffff1681526020019081526020016000205490508181101561195f578381836040517fe450d38c00000000000000000000000000000000000000000000000000000000815260040161195693929190612381565b60405180910390fd5b8181036000808673ffffffffffffffffffffffffffffffffffffffff1673ffffffffffffffffffffffffffffffffffffffff16815260200190815260200160002081905550505b600073ffffffffffffffffffffffffffffffffffffffff168273ffffffffffffffffffffffffffffffffffffffff16036119ef5780600260008282540392505081905550611a3c565b806000808473ffffffffffffffffffffffffffffffffffffffff1673ffffffffffffffffffffffffffffffffffffffff168152602001908152602001600020600082825401925050819055505b8173ffffffffffffffffffffffffffffffffffffffff168373ffffffffffffffffffffffffffffffffffffffff167fddf252ad1be2c89b69c2b068fc378daa952ba7f163c4a11628f55a4df523b3ef83604051611a999190611c76565b60405180910390a3505050565b600081519050919050565b600082825260208201905092915050565b60005b83811015611ae0578082015181840152602081019050611ac5565b60008484015250505050565b6000601f19601f8301169050919050565b6000611b0882611aa6565b611b128185611ab1565b9350611b22818560208601611ac2565b611b2b81611aec565b840191505092915050565b60006020820190508181036000830152611b508184611afd565b905092915050565b600080fd5b600073ffffffffffffffffffffffffffffffffffffffff82169050919050565b6000611b8882611b5d565b9050919050565b611b9881611b7d565b8114611ba357600080fd5b50565b600081359050611bb581611b8f565b92915050565b6000819050919050565b611bce81611bbb565b8114611bd957600080fd5b50565b600081359050611beb81611bc5565b92915050565b60008060408385031215611c0857611c07611b58565b5b6000611c1685828601611ba6565b9250506020611c2785828601611bdc565b9150509250929050565b60008115159050919050565b611c4681611c31565b82525050565b6000602082019050611c616000830184611c3d565b92915050565b611c7081611bbb565b82525050565b6000602082019050611c8b6000830184611c67565b92915050565b600080600060608486031215611caa57611ca9611b58565b5b6000611cb886828701611ba6565b9350506020611cc986828701611ba6565b9250506040611cda86828701611bdc565b9150509250925092565b600060ff82169050919050565b611cfa81611ce4565b82525050565b6000602082019050611d156000830184611cf1565b92915050565b600060208284031215611d3157611d30611b58565b5b6000611d3f84828501611ba6565b91505092915050565b600080600060608486031215611d6157611d60611b58565b5b6000611d6f86828701611bdc565b9350506020611d8086828701611bdc565b9250506040611d9186828701611bdc565b9150509250925092565b611da481611b7d565b82525050565b6000602082019050611dbf6000830184611d9b565b92915050565b600060208284031215611ddb57611dda611b58565b5b6000611de984828501611bdc565b91505092915050565b60008060408385031215611e0957611e08611b58565b5b6000611e1785828601611ba6565b9250506020611e2885828601611ba6565b9150509250929050565b7f4e487b7100000000000000000000000000000000000000000000000000000000600052602260045260246000fd5b60006002820490506001821680611e7957607f821691505b602082108103611e8c57611e8b611e32565b5b50919050565b7f4e6f7468696e6720746f20756e7374616b650000000000000000000000000000600082015250565b6000611ec8601283611ab1565b9150611ed382611e92565b602082019050919050565b60006020820190508181036000830152611ef781611ebb565b9050919050565b7f4e487b7100000000000000000000000000000000000000000000000000000000600052601160045260246000fd5b6000611f3882611bbb565b9150611f4383611bbb565b9250828203905081811115611f5b57611f5a611efe565b5b92915050565b7f436c61696d206e6f7420616c6c6f776564207965740000000000000000000000600082015250565b6000611f97601583611ab1565b9150611fa282611f61565b602082019050919050565b60006020820190508181036000830152611fc681611f8a565b9050919050565b6000611fd882611bbb565b9150611fe383611bbb565b9250828201905080821115611ffb57611ffa611efe565b5b92915050565b60006040820190506120166000830185611c67565b6120236020830184611c67565b9392505050565b7f4e6f7420746865206f776e657200000000000000000000000000000000000000600082015250565b6000612060600d83611ab1565b915061206b8261202a565b602082019050919050565b6000602082019050818103600083015261208f81612053565b9050919050565b7f556e617574686f72697a6564206d696e74000000000000000000000000000000600082015250565b60006120cc601183611ab1565b91506120d782612096565b602082019050919050565b600060208201905081810360008301526120fb816120bf565b9050919050565b7f496e74657276616c206d757374206265203e2030000000000000000000000000600082015250565b6000612138601483611ab1565b915061214382612102565b602082019050919050565b600060208201905081810360008301526121678161212b565b9050919050565b600060c0820190506121836000830189611c67565b6121906020830188611c67565b61219d6040830187611c67565b6121aa6060830186611c67565b6121b76080830185611c67565b6121c460a0830184611c67565b979650505050505050565b7f4e6f2072657761726420746f20636f6d706f756e640000000000000000000000600082015250565b6000612205601583611ab1565b9150612210826121cf565b602082019050919050565b60006020820190508181036000830152612234816121f8565b9050919050565b6000819050919050565b6000819050919050565b600061226a6122656122608461223b565b612245565b611bbb565b9050919050565b61227a8161224f565b82525050565b60006040820190506122956000830185611c67565b6122a26020830184612271565b9392505050565b7f416d6f756e74206d757374206265203e20300000000000000000000000000000600082015250565b60006122df601283611ab1565b91506122ea826122a9565b602082019050919050565b6000602082019050818103600083015261230e816122d2565b9050919050565b7f4e6f2072657761726420746f20636c61696d0000000000000000000000000000600082015250565b600061234b601283611ab1565b915061235682612315565b602082019050919050565b6000602082019050818103600083015261237a8161233e565b9050919050565b60006060820190506123966000830186611d9b565b6123a36020830185611c67565b6123b06040830184611c67565b949350505050565b60006123c382611bbb565b91506123ce83611bbb565b92508282026123dc81611bbb565b915082820484148315176123f3576123f2611efe565b5b5092915050565b7f4e487b7100000000000000000000000000000000000000000000000000000000600052601260045260246000fd5b600061243482611bbb565b915061243f83611bbb565b92508261244f5761244e6123fa565b5b82820490509291505056fea264697066735822122094dfa9cbe4a160ce4fe57ffa0b5fea5f8eb6ddf65a3785c9e50386c70f3768c964736f6c634300081d0033",
  "linkReferences": {},
  "deployedLinkReferences": {}
}