{
  "_format": "hh-sol-artifact-1",
  "contractName": "MEAT",
  "sourceName": "contracts/MEAT.sol",
  "abi": [
    {
      "inputs": [],
      "stateMutability": "nonpayable",
      "type": "constructor"
    },
    {
      "inputs": [
        {
          "internalType": "address",
          "name": "spender",
          "type": "address"
        },
        {
          "internalType": "uint256",
          "name": "allowance",
          "type": "uint256"
        },
        {
          "internalType": "uint256",
          "name": "needed",
          "type": "uint256"
        }
      ],
      "name": "ERC20InsufficientAllowance",
      "type": "error"
    },
    {
      "inputs": [
        {
          "internalType": "address",
          "name": "sender",
          "type": "address"
        },
        {
          "internalType": "uint256",
          "name": "balance",
          "type": "uint256"
        },
        {
          "internalType": "uint256",
          "name": "needed",
          "type": "uint256"
        }
      ],
      "name": "ERC20InsufficientBalance",
      "type": "error"
    },
    {
      "inputs": [
        {
          "internalType": "address",
          "name": "approver",
          "type": "address"
        }
      ],
      "name": "ERC20InvalidApprover",
      "type": "error"
    },
    {
      "inputs": [
        {
          "internalType": "address",
          "name": "receiver",
          "type": "address"
        }
      ],
      "name": "ERC20InvalidReceiver",
      "type": "error"
    },
    {
      "inputs": [
        {
          "internalType": "address",
          "name": "sender",
          "type": "address"
        }
      ],
      "name": "ERC20InvalidSender",
      "type": "error"
    },
    {
      "inputs": [
        {
          "internalType": "address",
          "name": "spender",
          "type": "address"
        }
      ],
      "name": "ERC20InvalidSpender",
      "type": "error"
    },
    {
      "anonymous": false,
      "inputs": [
        {
          "indexed": true,
          "internalType": "address",
          "name": "owner",
          "type": "address"
        },
        {
          "indexed": true,
          "internalType": "address",
          "name": "spender",
          "type": "address"
        },
        {
          "indexed": false,
          "internalType": "uint256",
          "name": "value",
          "type": "uint256"
        }
      ],
      "name": "Approval",
      "type": "event"
    },
    {
      "anonymous": false,
      "inputs": [
        {
          "indexed": false,
          "internalType": "uint256",
          "name": "oldRate",
          "type": "uint256"
        },
        {
          "indexed": false,
          "internalType": "uint256",
          "name": "newRate",
          "type": "uint256"
        }
      ],
      "name": "DepositRateChanged",
      "type": "event"
    },
    {
      "anonymous": false,
      "inputs": [
        {
          "indexed": true,
          "internalType": "address",
          "name": "to",
          "type": "address"
        },
        {
          "indexed": false,
          "internalType": "uint256",
          "name": "amount",
          "type": "uint256"
        }
      ],
      "name": "InitialSupplyMinted",
      "type": "event"
    },
    {
      "anonymous": false,
      "inputs": [
        {
          "indexed": true,
          "internalType": "address",
          "name": "user",
          "type": "address"
        },
        {
          "indexed": false,
          "internalType": "uint256",
          "name": "amount",
          "type": "uint256"
        }
      ],
      "name": "MeatRedeemed",
      "type": "event"
    },
    {
      "anonymous": false,
      "inputs": [
        {
          "indexed": true,
          "internalType": "address",
          "name": "user",
          "type": "address"
        },
        {
          "indexed": false,
          "internalType": "uint256",
          "name": "nativeReceived",
          "type": "uint256"
        },
        {
          "indexed": false,
          "internalType": "uint256",
          "name": "meatMinted",
          "type": "uint256"
        }
      ],
      "name": "MintedWithNative",
      "type": "event"
    },
    {
      "anonymous": false,
      "inputs": [
        {
          "indexed": true,
          "internalType": "address",
          "name": "to",
          "type": "address"
        },
        {
          "indexed": false,
          "internalType": "uint256",
          "name": "amount",
          "type": "uint256"
        }
      ],
      "name": "NativeWithdrawn",
      "type": "event"
    },
    {
      "anonymous": false,
      "inputs": [
        {
          "indexed": true,
          "internalType": "address",
          "name": "oldAddress",
          "type": "address"
        },
        {
          "indexed": true,
          "internalType": "address",
          "name": "newAddress",
          "type": "address"
        }
      ],
      "name": "RateHandlerUpdated",
      "type": "event"
    },
    {
      "anonymous": false,
      "inputs": [
        {
          "indexed": true,
          "internalType": "address",
          "name": "from",
          "type": "address"
        },
        {
          "indexed": true,
          "internalType": "bytes32",
          "name": "subtype",
          "type": "bytes32"
        },
        {
          "indexed": false,
          "internalType": "uint256",
          "name": "amount",
          "type": "uint256"
        }
      ],
      "name": "SubtypeBurned",
      "type": "event"
    },
    {
      "anonymous": false,
      "inputs": [
        {
          "indexed": true,
          "internalType": "address",
          "name": "to",
          "type": "address"
        },
        {
          "indexed": true,
          "internalType": "bytes32",
          "name": "subtype",
          "type": "bytes32"
        },
        {
          "indexed": false,
          "internalType": "uint256",
          "name": "amount",
          "type": "uint256"
        }
      ],
      "name": "SubtypeMinted",
      "type": "event"
    },
    {
      "anonymous": false,
      "inputs": [
        {
          "indexed": true,
          "internalType": "address",
          "name": "from",
          "type": "address"
        },
        {
          "indexed": true,
          "internalType": "address",
          "name": "to",
          "type": "address"
        },
        {
          "indexed": false,
          "internalType": "uint256",
          "name": "value",
          "type": "uint256"
        }
      ],
      "name": "Transfer",
      "type": "event"
    },
    {
      "inputs": [],
      "name": "DEPOSIT_DIVISOR",
      "outputs": [
        {
          "internalType": "uint256",
          "name": "",
          "type": "uint256"
        }
      ],
      "stateMutability": "view",
      "type": "function"
    },
    {
      "inputs": [],
      "name": "DepositRate",
      "outputs": [
        {
          "internalType": "uint256",
          "name": "",
          "type": "uint256"
        }
      ],
      "stateMutability": "view",
      "type": "function"
    },
    {
      "inputs": [
        {
          "internalType": "address",
          "name": "owner",
          "type": "address"
        },
        {
          "internalType": "address",
          "name": "spender",
          "type": "address"
        }
      ],
      "name": "allowance",
      "outputs": [
        {
          "internalType": "uint256",
          "name": "",
          "type": "uint256"
        }
      ],
      "stateMutability": "view",
      "type": "function"
    },
    {
      "inputs": [
        {
          "internalType": "address",
          "name": "spender",
          "type": "address"
        },
        {
          "internalType": "uint256",
          "name": "value",
          "type": "uint256"
        }
      ],
      "name": "approve",
      "outputs": [
        {
          "internalType": "bool",
          "name": "",
          "type": "bool"
        }
      ],
      "stateMutability": "nonpayable",
      "type": "function"
    },
    {
      "inputs": [
        {
          "internalType": "address",
          "name": "account",
          "type": "address"
        }
      ],
      "name": "balanceOf",
      "outputs": [
        {
          "internalType": "uint256",
          "name": "",
          "type": "uint256"
        }
      ],
      "stateMutability": "view",
      "type": "function"
    },
    {
      "inputs": [
        {
          "internalType": "address",
          "name": "from",
          "type": "address"
        },
        {
          "internalType": "bytes32",
          "name": "subtype",
          "type": "bytes32"
        },
        {
          "internalType": "uint256",
          "name": "amount",
          "type": "uint256"
        }
      ],
      "name": "burnSubtype",
      "outputs": [],
      "stateMutability": "nonpayable",
      "type": "function"
    },
    {
      "inputs": [
        {
          "internalType": "uint256",
          "name": "newRate",
          "type": "uint256"
        }
      ],
      "name": "changeDepositRate",
      "outputs": [],
      "stateMutability": "nonpayable",
      "type": "function"
    },
    {
      "inputs": [],
      "name": "decimals",
      "outputs": [
        {
          "internalType": "uint8",
          "name": "",
          "type": "uint8"
        }
      ],
      "stateMutability": "view",
      "type": "function"
    },
    {
      "inputs": [
        {
          "internalType": "address",
          "name": "user",
          "type": "address"
        },
        {
          "internalType": "bytes32",
          "name": "subtype",
          "type": "bytes32"
        }
      ],
      "name": "getBalanceOfSubtype",
      "outputs": [
        {
          "internalType": "uint256",
          "name": "",
          "type": "uint256"
        }
      ],
      "stateMutability": "view",
      "type": "function"
    },
    {
      "inputs": [
        {
          "internalType": "bytes32",
          "name": "subtype",
          "type": "bytes32"
        }
      ],
      "name": "getTotalSupplyOfSubtype",
      "outputs": [
        {
          "internalType": "uint256",
          "name": "",
          "type": "uint256"
        }
      ],
      "stateMutability": "view",
      "type": "function"
    },
    {
      "inputs": [
        {
          "internalType": "address",
          "name": "",
          "type": "address"
        }
      ],
      "name": "isBurner",
      "outputs": [
        {
          "internalType": "bool",
          "name": "",
          "type": "bool"
        }
      ],
      "stateMutability": "view",
      "type": "function"
    },
    {
      "inputs": [
        {
          "internalType": "address",
          "name": "",
          "type": "address"
        }
      ],
      "name": "isMinter",
      "outputs": [
        {
          "internalType": "bool",
          "name": "",
          "type": "bool"
        }
      ],
      "stateMutability": "view",
      "type": "function"
    },
    {
      "inputs": [
        {
          "internalType": "address",
          "name": "to",
          "type": "address"
        },
        {
          "internalType": "bytes32",
          "name": "subtype",
          "type": "bytes32"
        },
        {
          "internalType": "uint256",
          "name": "amount",
          "type": "uint256"
        }
      ],
      "name": "mintSubtype",
      "outputs": [],
      "stateMutability": "nonpayable",
      "type": "function"
    },
    {
      "inputs": [],
      "name": "name",
      "outputs": [
        {
          "internalType": "string",
          "name": "",
          "type": "string"
        }
      ],
      "stateMutability": "view",
      "type": "function"
    },
    {
      "inputs": [],
      "name": "owner",
      "outputs": [
        {
          "internalType": "address",
          "name": "",
          "type": "address"
        }
      ],
      "stateMutability": "view",
      "type": "function"
    },
    {
      "inputs": [],
      "name": "rateHandler",
      "outputs": [
        {
          "internalType": "contract RateHandler",
          "name": "",
          "type": "address"
        }
      ],
      "stateMutability": "view",
      "type": "function"
    },
    {
      "inputs": [
        {
          "internalType": "uint256",
          "name": "amount",
          "type": "uint256"
        }
      ],
      "name": "redeemForMeat",
      "outputs": [],
      "stateMutability": "nonpayable",
      "type": "function"
    },
    {
      "inputs": [
        {
          "internalType": "address",
          "name": "account",
          "type": "address"
        },
        {
          "internalType": "bool",
          "name": "status",
          "type": "bool"
        }
      ],
      "name": "setBurner",
      "outputs": [],
      "stateMutability": "nonpayable",
      "type": "function"
    },
    {
      "inputs": [
        {
          "internalType": "address",
          "name": "account",
          "type": "address"
        },
        {
          "internalType": "bool",
          "name": "status",
          "type": "bool"
        }
      ],
      "name": "setMinter",
      "outputs": [],
      "stateMutability": "nonpayable",
      "type": "function"
    },
    {
      "inputs": [
        {
          "internalType": "address",
          "name": "rateHandlerAddress",
          "type": "address"
        }
      ],
      "name": "setRateHandler",
      "outputs": [],
      "stateMutability": "nonpayable",
      "type": "function"
    },
    {
      "inputs": [
        {
          "internalType": "address",
          "name": "",
          "type": "address"
        },
        {
          "internalType": "bytes32",
          "name": "",
          "type": "bytes32"
        }
      ],
      "name": "subtypeBalances",
      "outputs": [
        {
          "internalType": "uint256",
          "name": "",
          "type": "uint256"
        }
      ],
      "stateMutability": "view",
      "type": "function"
    },
    {
      "inputs": [
        {
          "internalType": "bytes32",
          "name": "",
          "type": "bytes32"
        }
      ],
      "name": "subtypeTotalSupply",
      "outputs": [
        {
          "internalType": "uint256",
          "name": "",
          "type": "uint256"
        }
      ],
      "stateMutability": "view",
      "type": "function"
    },
    {
      "inputs": [],
      "name": "symbol",
      "outputs": [
        {
          "internalType": "string",
          "name": "",
          "type": "string"
        }
      ],
      "stateMutability": "view",
      "type": "function"
    },
    {
      "inputs": [],
      "name": "totalSupply",
      "outputs": [
        {
          "internalType": "uint256",
          "name": "",
          "type": "uint256"
        }
      ],
      "stateMutability": "view",
      "type": "function"
    },
    {
      "inputs": [
        {
          "internalType": "address",
          "name": "to",
          "type": "address"
        },
        {
          "internalType": "uint256",
          "name": "value",
          "type": "uint256"
        }
      ],
      "name": "transfer",
      "outputs": [
        {
          "internalType": "bool",
          "name": "",
          "type": "bool"
        }
      ],
      "stateMutability": "nonpayable",
      "type": "function"
    },
    {
      "inputs": [
        {
          "internalType": "address",
          "name": "from",
          "type": "address"
        },
        {
          "internalType": "address",
          "name": "to",
          "type": "address"
        },
        {
          "internalType": "uint256",
          "name": "value",
          "type": "uint256"
        }
      ],
      "name": "transferFrom",
      "outputs": [
        {
          "internalType": "bool",
          "name": "",
          "type": "bool"
        }
      ],
      "stateMutability": "nonpayable",
      "type": "function"
    },
    {
      "inputs": [],
      "name": "withdrawNative",
      "outputs": [],
      "stateMutability": "nonpayable",
      "type": "function"
    },
    {
      "stateMutability": "payable",
      "type": "receive"
    }
  ],
  "bytecode": "0x60a06040523461045457604051606081016001600160401b0381118282101761035f576040908152602182527f4d61726b65742d456e61626c6564204167726963756c747572616c20546f6b656020830152603760f91b8282015280519081016001600160401b0381118282101761035f5760405260048152631351505560e21b602082015281516001600160401b03811161035f57600354600181811c9116801561044a575b602082101461033f57601f81116103e5575b50602092601f82116001146103805792819293600092610375575b50508160011b916000199060031b1c1916176003555b80516001600160401b03811161035f57600454600181811c91168015610355575b602082101461033f57601f81116102da575b50602091601f82116001146102765791819260009261026b575b50508160011b916000199060031b1c1916176004555b606460095533608052331561025557600254683635c9adc5dea00000810180911161023f5760025560003381528060205260408120683635c9adc5dea00000815401905560405190683635c9adc5dea0000082527fddf252ad1be2c89b69c2b068fc378daa952ba7f163c4a11628f55a4df523b3ef60203393a360018060a01b03608051167f0e9afdea29d93d82aeb661870b5f2ad12b3bd74d8526138188fe81fd920607ea6020604051683635c9adc5dea000008152a26040516112a7908161045a8239608051818181610309015281816106a8015281816108ce0152818161099901528181610cac0152610d760152f35b634e487b7160e01b600052601160045260246000fd5b63ec442f0560e01b600052600060045260246000fd5b015190503880610136565b601f198216926004600052806000209160005b8581106102c2575083600195106102a9575b505050811b0160045561014c565b015160001960f88460031b161c1916905538808061029b565b91926020600181928685015181550194019201610289565b60046000527f8a35acfbc15ff81a39ae7d344fd709f28e8600b4aa8c65c6b64bfe7fe36bd19b601f830160051c81019160208410610335575b601f0160051c01905b818110610329575061011c565b6000815560010161031c565b9091508190610313565b634e487b7160e01b600052602260045260246000fd5b90607f169061010a565b634e487b7160e01b600052604160045260246000fd5b0151905038806100d3565b601f198216936003600052806000209160005b8681106103cd57508360019596106103b4575b505050811b016003556100e9565b015160001960f88460031b161c191690553880806103a6565b91926020600181928685015181550194019201610393565b60036000527fc2575a0e9e593c00f959f8c92f12db2869c3395a3b0502d05e2516446f71f85b601f830160051c81019160208410610440575b601f0160051c01905b81811061043457506100b8565b60008155600101610427565b909150819061041e565b90607f16906100a6565b600080fdfe6080806040526004361015610165575b50361561001b57600080fd5b34156101145760095480340290348204036100fe576103e8900480156100c3573060005260006020526040600020548181101560001461009557506100618133306110cd565b6040519034825260208201527f5f04096cc8c6ee8d48a741bb08521c7f53c78b4f5f8f946baf110a223523f9a360403392a2005b6100a8816100ae926100b3575b836110c0565b33611213565b610061565b6100be8133306110cd565b6100a2565b60405162461bcd60e51b81526020600482015260136024820152724d696e7420616d6f756e7420746f6f206c6f7760681b6044820152606490fd5b634e487b7160e01b600052601160045260246000fd5b60405162461bcd60e51b815260206004820152602360248201527f4d7573742073656e64204e617469766520546f6b656e20746f206d696e74204d60448201526211505560ea1b6064820152608490fd5b60003560e01c90816306fdde0314610e5057508063095ea7b314610dca5780630d895ee114610d5e57806315c203d914610c9257806318160ddd14610c7457806323b872dd14610b875780632527bae314610b6957806327b6ec3114610849578063313ce56714610b4d5780633a94b9d614610b245780634334614a14610ae557806350431ce4146109865780635995627e146108af57806369625e74146104b557806370a08231146108755780637b974bfb146108495780637e605a66146107bd57806380839a1d146106d75780638da5cb5b146106925780639235e0c51461067557806395d89b411461056d578063a9059cbb1461053c578063aa271e1a146104fd578063aca0aa38146104b5578063bbe929271461035f578063cf456ae7146102f15763dd62ed3e1461029b573861000f565b346102ec5760403660031901126102ec576102b4610f55565b6102bc610f6b565b6001600160a01b039182166000908152600160209081526040808320949093168252928352819020549051908152f35b600080fd5b346102ec5761035d61030236610f81565b90610337337f00000000000000000000000000000000000000000000000000000000000000006001600160a01b031614610ffc565b60018060a01b0316600052600560205260406000209060ff801983541691151516179055565b005b346102ec5761036d36610fb0565b91909133600052600660205260ff604060002054161561048357610392831515611038565b61039d811515611076565b60018060a01b03821691826000526007602052604060002084600052602052816040600020541061043e57816104357fa09d49939f56edd6bbe4189c24c3aa41b7c41607a1c172ac28241937e9265914936020938660005260078552604060002088600052855260406000206104148382546110c0565b90558760005260088552604060002061042e8382546110c0565b9055611192565b604051908152a3005b60405162461bcd60e51b815260206004820152601c60248201527f496e73756666696369656e7420737562747970652062616c616e6365000000006044820152606490fd5b60405162461bcd60e51b815260206004820152600a6024820152692737ba10313ab93732b960b11b6044820152606490fd5b346102ec5760403660031901126102ec576001600160a01b036104d6610f55565b16600052600760205260406000206024356000526020526020604060002054604051908152f35b346102ec5760203660031901126102ec576001600160a01b0361051e610f55565b166000526005602052602060ff604060002054166040519015158152f35b346102ec5760403660031901126102ec57610562610558610f55565b60243590336110cd565b602060405160018152f35b346102ec5760003660031901126102ec5760405160006004548060011c9060018116801561066b575b6020831081146106575782855290811561063357506001146105d3575b6105cf836105c381850382610fda565b60405191829182610f0c565b0390f35b91905060046000527f8a35acfbc15ff81a39ae7d344fd709f28e8600b4aa8c65c6b64bfe7fe36bd19b916000905b808210610619575090915081016020016105c36105b3565b919260018160209254838588010152019101909291610601565b60ff191660208086019190915291151560051b840190910191506105c390506105b3565b634e487b7160e01b84526022600452602484fd5b91607f1691610596565b346102ec5760003660031901126102ec5760206040516103e88152f35b346102ec5760003660031901126102ec576040517f00000000000000000000000000000000000000000000000000000000000000006001600160a01b03168152602090f35b346102ec576106e536610fb0565b91909133600052600560205260ff604060002054161561078b5760207f4d9c7eb2147a9d92f13ceb5ad7faf075ea8e4fb1ae54beb3e03a6d5631bc83dc9161072e851515611038565b610739811515611076565b6104358160018060a01b0386169586600052600785526040600020886000528552604060002061076a8382546110b3565b9055876000526008855260406000206107848382546110b3565b9055611213565b60405162461bcd60e51b815260206004820152600a6024820152692737ba1036b4b73a32b960b11b6044820152606490fd5b346102ec5760203660031901126102ec57600435801561080f576107e18133611192565b6040519081527f95ba5027b47b8fe4434fd2d984ba1404159af0f28901006cfb4d763f5a27b8b660203392a2005b60405162461bcd60e51b81526020600482015260126024820152710416d6f756e74206d757374206265203e20360741b6044820152606490fd5b346102ec5760203660031901126102ec5760043560005260086020526020604060002054604051908152f35b346102ec5760203660031901126102ec576001600160a01b03610896610f55565b1660005260006020526020604060002054604051908152f35b346102ec5760203660031901126102ec576108c8610f55565b6108fc337f00000000000000000000000000000000000000000000000000000000000000006001600160a01b031614610ffc565b6001600160a01b0316801561094f57600a80546001600160a01b0319811683179091556001600160a01b03167f74c403300cf3c4677e574cb2de0bc0e16731e061ef7657aeaaf47c6b524331af600080a3005b60405162461bcd60e51b815260206004820152600f60248201526e496e76616c6964206164647265737360881b6044820152606490fd5b346102ec5760003660031901126102ec577f00000000000000000000000000000000000000000000000000000000000000006001600160a01b03166109cc338214610ffc565b478015610aa057600080808084865af13d15610a9b573d67ffffffffffffffff8111610a855760405190610a0a601f8201601f191660200183610fda565b8152600060203d92013e5b15610a475760207fc303ca808382409472acbbf899c316cf439f409f6584aae22df86dfa3c9ed50491604051908152a2005b60405162461bcd60e51b815260206004820152601660248201527513985d1a5d99481d1c985b9cd9995c8819985a5b195960521b6044820152606490fd5b634e487b7160e01b600052604160045260246000fd5b610a15565b60405162461bcd60e51b815260206004820152601b60248201527f4e6f204e617469766520546f6b656e20746f20776974686472617700000000006044820152606490fd5b346102ec5760203660031901126102ec576001600160a01b03610b06610f55565b166000526006602052602060ff604060002054166040519015158152f35b346102ec5760003660031901126102ec57600a546040516001600160a01b039091168152602090f35b346102ec5760003660031901126102ec57602060405160128152f35b346102ec5760003660031901126102ec576020600954604051908152f35b346102ec5760603660031901126102ec57610ba0610f55565b610ba8610f6b565b6001600160a01b0382166000818152600160209081526040808320338452909152902054909260443592916000198110610be8575b5061056293506110cd565b838110610c57578415610c41573315610c2b57610562946000526001602052604060002060018060a01b0333166000526020528360406000209103905584610bdd565b634a1406b160e11b600052600060045260246000fd5b63e602df0560e01b600052600060045260246000fd5b8390637dc7a0d960e11b6000523360045260245260445260646000fd5b346102ec5760003660031901126102ec576020600254604051908152f35b346102ec5760203660031901126102ec57600435610cda337f00000000000000000000000000000000000000000000000000000000000000006001600160a01b031614610ffc565b8015610d195760407f7aaf6e876013942206286cfff5091af2fa84c63a6f07b849acdc1e7eb91780c091600954908060095582519182526020820152a1005b60405162461bcd60e51b815260206004820152601e60248201527f52617465206d7573742062652067726561746572207468616e207a65726f00006044820152606490fd5b346102ec5761035d610d6f36610f81565b90610da4337f00000000000000000000000000000000000000000000000000000000000000006001600160a01b031614610ffc565b60018060a01b0316600052600660205260406000209060ff801983541691151516179055565b346102ec5760403660031901126102ec57610de3610f55565b602435903315610c41576001600160a01b0316908115610c2b57336000526001602052604060002082600052602052806040600020556040519081527f8c5be1e5ebec7d5bd14f71427d1e84f3dd0314c0f7b2291e5b200ac8c7c3b92560203392a3602060405160018152f35b346102ec5760003660031901126102ec5760006003548060011c90600181168015610f02575b602083108114610657578285529081156106335750600114610ea2576105cf836105c381850382610fda565b91905060036000527fc2575a0e9e593c00f959f8c92f12db2869c3395a3b0502d05e2516446f71f85b916000905b808210610ee8575090915081016020016105c36105b3565b919260018160209254838588010152019101909291610ed0565b91607f1691610e76565b91909160208152825180602083015260005b818110610f3f575060409293506000838284010152601f8019910116010190565b8060208092870101516040828601015201610f1e565b600435906001600160a01b03821682036102ec57565b602435906001600160a01b03821682036102ec57565b60409060031901126102ec576004356001600160a01b03811681036102ec579060243580151581036102ec5790565b60609060031901126102ec576004356001600160a01b03811681036102ec57906024359060443590565b90601f8019910116810190811067ffffffffffffffff821117610a8557604052565b1561100357565b60405162461bcd60e51b815260206004820152600d60248201526c2737ba103a34329037bbb732b960991b6044820152606490fd5b1561103f57565b60405162461bcd60e51b815260206004820152600f60248201526e496e76616c6964207375627479706560881b6044820152606490fd5b1561107d57565b60405162461bcd60e51b815260206004820152600e60248201526d125b9d985b1a5908185b5bdd5b9d60921b6044820152606490fd5b919082018092116100fe57565b919082039182116100fe57565b6001600160a01b031690811561117c576001600160a01b031691821561116657600082815280602052604081205482811061114c5791604082827fddf252ad1be2c89b69c2b068fc378daa952ba7f163c4a11628f55a4df523b3ef958760209652828652038282205586815280845220818154019055604051908152a3565b916064928463391434e360e21b8452600452602452604452fd5b63ec442f0560e01b600052600060045260246000fd5b634b637e8f60e11b600052600060045260246000fd5b6001600160a01b0316801561117c576000918183528260205260408320548181106111fa57817fddf252ad1be2c89b69c2b068fc378daa952ba7f163c4a11628f55a4df523b3ef926020928587528684520360408620558060025403600255604051908152a3565b6064939263391434e360e21b8452600452602452604452fd5b6001600160a01b03169081156111665761122f816002546110b3565b6002557fddf252ad1be2c89b69c2b068fc378daa952ba7f163c4a11628f55a4df523b3ef602060009284845283825260408420818154019055604051908152a356fea264697066735822122083520190f921fde632451453bf826773e23809e60e1630afab61311b6e79573264736f6c634300081d0033",
  "linkReferences": {},
  "deployedLinkReferences": {}
}