{
  "_format": "hh-sol-artifact-1",
  "contractName": "MEAT",
  "sourceName": "contracts/MEAT.sol",
  "abi": [
    {
      "inputs": [],
      "stateMutability": "nonpayable",
      "type": "constructor"
    },
    {
      "inputs": [
        {
          "internalType": "address",
          "name": "spender",
          "type": "address"
        },
        {
          "internalType": "uint256",
          "name": "allowance",
          "type": "uint256"
        },
        {
          "internalType": "uint256",
          "name": "needed",
          "type": "uint256"
        }
      ],
      "name": "ERC20InsufficientAllowance",
      "type": "error"
    },
    {
      "inputs": [
        {
          "internalType": "address",
          "name": "sender",
          "type": "address"
        },
        {
          "internalType": "uint256",
          "name": "balance",
          "type": "uint256"
        },
        {
          "internalType": "uint256",
          "name": "needed",
          "type": "uint256"
        }
      ],
      "name": "ERC20InsufficientBalance",
      "type": "error"
    },
    {
      "inputs": [
        {
          "internalType": "address",
          "name": "approver",
          "type": "address"
        }
      ],
      "name": "ERC20InvalidApprover",
      "type": "error"
    },
    {
      "inputs": [
        {
          "internalType": "address",
          "name": "receiver",
          "type": "address"
        }
      ],
      "name": "ERC20InvalidReceiver",
      "type": "error"
    },
    {
      "inputs": [
        {
          "internalType": "address",
          "name": "sender",
          "type": "address"
        }
      ],
      "name": "ERC20InvalidSender",
      "type": "error"
    },
    {
      "inputs": [
        {
          "internalType": "address",
          "name": "spender",
          "type": "address"
        }
      ],
      "name": "ERC20InvalidSpender",
      "type": "error"
    },
    {
      "anonymous": false,
      "inputs": [
        {
          "indexed": true,
          "internalType": "address",
          "name": "owner",
          "type": "address"
        },
        {
          "indexed": true,
          "internalType": "address",
          "name": "spender",
          "type": "address"
        },
        {
          "indexed": false,
          "internalType": "uint256",
          "name": "value",
          "type": "uint256"
        }
      ],
      "name": "Approval",
      "type": "event"
    },
    {
      "anonymous": false,
      "inputs": [
        {
          "indexed": false,
          "internalType": "uint256",
          "name": "oldRate",
          "type": "uint256"
        },
        {
          "indexed": false,
          "internalType": "uint256",
          "name": "newRate",
          "type": "uint256"
        }
      ],
      "name": "DepositRateChanged",
      "type": "event"
    },
    {
      "anonymous": false,
      "inputs": [
        {
          "indexed": true,
          "internalType": "address",
          "name": "to",
          "type": "address"
        },
        {
          "indexed": false,
          "internalType": "uint256",
          "name": "amount",
          "type": "uint256"
        }
      ],
      "name": "InitialSupplyMinted",
      "type": "event"
    },
    {
      "anonymous": false,
      "inputs": [
        {
          "indexed": true,
          "internalType": "address",
          "name": "user",
          "type": "address"
        },
        {
          "indexed": false,
          "internalType": "uint256",
          "name": "amount",
          "type": "uint256"
        }
      ],
      "name": "MeatRedeemed",
      "type": "event"
    },
    {
      "anonymous": false,
      "inputs": [
        {
          "indexed": true,
          "internalType": "address",
          "name": "user",
          "type": "address"
        },
        {
          "indexed": false,
          "internalType": "uint256",
          "name": "nativeReceived",
          "type": "uint256"
        },
        {
          "indexed": false,
          "internalType": "uint256",
          "name": "meatMinted",
          "type": "uint256"
        }
      ],
      "name": "MintedWithNative",
      "type": "event"
    },
    {
      "anonymous": false,
      "inputs": [
        {
          "indexed": true,
          "internalType": "address",
          "name": "to",
          "type": "address"
        },
        {
          "indexed": false,
          "internalType": "uint256",
          "name": "amount",
          "type": "uint256"
        }
      ],
      "name": "NativeWithdrawn",
      "type": "event"
    },
    {
      "anonymous": false,
      "inputs": [
        {
          "indexed": true,
          "internalType": "address",
          "name": "oldAddress",
          "type": "address"
        },
        {
          "indexed": true,
          "internalType": "address",
          "name": "newAddress",
          "type": "address"
        }
      ],
      "name": "RateHandlerUpdated",
      "type": "event"
    },
    {
      "anonymous": false,
      "inputs": [
        {
          "indexed": true,
          "internalType": "address",
          "name": "from",
          "type": "address"
        },
        {
          "indexed": true,
          "internalType": "bytes32",
          "name": "subtype",
          "type": "bytes32"
        },
        {
          "indexed": false,
          "internalType": "uint256",
          "name": "amount",
          "type": "uint256"
        }
      ],
      "name": "SubtypeBurned",
      "type": "event"
    },
    {
      "anonymous": false,
      "inputs": [
        {
          "indexed": true,
          "internalType": "address",
          "name": "user",
          "type": "address"
        },
        {
          "indexed": true,
          "internalType": "bytes32",
          "name": "subtype",
          "type": "bytes32"
        },
        {
          "indexed": false,
          "internalType": "uint256",
          "name": "lineageID",
          "type": "uint256"
        }
      ],
      "name": "SubtypeLineageUpdated",
      "type": "event"
    },
    {
      "anonymous": false,
      "inputs": [
        {
          "indexed": true,
          "internalType": "address",
          "name": "to",
          "type": "address"
        },
        {
          "indexed": true,
          "internalType": "bytes32",
          "name": "subtype",
          "type": "bytes32"
        },
        {
          "indexed": false,
          "internalType": "uint256",
          "name": "amount",
          "type": "uint256"
        }
      ],
      "name": "SubtypeMinted",
      "type": "event"
    },
    {
      "anonymous": false,
      "inputs": [
        {
          "indexed": true,
          "internalType": "address",
          "name": "from",
          "type": "address"
        },
        {
          "indexed": true,
          "internalType": "address",
          "name": "to",
          "type": "address"
        },
        {
          "indexed": false,
          "internalType": "uint256",
          "name": "value",
          "type": "uint256"
        }
      ],
      "name": "Transfer",
      "type": "event"
    },
    {
      "inputs": [],
      "name": "DEPOSIT_DIVISOR",
      "outputs": [
        {
          "internalType": "uint256",
          "name": "",
          "type": "uint256"
        }
      ],
      "stateMutability": "view",
      "type": "function"
    },
    {
      "inputs": [],
      "name": "DepositRate",
      "outputs": [
        {
          "internalType": "uint256",
          "name": "",
          "type": "uint256"
        }
      ],
      "stateMutability": "view",
      "type": "function"
    },
    {
      "inputs": [
        {
          "internalType": "address",
          "name": "owner",
          "type": "address"
        },
        {
          "internalType": "address",
          "name": "spender",
          "type": "address"
        }
      ],
      "name": "allowance",
      "outputs": [
        {
          "internalType": "uint256",
          "name": "",
          "type": "uint256"
        }
      ],
      "stateMutability": "view",
      "type": "function"
    },
    {
      "inputs": [
        {
          "internalType": "address",
          "name": "spender",
          "type": "address"
        },
        {
          "internalType": "uint256",
          "name": "value",
          "type": "uint256"
        }
      ],
      "name": "approve",
      "outputs": [
        {
          "internalType": "bool",
          "name": "",
          "type": "bool"
        }
      ],
      "stateMutability": "nonpayable",
      "type": "function"
    },
    {
      "inputs": [
        {
          "internalType": "address",
          "name": "account",
          "type": "address"
        }
      ],
      "name": "balanceOf",
      "outputs": [
        {
          "internalType": "uint256",
          "name": "",
          "type": "uint256"
        }
      ],
      "stateMutability": "view",
      "type": "function"
    },
    {
      "inputs": [
        {
          "internalType": "address",
          "name": "user",
          "type": "address"
        },
        {
          "internalType": "bytes32",
          "name": "subtype",
          "type": "bytes32"
        }
      ],
      "name": "balanceOfSubtypeWithLineage",
      "outputs": [
        {
          "internalType": "uint256",
          "name": "balance",
          "type": "uint256"
        },
        {
          "internalType": "uint256",
          "name": "lineageID",
          "type": "uint256"
        }
      ],
      "stateMutability": "view",
      "type": "function"
    },
    {
      "inputs": [
        {
          "internalType": "address",
          "name": "from",
          "type": "address"
        },
        {
          "internalType": "bytes32",
          "name": "subtype",
          "type": "bytes32"
        },
        {
          "internalType": "uint256",
          "name": "amount",
          "type": "uint256"
        }
      ],
      "name": "burnSubtype",
      "outputs": [],
      "stateMutability": "nonpayable",
      "type": "function"
    },
    {
      "inputs": [
        {
          "internalType": "uint256",
          "name": "newRate",
          "type": "uint256"
        }
      ],
      "name": "changeDepositRate",
      "outputs": [],
      "stateMutability": "nonpayable",
      "type": "function"
    },
    {
      "inputs": [],
      "name": "decimals",
      "outputs": [
        {
          "internalType": "uint8",
          "name": "",
          "type": "uint8"
        }
      ],
      "stateMutability": "view",
      "type": "function"
    },
    {
      "inputs": [
        {
          "internalType": "address",
          "name": "user",
          "type": "address"
        },
        {
          "internalType": "bytes32",
          "name": "subtype",
          "type": "bytes32"
        }
      ],
      "name": "getBalanceOfSubtype",
      "outputs": [
        {
          "internalType": "uint256",
          "name": "",
          "type": "uint256"
        }
      ],
      "stateMutability": "view",
      "type": "function"
    },
    {
      "inputs": [
        {
          "internalType": "bytes32",
          "name": "subtype",
          "type": "bytes32"
        }
      ],
      "name": "getTotalSupplyOfSubtype",
      "outputs": [
        {
          "internalType": "uint256",
          "name": "",
          "type": "uint256"
        }
      ],
      "stateMutability": "view",
      "type": "function"
    },
    {
      "inputs": [
        {
          "internalType": "address",
          "name": "",
          "type": "address"
        }
      ],
      "name": "isBurner",
      "outputs": [
        {
          "internalType": "bool",
          "name": "",
          "type": "bool"
        }
      ],
      "stateMutability": "view",
      "type": "function"
    },
    {
      "inputs": [
        {
          "internalType": "address",
          "name": "",
          "type": "address"
        }
      ],
      "name": "isMinter",
      "outputs": [
        {
          "internalType": "bool",
          "name": "",
          "type": "bool"
        }
      ],
      "stateMutability": "view",
      "type": "function"
    },
    {
      "inputs": [
        {
          "internalType": "address",
          "name": "to",
          "type": "address"
        },
        {
          "internalType": "bytes32",
          "name": "subtype",
          "type": "bytes32"
        },
        {
          "internalType": "uint256",
          "name": "amount",
          "type": "uint256"
        }
      ],
      "name": "mintSubtype",
      "outputs": [],
      "stateMutability": "nonpayable",
      "type": "function"
    },
    {
      "inputs": [],
      "name": "name",
      "outputs": [
        {
          "internalType": "string",
          "name": "",
          "type": "string"
        }
      ],
      "stateMutability": "view",
      "type": "function"
    },
    {
      "inputs": [],
      "name": "owner",
      "outputs": [
        {
          "internalType": "address",
          "name": "",
          "type": "address"
        }
      ],
      "stateMutability": "view",
      "type": "function"
    },
    {
      "inputs": [],
      "name": "rateHandler",
      "outputs": [
        {
          "internalType": "contract RateHandler",
          "name": "",
          "type": "address"
        }
      ],
      "stateMutability": "view",
      "type": "function"
    },
    {
      "inputs": [
        {
          "internalType": "uint256",
          "name": "amount",
          "type": "uint256"
        }
      ],
      "name": "redeemForMeat",
      "outputs": [],
      "stateMutability": "nonpayable",
      "type": "function"
    },
    {
      "inputs": [
        {
          "internalType": "address",
          "name": "account",
          "type": "address"
        },
        {
          "internalType": "bool",
          "name": "status",
          "type": "bool"
        }
      ],
      "name": "setBurner",
      "outputs": [],
      "stateMutability": "nonpayable",
      "type": "function"
    },
    {
      "inputs": [
        {
          "internalType": "address",
          "name": "account",
          "type": "address"
        },
        {
          "internalType": "bool",
          "name": "status",
          "type": "bool"
        }
      ],
      "name": "setMinter",
      "outputs": [],
      "stateMutability": "nonpayable",
      "type": "function"
    },
    {
      "inputs": [
        {
          "internalType": "address",
          "name": "rateHandlerAddress",
          "type": "address"
        }
      ],
      "name": "setRateHandler",
      "outputs": [],
      "stateMutability": "nonpayable",
      "type": "function"
    },
    {
      "inputs": [
        {
          "internalType": "address",
          "name": "user",
          "type": "address"
        },
        {
          "internalType": "bytes32",
          "name": "subtype",
          "type": "bytes32"
        },
        {
          "internalType": "uint256",
          "name": "lineageID",
          "type": "uint256"
        }
      ],
      "name": "setSubtypeLineage",
      "outputs": [],
      "stateMutability": "nonpayable",
      "type": "function"
    },
    {
      "inputs": [
        {
          "internalType": "address",
          "name": "",
          "type": "address"
        },
        {
          "internalType": "bytes32",
          "name": "",
          "type": "bytes32"
        }
      ],
      "name": "subtypeBalances",
      "outputs": [
        {
          "internalType": "uint256",
          "name": "balance",
          "type": "uint256"
        },
        {
          "internalType": "uint256",
          "name": "lineageID",
          "type": "uint256"
        }
      ],
      "stateMutability": "view",
      "type": "function"
    },
    {
      "inputs": [
        {
          "internalType": "bytes32",
          "name": "",
          "type": "bytes32"
        }
      ],
      "name": "subtypeTotalSupply",
      "outputs": [
        {
          "internalType": "uint256",
          "name": "",
          "type": "uint256"
        }
      ],
      "stateMutability": "view",
      "type": "function"
    },
    {
      "inputs": [],
      "name": "symbol",
      "outputs": [
        {
          "internalType": "string",
          "name": "",
          "type": "string"
        }
      ],
      "stateMutability": "view",
      "type": "function"
    },
    {
      "inputs": [],
      "name": "totalSupply",
      "outputs": [
        {
          "internalType": "uint256",
          "name": "",
          "type": "uint256"
        }
      ],
      "stateMutability": "view",
      "type": "function"
    },
    {
      "inputs": [
        {
          "internalType": "address",
          "name": "to",
          "type": "address"
        },
        {
          "internalType": "uint256",
          "name": "value",
          "type": "uint256"
        }
      ],
      "name": "transfer",
      "outputs": [
        {
          "internalType": "bool",
          "name": "",
          "type": "bool"
        }
      ],
      "stateMutability": "nonpayable",
      "type": "function"
    },
    {
      "inputs": [
        {
          "internalType": "address",
          "name": "from",
          "type": "address"
        },
        {
          "internalType": "address",
          "name": "to",
          "type": "address"
        },
        {
          "internalType": "uint256",
          "name": "value",
          "type": "uint256"
        }
      ],
      "name": "transferFrom",
      "outputs": [
        {
          "internalType": "bool",
          "name": "",
          "type": "bool"
        }
      ],
      "stateMutability": "nonpayable",
      "type": "function"
    },
    {
      "inputs": [],
      "name": "withdrawNative",
      "outputs": [],
      "stateMutability": "nonpayable",
      "type": "function"
    },
    {
      "stateMutability": "payable",
      "type": "receive"
    }
  ],
  "bytecode": "0x60a06040523461045b57604051606081016001600160401b03811182821017610366576040908152602182527f4d61726b65742d456e61626c6564204167726963756c747572616c20546f6b656020830152603760f91b8282015280519081016001600160401b038111828210176103665760405260048152631351505560e21b602082015281516001600160401b03811161036657600354600181811c91168015610451575b602082101461034657601f81116103ec575b50602092601f8211600114610387579281929360009261037c575b50508160011b916000199060031b1c1916176003555b80516001600160401b03811161036657600454600181811c9116801561035c575b602082101461034657601f81116102e1575b50602091601f821160011461027d57918192600092610272575b50508160011b916000199060031b1c1916176004555b606460095533608052331561025c57600254683635c9adc5dea0000081018091116102465760025560003381528060205260408120683635c9adc5dea00000815401905560405190683635c9adc5dea0000082527fddf252ad1be2c89b69c2b068fc378daa952ba7f163c4a11628f55a4df523b3ef60203393a360018060a01b03608051167f0e9afdea29d93d82aeb661870b5f2ad12b3bd74d8526138188fe81fd920607ea6020604051683635c9adc5dea000008152a26040516113e39081610461823960805181818161031f015281816106b201528181610803015281816109b801528181610a8301528181610d960152610e600152f35b634e487b7160e01b600052601160045260246000fd5b63ec442f0560e01b600052600060045260246000fd5b015190503880610136565b601f198216926004600052806000209160005b8581106102c9575083600195106102b0575b505050811b0160045561014c565b015160001960f88460031b161c191690553880806102a2565b91926020600181928685015181550194019201610290565b60046000527f8a35acfbc15ff81a39ae7d344fd709f28e8600b4aa8c65c6b64bfe7fe36bd19b601f830160051c8101916020841061033c575b601f0160051c01905b818110610330575061011c565b60008155600101610323565b909150819061031a565b634e487b7160e01b600052602260045260246000fd5b90607f169061010a565b634e487b7160e01b600052604160045260246000fd5b0151905038806100d3565b601f198216936003600052806000209160005b8681106103d457508360019596106103bb575b505050811b016003556100e9565b015160001960f88460031b161c191690553880806103ad565b9192602060018192868501518155019401920161039a565b60036000527fc2575a0e9e593c00f959f8c92f12db2869c3395a3b0502d05e2516446f71f85b601f830160051c81019160208410610447575b601f0160051c01905b81811061043b57506100b8565b6000815560010161042e565b9091508190610425565b90607f16906100a6565b600080fdfe6080806040526004361015610165575b50361561001b57600080fd5b34156101145760095480340290348204036100fe576103e8900480156100c357306000526000602052604060002054818110156000146100955750610061813330611209565b6040519034825260208201527f5f04096cc8c6ee8d48a741bb08521c7f53c78b4f5f8f946baf110a223523f9a360403392a2005b6100a8816100ae926100b3575b836111fc565b3361134f565b610061565b6100be813330611209565b6100a2565b60405162461bcd60e51b81526020600482015260136024820152724d696e7420616d6f756e7420746f6f206c6f7760681b6044820152606490fd5b634e487b7160e01b600052601160045260246000fd5b60405162461bcd60e51b815260206004820152602360248201527f4d7573742073656e64204e617469766520546f6b656e20746f206d696e74204d60448201526211505560ea1b6064820152608490fd5b60003560e01c90816303f49dd614610ff95750806306fdde0314610f3a578063095ea7b314610eb45780630d895ee114610e4857806315c203d914610d7c57806318160ddd14610d5e57806323b872dd14610c715780632527bae314610c5357806327b6ec31146108eb578063313ce56714610c375780633a94b9d614610c0e5780634334614a14610bcf57806350431ce414610a705780635995627e1461099957806369625e741461095157806370a08231146109175780637b974bfb146108eb5780637e605a661461085f5780637eb2d02f146107c757806380839a1d146106e15780638da5cb5b1461069c5780639235e0c51461067f57806395d89b4114610577578063a9059cbb14610546578063aa271e1a14610507578063aca0aa38146104b6578063bbe9292714610375578063cf456ae7146103075763dd62ed3e146102b1573861000f565b34610302576040366003190112610302576102ca611048565b6102d261105e565b6001600160a01b039182166000908152600160209081526040808320949093168252928352819020549051908152f35b600080fd5b3461030257610373610318366110bd565b9061034d337f00000000000000000000000000000000000000000000000000000000000000006001600160a01b031614611138565b60018060a01b0316600052600560205260406000209060ff801983541691151516179055565b005b3461030257610383366110ec565b91909133600052600660205260ff6040600020541615610484576103a8831515611174565b6103b38115156111b2565b60018060a01b0382169182600052600760205260406000208460005260205260406000209182549281841061043f578160209361043692610415837fa09d49939f56edd6bbe4189c24c3aa41b7c41607a1c172ac28241937e9265914986111fc565b90558760005260088552604060002061042f8382546111fc565b90556112ce565b604051908152a3005b60405162461bcd60e51b815260206004820152601c60248201527f496e73756666696369656e7420737562747970652062616c616e6365000000006044820152606490fd5b60405162461bcd60e51b815260206004820152600a6024820152692737ba10313ab93732b960b11b6044820152606490fd5b34610302576040366003190112610302576001600160a01b036104d7611048565b16600052600760205260406000206024356000526020526040806000206001815491015482519182526020820152f35b34610302576020366003190112610302576001600160a01b03610528611048565b166000526005602052602060ff604060002054166040519015158152f35b346103025760403660031901126103025761056c610562611048565b6024359033611209565b602060405160018152f35b346103025760003660031901126103025760405160006004548060011c90600181168015610675575b6020831081146106615782855290811561063d57506001146105dd575b6105d9836105cd81850382611116565b60405191829182611074565b0390f35b91905060046000527f8a35acfbc15ff81a39ae7d344fd709f28e8600b4aa8c65c6b64bfe7fe36bd19b916000905b808210610623575090915081016020016105cd6105bd565b91926001816020925483858801015201910190929161060b565b60ff191660208086019190915291151560051b840190910191506105cd90506105bd565b634e487b7160e01b84526022600452602484fd5b91607f16916105a0565b346103025760003660031901126103025760206040516103e88152f35b34610302576000366003190112610302576040517f00000000000000000000000000000000000000000000000000000000000000006001600160a01b03168152602090f35b34610302576106ef366110ec565b91909133600052600560205260ff60406000205416156107955760207f4d9c7eb2147a9d92f13ceb5ad7faf075ea8e4fb1ae54beb3e03a6d5631bc83dc91610738851515611174565b6107438115156111b2565b6104368160018060a01b038616958660005260078552604060002088600052855260406000206107748382546111ef565b90558760005260088552604060002061078e8382546111ef565b905561134f565b60405162461bcd60e51b815260206004820152600a6024820152692737ba1036b4b73a32b960b11b6044820152606490fd5b346103025760207ff3dbe5c18d228fa4d94430ec5cc4d98cd443bbcf8f603e7b94accc254499b1e96107f8366110ec565b9093909291610831337f00000000000000000000000000000000000000000000000000000000000000006001600160a01b031614611138565b6001600160a01b031660008181526007835260408082208783528452908190206001018590555193845292a3005b346103025760203660031901126103025760043580156108b15761088381336112ce565b6040519081527f95ba5027b47b8fe4434fd2d984ba1404159af0f28901006cfb4d763f5a27b8b660203392a2005b60405162461bcd60e51b81526020600482015260126024820152710416d6f756e74206d757374206265203e20360741b6044820152606490fd5b346103025760203660031901126103025760043560005260086020526020604060002054604051908152f35b34610302576020366003190112610302576001600160a01b03610938611048565b1660005260006020526020604060002054604051908152f35b34610302576040366003190112610302576001600160a01b03610972611048565b16600052600760205260406000206024356000526020526020604060002054604051908152f35b34610302576020366003190112610302576109b2611048565b6109e6337f00000000000000000000000000000000000000000000000000000000000000006001600160a01b031614611138565b6001600160a01b03168015610a3957600a80546001600160a01b0319811683179091556001600160a01b03167f74c403300cf3c4677e574cb2de0bc0e16731e061ef7657aeaaf47c6b524331af600080a3005b60405162461bcd60e51b815260206004820152600f60248201526e496e76616c6964206164647265737360881b6044820152606490fd5b34610302576000366003190112610302577f00000000000000000000000000000000000000000000000000000000000000006001600160a01b0316610ab6338214611138565b478015610b8a57600080808084865af13d15610b85573d67ffffffffffffffff8111610b6f5760405190610af4601f8201601f191660200183611116565b8152600060203d92013e5b15610b315760207fc303ca808382409472acbbf899c316cf439f409f6584aae22df86dfa3c9ed50491604051908152a2005b60405162461bcd60e51b815260206004820152601660248201527513985d1a5d99481d1c985b9cd9995c8819985a5b195960521b6044820152606490fd5b634e487b7160e01b600052604160045260246000fd5b610aff565b60405162461bcd60e51b815260206004820152601b60248201527f4e6f204e617469766520546f6b656e20746f20776974686472617700000000006044820152606490fd5b34610302576020366003190112610302576001600160a01b03610bf0611048565b166000526006602052602060ff604060002054166040519015158152f35b3461030257600036600319011261030257600a546040516001600160a01b039091168152602090f35b3461030257600036600319011261030257602060405160128152f35b34610302576000366003190112610302576020600954604051908152f35b3461030257606036600319011261030257610c8a611048565b610c9261105e565b6001600160a01b0382166000818152600160209081526040808320338452909152902054909260443592916000198110610cd2575b5061056c9350611209565b838110610d41578415610d2b573315610d155761056c946000526001602052604060002060018060a01b0333166000526020528360406000209103905584610cc7565b634a1406b160e11b600052600060045260246000fd5b63e602df0560e01b600052600060045260246000fd5b8390637dc7a0d960e11b6000523360045260245260445260646000fd5b34610302576000366003190112610302576020600254604051908152f35b3461030257602036600319011261030257600435610dc4337f00000000000000000000000000000000000000000000000000000000000000006001600160a01b031614611138565b8015610e035760407f7aaf6e876013942206286cfff5091af2fa84c63a6f07b849acdc1e7eb91780c091600954908060095582519182526020820152a1005b60405162461bcd60e51b815260206004820152601e60248201527f52617465206d7573742062652067726561746572207468616e207a65726f00006044820152606490fd5b3461030257610373610e59366110bd565b90610e8e337f00000000000000000000000000000000000000000000000000000000000000006001600160a01b031614611138565b60018060a01b0316600052600660205260406000209060ff801983541691151516179055565b3461030257604036600319011261030257610ecd611048565b602435903315610d2b576001600160a01b0316908115610d1557336000526001602052604060002082600052602052806040600020556040519081527f8c5be1e5ebec7d5bd14f71427d1e84f3dd0314c0f7b2291e5b200ac8c7c3b92560203392a3602060405160018152f35b346103025760003660031901126103025760405160006003548060011c90600181168015610fef575b6020831081146106615782855290811561063d5750600114610f8f576105d9836105cd81850382611116565b91905060036000527fc2575a0e9e593c00f959f8c92f12db2869c3395a3b0502d05e2516446f71f85b916000905b808210610fd5575090915081016020016105cd6105bd565b919260018160209254838588010152019101909291610fbd565b91607f1691610f63565b34610302576040366003190112610302576040906001600160a01b0361101d611048565b1660005260076020528160002060243560005260205281600020600181549101549082526020820152f35b600435906001600160a01b038216820361030257565b602435906001600160a01b038216820361030257565b91909160208152825180602083015260005b8181106110a7575060409293506000838284010152601f8019910116010190565b8060208092870101516040828601015201611086565b6040906003190112610302576004356001600160a01b0381168103610302579060243580151581036103025790565b6060906003190112610302576004356001600160a01b038116810361030257906024359060443590565b90601f8019910116810190811067ffffffffffffffff821117610b6f57604052565b1561113f57565b60405162461bcd60e51b815260206004820152600d60248201526c2737ba103a34329037bbb732b960991b6044820152606490fd5b1561117b57565b60405162461bcd60e51b815260206004820152600f60248201526e496e76616c6964207375627479706560881b6044820152606490fd5b156111b957565b60405162461bcd60e51b815260206004820152600e60248201526d125b9d985b1a5908185b5bdd5b9d60921b6044820152606490fd5b919082018092116100fe57565b919082039182116100fe57565b6001600160a01b03169081156112b8576001600160a01b03169182156112a25760008281528060205260408120548281106112885791604082827fddf252ad1be2c89b69c2b068fc378daa952ba7f163c4a11628f55a4df523b3ef958760209652828652038282205586815280845220818154019055604051908152a3565b916064928463391434e360e21b8452600452602452604452fd5b63ec442f0560e01b600052600060045260246000fd5b634b637e8f60e11b600052600060045260246000fd5b6001600160a01b031680156112b85760009181835282602052604083205481811061133657817fddf252ad1be2c89b69c2b068fc378daa952ba7f163c4a11628f55a4df523b3ef926020928587528684520360408620558060025403600255604051908152a3565b6064939263391434e360e21b8452600452602452604452fd5b6001600160a01b03169081156112a25761136b816002546111ef565b6002557fddf252ad1be2c89b69c2b068fc378daa952ba7f163c4a11628f55a4df523b3ef602060009284845283825260408420818154019055604051908152a356fea26469706673582212200da4fb7b3e3ef0f2baa10ea354479d87cafabd64cf2017c894c4bcbd883b12e064736f6c634300081d0033",
  "linkReferences": {},
  "deployedLinkReferences": {}
}