{
  "_format": "hh-sol-artifact-1",
  "contractName": "MEAT",
  "sourceName": "contracts/MEAT.sol",
  "abi": [
    {
      "inputs": [
        {
          "internalType": "address",
          "name": "goatAddress",
          "type": "address"
        }
      ],
      "stateMutability": "nonpayable",
      "type": "constructor"
    },
    {
      "inputs": [
        {
          "internalType": "address",
          "name": "spender",
          "type": "address"
        },
        {
          "internalType": "uint256",
          "name": "allowance",
          "type": "uint256"
        },
        {
          "internalType": "uint256",
          "name": "needed",
          "type": "uint256"
        }
      ],
      "name": "ERC20InsufficientAllowance",
      "type": "error"
    },
    {
      "inputs": [
        {
          "internalType": "address",
          "name": "sender",
          "type": "address"
        },
        {
          "internalType": "uint256",
          "name": "balance",
          "type": "uint256"
        },
        {
          "internalType": "uint256",
          "name": "needed",
          "type": "uint256"
        }
      ],
      "name": "ERC20InsufficientBalance",
      "type": "error"
    },
    {
      "inputs": [
        {
          "internalType": "address",
          "name": "approver",
          "type": "address"
        }
      ],
      "name": "ERC20InvalidApprover",
      "type": "error"
    },
    {
      "inputs": [
        {
          "internalType": "address",
          "name": "receiver",
          "type": "address"
        }
      ],
      "name": "ERC20InvalidReceiver",
      "type": "error"
    },
    {
      "inputs": [
        {
          "internalType": "address",
          "name": "sender",
          "type": "address"
        }
      ],
      "name": "ERC20InvalidSender",
      "type": "error"
    },
    {
      "inputs": [
        {
          "internalType": "address",
          "name": "spender",
          "type": "address"
        }
      ],
      "name": "ERC20InvalidSpender",
      "type": "error"
    },
    {
      "anonymous": false,
      "inputs": [
        {
          "indexed": true,
          "internalType": "address",
          "name": "owner",
          "type": "address"
        },
        {
          "indexed": true,
          "internalType": "address",
          "name": "spender",
          "type": "address"
        },
        {
          "indexed": false,
          "internalType": "uint256",
          "name": "value",
          "type": "uint256"
        }
      ],
      "name": "Approval",
      "type": "event"
    },
    {
      "anonymous": false,
      "inputs": [
        {
          "indexed": false,
          "internalType": "uint256",
          "name": "oldRate",
          "type": "uint256"
        },
        {
          "indexed": false,
          "internalType": "uint256",
          "name": "newRate",
          "type": "uint256"
        }
      ],
      "name": "DepositRateChanged",
      "type": "event"
    },
    {
      "anonymous": false,
      "inputs": [
        {
          "indexed": true,
          "internalType": "address",
          "name": "to",
          "type": "address"
        },
        {
          "indexed": false,
          "internalType": "uint256",
          "name": "amount",
          "type": "uint256"
        }
      ],
      "name": "InitialSupplyMinted",
      "type": "event"
    },
    {
      "anonymous": false,
      "inputs": [
        {
          "indexed": true,
          "internalType": "address",
          "name": "user",
          "type": "address"
        },
        {
          "indexed": false,
          "internalType": "uint256",
          "name": "bnbReceived",
          "type": "uint256"
        },
        {
          "indexed": false,
          "internalType": "uint256",
          "name": "meatMinted",
          "type": "uint256"
        }
      ],
      "name": "MintedWithNative",
      "type": "event"
    },
    {
      "anonymous": false,
      "inputs": [
        {
          "indexed": true,
          "internalType": "address",
          "name": "to",
          "type": "address"
        },
        {
          "indexed": false,
          "internalType": "uint256",
          "name": "amount",
          "type": "uint256"
        }
      ],
      "name": "NativeWithdrawn",
      "type": "event"
    },
    {
      "anonymous": false,
      "inputs": [
        {
          "indexed": true,
          "internalType": "address",
          "name": "user",
          "type": "address"
        },
        {
          "indexed": false,
          "internalType": "uint256",
          "name": "goatIn",
          "type": "uint256"
        },
        {
          "indexed": false,
          "internalType": "uint256",
          "name": "meatOut",
          "type": "uint256"
        }
      ],
      "name": "SwappedGOATForMEAT",
      "type": "event"
    },
    {
      "anonymous": false,
      "inputs": [
        {
          "indexed": true,
          "internalType": "address",
          "name": "user",
          "type": "address"
        },
        {
          "indexed": false,
          "internalType": "uint256",
          "name": "meatIn",
          "type": "uint256"
        },
        {
          "indexed": false,
          "internalType": "uint256",
          "name": "goatOut",
          "type": "uint256"
        }
      ],
      "name": "SwappedMEATForGOAT",
      "type": "event"
    },
    {
      "anonymous": false,
      "inputs": [
        {
          "indexed": true,
          "internalType": "address",
          "name": "from",
          "type": "address"
        },
        {
          "indexed": true,
          "internalType": "address",
          "name": "to",
          "type": "address"
        },
        {
          "indexed": false,
          "internalType": "uint256",
          "name": "value",
          "type": "uint256"
        }
      ],
      "name": "Transfer",
      "type": "event"
    },
    {
      "inputs": [],
      "name": "DepositRate",
      "outputs": [
        {
          "internalType": "uint256",
          "name": "",
          "type": "uint256"
        }
      ],
      "stateMutability": "view",
      "type": "function"
    },
    {
      "inputs": [],
      "name": "GOAT",
      "outputs": [
        {
          "internalType": "contract IGOAT",
          "name": "",
          "type": "address"
        }
      ],
      "stateMutability": "view",
      "type": "function"
    },
    {
      "inputs": [],
      "name": "SwapRate",
      "outputs": [
        {
          "internalType": "uint256",
          "name": "",
          "type": "uint256"
        }
      ],
      "stateMutability": "view",
      "type": "function"
    },
    {
      "inputs": [
        {
          "internalType": "address",
          "name": "owner",
          "type": "address"
        },
        {
          "internalType": "address",
          "name": "spender",
          "type": "address"
        }
      ],
      "name": "allowance",
      "outputs": [
        {
          "internalType": "uint256",
          "name": "",
          "type": "uint256"
        }
      ],
      "stateMutability": "view",
      "type": "function"
    },
    {
      "inputs": [
        {
          "internalType": "address",
          "name": "spender",
          "type": "address"
        },
        {
          "internalType": "uint256",
          "name": "value",
          "type": "uint256"
        }
      ],
      "name": "approve",
      "outputs": [
        {
          "internalType": "bool",
          "name": "",
          "type": "bool"
        }
      ],
      "stateMutability": "nonpayable",
      "type": "function"
    },
    {
      "inputs": [
        {
          "internalType": "address",
          "name": "account",
          "type": "address"
        }
      ],
      "name": "balanceOf",
      "outputs": [
        {
          "internalType": "uint256",
          "name": "",
          "type": "uint256"
        }
      ],
      "stateMutability": "view",
      "type": "function"
    },
    {
      "inputs": [
        {
          "internalType": "uint256",
          "name": "newRate",
          "type": "uint256"
        }
      ],
      "name": "changeDepositRate",
      "outputs": [],
      "stateMutability": "nonpayable",
      "type": "function"
    },
    {
      "inputs": [],
      "name": "decimals",
      "outputs": [
        {
          "internalType": "uint8",
          "name": "",
          "type": "uint8"
        }
      ],
      "stateMutability": "view",
      "type": "function"
    },
    {
      "inputs": [
        {
          "internalType": "uint256",
          "name": "meatAmount",
          "type": "uint256"
        }
      ],
      "name": "getEquivalentGOAT",
      "outputs": [
        {
          "internalType": "uint256",
          "name": "",
          "type": "uint256"
        }
      ],
      "stateMutability": "pure",
      "type": "function"
    },
    {
      "inputs": [
        {
          "internalType": "uint256",
          "name": "goatAmount",
          "type": "uint256"
        }
      ],
      "name": "getEquivalentMEAT",
      "outputs": [
        {
          "internalType": "uint256",
          "name": "",
          "type": "uint256"
        }
      ],
      "stateMutability": "pure",
      "type": "function"
    },
    {
      "inputs": [],
      "name": "name",
      "outputs": [
        {
          "internalType": "string",
          "name": "",
          "type": "string"
        }
      ],
      "stateMutability": "view",
      "type": "function"
    },
    {
      "inputs": [],
      "name": "owner",
      "outputs": [
        {
          "internalType": "address",
          "name": "",
          "type": "address"
        }
      ],
      "stateMutability": "view",
      "type": "function"
    },
    {
      "inputs": [
        {
          "internalType": "address",
          "name": "goatAddress",
          "type": "address"
        }
      ],
      "name": "setGOATAddress",
      "outputs": [],
      "stateMutability": "nonpayable",
      "type": "function"
    },
    {
      "inputs": [
        {
          "internalType": "bool",
          "name": "status",
          "type": "bool"
        }
      ],
      "name": "setSwapEnabled",
      "outputs": [],
      "stateMutability": "nonpayable",
      "type": "function"
    },
    {
      "inputs": [],
      "name": "swapEnabled",
      "outputs": [
        {
          "internalType": "bool",
          "name": "",
          "type": "bool"
        }
      ],
      "stateMutability": "view",
      "type": "function"
    },
    {
      "inputs": [
        {
          "internalType": "uint256",
          "name": "goatAmount",
          "type": "uint256"
        }
      ],
      "name": "swapGOATForMEAT",
      "outputs": [],
      "stateMutability": "nonpayable",
      "type": "function"
    },
    {
      "inputs": [
        {
          "internalType": "uint256",
          "name": "meatAmount",
          "type": "uint256"
        }
      ],
      "name": "swapMEATForGOAT",
      "outputs": [],
      "stateMutability": "nonpayable",
      "type": "function"
    },
    {
      "inputs": [],
      "name": "symbol",
      "outputs": [
        {
          "internalType": "string",
          "name": "",
          "type": "string"
        }
      ],
      "stateMutability": "view",
      "type": "function"
    },
    {
      "inputs": [],
      "name": "totalSupply",
      "outputs": [
        {
          "internalType": "uint256",
          "name": "",
          "type": "uint256"
        }
      ],
      "stateMutability": "view",
      "type": "function"
    },
    {
      "inputs": [
        {
          "internalType": "address",
          "name": "to",
          "type": "address"
        },
        {
          "internalType": "uint256",
          "name": "value",
          "type": "uint256"
        }
      ],
      "name": "transfer",
      "outputs": [
        {
          "internalType": "bool",
          "name": "",
          "type": "bool"
        }
      ],
      "stateMutability": "nonpayable",
      "type": "function"
    },
    {
      "inputs": [
        {
          "internalType": "address",
          "name": "from",
          "type": "address"
        },
        {
          "internalType": "address",
          "name": "to",
          "type": "address"
        },
        {
          "internalType": "uint256",
          "name": "value",
          "type": "uint256"
        }
      ],
      "name": "transferFrom",
      "outputs": [
        {
          "internalType": "bool",
          "name": "",
          "type": "bool"
        }
      ],
      "stateMutability": "nonpayable",
      "type": "function"
    },
    {
      "inputs": [],
      "name": "withdrawNative",
      "outputs": [],
      "stateMutability": "nonpayable",
      "type": "function"
    },
    {
      "stateMutability": "payable",
      "type": "receive"
    }
  ],
  "bytecode": "0x60a060405260646006556001600760006101000a81548160ff02191690831515021790555034801561003057600080fd5b50604051612d08380380612d08833981810160405281019061005291906104bf565b604051806060016040528060218152602001612ce7602191396040518060400160405280600481526020017f4d4541540000000000000000000000000000000000000000000000000000000081525081600390816100b0919061073c565b5080600490816100c0919061073c565b50505080600560006101000a81548173ffffffffffffffffffffffffffffffffffffffff021916908373ffffffffffffffffffffffffffffffffffffffff1602179055503373ffffffffffffffffffffffffffffffffffffffff1660808173ffffffffffffffffffffffffffffffffffffffff16815250506000683635c9adc5dea000009050610158608051826101af60201b60201c565b60805173ffffffffffffffffffffffffffffffffffffffff167f0e9afdea29d93d82aeb661870b5f2ad12b3bd74d8526138188fe81fd920607ea826040516101a0919061081d565b60405180910390a250506108fc565b600073ffffffffffffffffffffffffffffffffffffffff168273ffffffffffffffffffffffffffffffffffffffff16036102215760006040517fec442f050000000000000000000000000000000000000000000000000000000081526004016102189190610847565b60405180910390fd5b6102336000838361023760201b60201c565b5050565b600073ffffffffffffffffffffffffffffffffffffffff168373ffffffffffffffffffffffffffffffffffffffff160361028957806002600082825461027d9190610891565b9250508190555061035c565b60008060008573ffffffffffffffffffffffffffffffffffffffff1673ffffffffffffffffffffffffffffffffffffffff16815260200190815260200160002054905081811015610315578381836040517fe450d38c00000000000000000000000000000000000000000000000000000000815260040161030c939291906108c5565b60405180910390fd5b8181036000808673ffffffffffffffffffffffffffffffffffffffff1673ffffffffffffffffffffffffffffffffffffffff16815260200190815260200160002081905550505b600073ffffffffffffffffffffffffffffffffffffffff168273ffffffffffffffffffffffffffffffffffffffff16036103a557806002600082825403925050819055506103f2565b806000808473ffffffffffffffffffffffffffffffffffffffff1673ffffffffffffffffffffffffffffffffffffffff168152602001908152602001600020600082825401925050819055505b8173ffffffffffffffffffffffffffffffffffffffff168373ffffffffffffffffffffffffffffffffffffffff167fddf252ad1be2c89b69c2b068fc378daa952ba7f163c4a11628f55a4df523b3ef8360405161044f919061081d565b60405180910390a3505050565b600080fd5b600073ffffffffffffffffffffffffffffffffffffffff82169050919050565b600061048c82610461565b9050919050565b61049c81610481565b81146104a757600080fd5b50565b6000815190506104b981610493565b92915050565b6000602082840312156104d5576104d461045c565b5b60006104e3848285016104aa565b91505092915050565b600081519050919050565b7f4e487b7100000000000000000000000000000000000000000000000000000000600052604160045260246000fd5b7f4e487b7100000000000000000000000000000000000000000000000000000000600052602260045260246000fd5b6000600282049050600182168061056d57607f821691505b6020821081036105805761057f610526565b5b50919050565b60008190508160005260206000209050919050565b60006020601f8301049050919050565b600082821b905092915050565b6000600883026105e87fffffffffffffffffffffffffffffffffffffffffffffffffffffffffffffffff826105ab565b6105f286836105ab565b95508019841693508086168417925050509392505050565b6000819050919050565b6000819050919050565b600061063961063461062f8461060a565b610614565b61060a565b9050919050565b6000819050919050565b6106538361061e565b61066761065f82610640565b8484546105b8565b825550505050565b600090565b61067c61066f565b61068781848461064a565b505050565b5b818110156106ab576106a0600082610674565b60018101905061068d565b5050565b601f8211156106f0576106c181610586565b6106ca8461059b565b810160208510156106d9578190505b6106ed6106e58561059b565b83018261068c565b50505b505050565b600082821c905092915050565b6000610713600019846008026106f5565b1980831691505092915050565b600061072c8383610702565b9150826002028217905092915050565b610745826104ec565b67ffffffffffffffff81111561075e5761075d6104f7565b5b6107688254610555565b6107738282856106af565b600060209050601f8311600181146107a65760008415610794578287015190505b61079e8582610720565b865550610806565b601f1984166107b486610586565b60005b828110156107dc578489015182556001820191506020850194506020810190506107b7565b868310156107f957848901516107f5601f891682610702565b8355505b6001600288020188555050505b505050505050565b6108178161060a565b82525050565b6000602082019050610832600083018461080e565b92915050565b61084181610481565b82525050565b600060208201905061085c6000830184610838565b92915050565b7f4e487b7100000000000000000000000000000000000000000000000000000000600052601160045260246000fd5b600061089c8261060a565b91506108a78361060a565b92508282019050808211156108bf576108be610862565b5b92915050565b60006060820190506108da6000830186610838565b6108e7602083018561080e565b6108f4604083018461080e565b949350505050565b6080516123a66109416000396000818161092c01528181610e1c01528181610ef201528181610f5901528181610fca015281816110b1015261141901526123a66000f3fe6080604052600436106101395760003560e01c806350431ce4116100ab578063910b94721161006f578063910b94721461056d57806395d89b4114610596578063a9059cbb146105c1578063d8e70000146105fe578063dd62ed3e1461063b578063e01af92c146106785761028a565b806350431ce41461049a5780636b66cd3c146104b15780636ddd1713146104da57806370a08231146105055780638da5cb5b146105425761028a565b806323b872dd116100fd57806323b872dd1461038857806324efc6d5146103c55780632527bae3146103f0578063313ce5671461041b5780634eeb2e90146104465780634f220ef4146104715761028a565b806306fdde031461028f578063088b1317146102ba578063095ea7b3146102f757806315c203d91461033457806318160ddd1461035d5761028a565b3661028a5760003403610181576040517f08c379a0000000000000000000000000000000000000000000000000000000008152600401610178906119f0565b60405180910390fd5b60006103e8600654346101949190611a49565b61019e9190611aba565b9050600081036101e3576040517f08c379a00000000000000000000000000000000000000000000000000000000081526004016101da90611b37565b60405180910390fd5b60006101ee306106a1565b9050818110610207576102023033846106e9565b610238565b600081111561021c5761021b3033836106e9565b5b6000818361022a9190611b57565b905061023633826107dd565b505b3373ffffffffffffffffffffffffffffffffffffffff167f5f04096cc8c6ee8d48a741bb08521c7f53c78b4f5f8f946baf110a223523f9a33484604051610280929190611b9a565b60405180910390a2005b600080fd5b34801561029b57600080fd5b506102a461085f565b6040516102b19190611c42565b60405180910390f35b3480156102c657600080fd5b506102e160048036038101906102dc9190611c95565b6108f1565b6040516102ee9190611cc2565b60405180910390f35b34801561030357600080fd5b5061031e60048036038101906103199190611d3b565b610907565b60405161032b9190611d96565b60405180910390f35b34801561034057600080fd5b5061035b60048036038101906103569190611c95565b61092a565b005b34801561036957600080fd5b50610372610a46565b60405161037f9190611cc2565b60405180910390f35b34801561039457600080fd5b506103af60048036038101906103aa9190611db1565b610a50565b6040516103bc9190611d96565b60405180910390f35b3480156103d157600080fd5b506103da610a7f565b6040516103e79190611cc2565b60405180910390f35b3480156103fc57600080fd5b50610405610a84565b6040516104129190611cc2565b60405180910390f35b34801561042757600080fd5b50610430610a8e565b60405161043d9190611e20565b60405180910390f35b34801561045257600080fd5b5061045b610a97565b6040516104689190611e9a565b60405180910390f35b34801561047d57600080fd5b5061049860048036038101906104939190611c95565b610abd565b005b3480156104a657600080fd5b506104af610e1a565b005b3480156104bd57600080fd5b506104d860048036038101906104d39190611eb5565b610fc8565b005b3480156104e657600080fd5b506104ef61109a565b6040516104fc9190611d96565b60405180910390f35b34801561051157600080fd5b5061052c60048036038101906105279190611eb5565b6106a1565b6040516105399190611cc2565b60405180910390f35b34801561054e57600080fd5b506105576110ad565b6040516105649190611ef1565b60405180910390f35b34801561057957600080fd5b50610594600480360381019061058f9190611c95565b6110d5565b005b3480156105a257600080fd5b506105ab6112c5565b6040516105b89190611c42565b60405180910390f35b3480156105cd57600080fd5b506105e860048036038101906105e39190611d3b565b611357565b6040516105f59190611d96565b60405180910390f35b34801561060a57600080fd5b5061062560048036038101906106209190611c95565b61137a565b6040516106329190611cc2565b60405180910390f35b34801561064757600080fd5b50610662600480360381019061065d9190611f0c565b611390565b60405161066f9190611cc2565b60405180910390f35b34801561068457600080fd5b5061069f600480360381019061069a9190611f78565b611417565b005b60008060008373ffffffffffffffffffffffffffffffffffffffff1673ffffffffffffffffffffffffffffffffffffffff168152602001908152602001600020549050919050565b600073ffffffffffffffffffffffffffffffffffffffff168373ffffffffffffffffffffffffffffffffffffffff160361075b5760006040517f96c6fd1e0000000000000000000000000000000000000000000000000000000081526004016107529190611ef1565b60405180910390fd5b600073ffffffffffffffffffffffffffffffffffffffff168273ffffffffffffffffffffffffffffffffffffffff16036107cd5760006040517fec442f050000000000000000000000000000000000000000000000000000000081526004016107c49190611ef1565b60405180910390fd5b6107d88383836114c2565b505050565b600073ffffffffffffffffffffffffffffffffffffffff168273ffffffffffffffffffffffffffffffffffffffff160361084f5760006040517fec442f050000000000000000000000000000000000000000000000000000000081526004016108469190611ef1565b60405180910390fd5b61085b600083836114c2565b5050565b60606003805461086e90611fd4565b80601f016020809104026020016040519081016040528092919081815260200182805461089a90611fd4565b80156108e75780601f106108bc576101008083540402835291602001916108e7565b820191906000526020600020905b8154815290600101906020018083116108ca57829003601f168201915b5050505050905090565b60006055826109009190611a49565b9050919050565b6000806109126116e7565b905061091f8185856116ef565b600191505092915050565b7f000000000000000000000000000000000000000000000000000000000000000073ffffffffffffffffffffffffffffffffffffffff163373ffffffffffffffffffffffffffffffffffffffff16146109b8576040517f08c379a00000000000000000000000000000000000000000000000000000000081526004016109af90612051565b60405180910390fd5b600081116109fb576040517f08c379a00000000000000000000000000000000000000000000000000000000081526004016109f2906120bd565b60405180910390fd5b60006006549050816006819055507f7aaf6e876013942206286cfff5091af2fa84c63a6f07b849acdc1e7eb91780c08183604051610a3a929190611b9a565b60405180910390a15050565b6000600254905090565b600080610a5b6116e7565b9050610a68858285611701565b610a738585856106e9565b60019150509392505050565b605581565b6000600654905090565b60006012905090565b600560009054906101000a900473ffffffffffffffffffffffffffffffffffffffff1681565b600760009054906101000a900460ff16610b0c576040517f08c379a0000000000000000000000000000000000000000000000000000000008152600401610b0390612129565b60405180910390fd5b60008111610b4f576040517f08c379a0000000000000000000000000000000000000000000000000000000008152600401610b4690612195565b60405180910390fd5b3073ffffffffffffffffffffffffffffffffffffffff166323b872dd3330846040518463ffffffff1660e01b8152600401610b8c939291906121b5565b6020604051808303816000875af1158015610bab573d6000803e3d6000fd5b505050506040513d601f19601f82011682018060405250810190610bcf9190612201565b506000605582610bdf9190611aba565b90506000600560009054906101000a900473ffffffffffffffffffffffffffffffffffffffff1673ffffffffffffffffffffffffffffffffffffffff166370a08231306040518263ffffffff1660e01b8152600401610c3e9190611ef1565b602060405180830381865afa158015610c5b573d6000803e3d6000fd5b505050506040513d601f19601f82011682018060405250810190610c7f9190612243565b905081811015610d2457600560009054906101000a900473ffffffffffffffffffffffffffffffffffffffff1673ffffffffffffffffffffffffffffffffffffffff1663449a52f8308385610cd49190611b57565b6040518363ffffffff1660e01b8152600401610cf1929190612270565b600060405180830381600087803b158015610d0b57600080fd5b505af1158015610d1f573d6000803e3d6000fd5b505050505b600560009054906101000a900473ffffffffffffffffffffffffffffffffffffffff1673ffffffffffffffffffffffffffffffffffffffff1663a9059cbb33846040518363ffffffff1660e01b8152600401610d81929190612270565b6020604051808303816000875af1158015610da0573d6000803e3d6000fd5b505050506040513d601f19601f82011682018060405250810190610dc49190612201565b503373ffffffffffffffffffffffffffffffffffffffff167fb3815b5a8d3b29cfb2df4ae54f50951c672a72abe2b8d8e34a60db8ac53812af8484604051610e0d929190611b9a565b60405180910390a2505050565b7f000000000000000000000000000000000000000000000000000000000000000073ffffffffffffffffffffffffffffffffffffffff163373ffffffffffffffffffffffffffffffffffffffff1614610ea8576040517f08c379a0000000000000000000000000000000000000000000000000000000008152600401610e9f90612051565b60405180910390fd5b600047905060008111610ef0576040517f08c379a0000000000000000000000000000000000000000000000000000000008152600401610ee7906122e5565b60405180910390fd5b7f000000000000000000000000000000000000000000000000000000000000000073ffffffffffffffffffffffffffffffffffffffff166108fc829081150290604051600060405180830381858888f19350505050158015610f56573d6000803e3d6000fd5b507f000000000000000000000000000000000000000000000000000000000000000073ffffffffffffffffffffffffffffffffffffffff167fc303ca808382409472acbbf899c316cf439f409f6584aae22df86dfa3c9ed50482604051610fbd9190611cc2565b60405180910390a250565b7f000000000000000000000000000000000000000000000000000000000000000073ffffffffffffffffffffffffffffffffffffffff163373ffffffffffffffffffffffffffffffffffffffff1614611056576040517f08c379a000000000000000000000000000000000000000000000000000000000815260040161104d90612051565b60405180910390fd5b80600560006101000a81548173ffffffffffffffffffffffffffffffffffffffff021916908373ffffffffffffffffffffffffffffffffffffffff16021790555050565b600760009054906101000a900460ff1681565b60007f0000000000000000000000000000000000000000000000000000000000000000905090565b600760009054906101000a900460ff16611124576040517f08c379a000000000000000000000000000000000000000000000000000000000815260040161111b90612129565b60405180910390fd5b60008111611167576040517f08c379a000000000000000000000000000000000000000000000000000000000815260040161115e90612195565b60405180910390fd5b600560009054906101000a900473ffffffffffffffffffffffffffffffffffffffff1673ffffffffffffffffffffffffffffffffffffffff166323b872dd3330846040518463ffffffff1660e01b81526004016111c6939291906121b5565b6020604051808303816000875af11580156111e5573d6000803e3d6000fd5b505050506040513d601f19601f820116820180604052508101906112099190612201565b5060006055826112199190611a49565b90506000611226306106a1565b905081811061123f5761123a3033846106e9565b611270565b6000811115611254576112533033836106e9565b5b600081836112629190611b57565b905061126e33826107dd565b505b3373ffffffffffffffffffffffffffffffffffffffff167f0fc7b62c4ea3974c83eb006f8f17ae47b25ac86c526403f94afb0fd116a3270584846040516112b8929190611b9a565b60405180910390a2505050565b6060600480546112d490611fd4565b80601f016020809104026020016040519081016040528092919081815260200182805461130090611fd4565b801561134d5780601f106113225761010080835404028352916020019161134d565b820191906000526020600020905b81548152906001019060200180831161133057829003601f168201915b5050505050905090565b6000806113626116e7565b905061136f8185856106e9565b600191505092915050565b60006055826113899190611aba565b9050919050565b6000600160008473ffffffffffffffffffffffffffffffffffffffff1673ffffffffffffffffffffffffffffffffffffffff16815260200190815260200160002060008373ffffffffffffffffffffffffffffffffffffffff1673ffffffffffffffffffffffffffffffffffffffff16815260200190815260200160002054905092915050565b7f000000000000000000000000000000000000000000000000000000000000000073ffffffffffffffffffffffffffffffffffffffff163373ffffffffffffffffffffffffffffffffffffffff16146114a5576040517f08c379a000000000000000000000000000000000000000000000000000000000815260040161149c90612051565b60405180910390fd5b80600760006101000a81548160ff02191690831515021790555050565b600073ffffffffffffffffffffffffffffffffffffffff168373ffffffffffffffffffffffffffffffffffffffff16036115145780600260008282546115089190612305565b925050819055506115e7565b60008060008573ffffffffffffffffffffffffffffffffffffffff1673ffffffffffffffffffffffffffffffffffffffff168152602001908152602001600020549050818110156115a0578381836040517fe450d38c00000000000000000000000000000000000000000000000000000000815260040161159793929190612339565b60405180910390fd5b8181036000808673ffffffffffffffffffffffffffffffffffffffff1673ffffffffffffffffffffffffffffffffffffffff16815260200190815260200160002081905550505b600073ffffffffffffffffffffffffffffffffffffffff168273ffffffffffffffffffffffffffffffffffffffff1603611630578060026000828254039250508190555061167d565b806000808473ffffffffffffffffffffffffffffffffffffffff1673ffffffffffffffffffffffffffffffffffffffff168152602001908152602001600020600082825401925050819055505b8173ffffffffffffffffffffffffffffffffffffffff168373ffffffffffffffffffffffffffffffffffffffff167fddf252ad1be2c89b69c2b068fc378daa952ba7f163c4a11628f55a4df523b3ef836040516116da9190611cc2565b60405180910390a3505050565b600033905090565b6116fc8383836001611796565b505050565b600061170d8484611390565b90507fffffffffffffffffffffffffffffffffffffffffffffffffffffffffffffffff8110156117905781811015611780578281836040517ffb8f41b200000000000000000000000000000000000000000000000000000000815260040161177793929190612339565b60405180910390fd5b61178f84848484036000611796565b5b50505050565b600073ffffffffffffffffffffffffffffffffffffffff168473ffffffffffffffffffffffffffffffffffffffff16036118085760006040517fe602df050000000000000000000000000000000000000000000000000000000081526004016117ff9190611ef1565b60405180910390fd5b600073ffffffffffffffffffffffffffffffffffffffff168373ffffffffffffffffffffffffffffffffffffffff160361187a5760006040517f94280d620000000000000000000000000000000000000000000000000000000081526004016118719190611ef1565b60405180910390fd5b81600160008673ffffffffffffffffffffffffffffffffffffffff1673ffffffffffffffffffffffffffffffffffffffff16815260200190815260200160002060008573ffffffffffffffffffffffffffffffffffffffff1673ffffffffffffffffffffffffffffffffffffffff168152602001908152602001600020819055508015611967578273ffffffffffffffffffffffffffffffffffffffff168473ffffffffffffffffffffffffffffffffffffffff167f8c5be1e5ebec7d5bd14f71427d1e84f3dd0314c0f7b2291e5b200ac8c7c3b9258460405161195e9190611cc2565b60405180910390a35b50505050565b600082825260208201905092915050565b7f4d7573742073656e64204e617469766520546f6b656e20746f206d696e74204d60008201527f4541540000000000000000000000000000000000000000000000000000000000602082015250565b60006119da60238361196d565b91506119e58261197e565b604082019050919050565b60006020820190508181036000830152611a09816119cd565b9050919050565b6000819050919050565b7f4e487b7100000000000000000000000000000000000000000000000000000000600052601160045260246000fd5b6000611a5482611a10565b9150611a5f83611a10565b9250828202611a6d81611a10565b91508282048414831517611a8457611a83611a1a565b5b5092915050565b7f4e487b7100000000000000000000000000000000000000000000000000000000600052601260045260246000fd5b6000611ac582611a10565b9150611ad083611a10565b925082611ae057611adf611a8b565b5b828204905092915050565b7f4d696e7420616d6f756e7420746f6f206c6f7700000000000000000000000000600082015250565b6000611b2160138361196d565b9150611b2c82611aeb565b602082019050919050565b60006020820190508181036000830152611b5081611b14565b9050919050565b6000611b6282611a10565b9150611b6d83611a10565b9250828203905081811115611b8557611b84611a1a565b5b92915050565b611b9481611a10565b82525050565b6000604082019050611baf6000830185611b8b565b611bbc6020830184611b8b565b9392505050565b600081519050919050565b60005b83811015611bec578082015181840152602081019050611bd1565b60008484015250505050565b6000601f19601f8301169050919050565b6000611c1482611bc3565b611c1e818561196d565b9350611c2e818560208601611bce565b611c3781611bf8565b840191505092915050565b60006020820190508181036000830152611c5c8184611c09565b905092915050565b600080fd5b611c7281611a10565b8114611c7d57600080fd5b50565b600081359050611c8f81611c69565b92915050565b600060208284031215611cab57611caa611c64565b5b6000611cb984828501611c80565b91505092915050565b6000602082019050611cd76000830184611b8b565b92915050565b600073ffffffffffffffffffffffffffffffffffffffff82169050919050565b6000611d0882611cdd565b9050919050565b611d1881611cfd565b8114611d2357600080fd5b50565b600081359050611d3581611d0f565b92915050565b60008060408385031215611d5257611d51611c64565b5b6000611d6085828601611d26565b9250506020611d7185828601611c80565b9150509250929050565b60008115159050919050565b611d9081611d7b565b82525050565b6000602082019050611dab6000830184611d87565b92915050565b600080600060608486031215611dca57611dc9611c64565b5b6000611dd886828701611d26565b9350506020611de986828701611d26565b9250506040611dfa86828701611c80565b9150509250925092565b600060ff82169050919050565b611e1a81611e04565b82525050565b6000602082019050611e356000830184611e11565b92915050565b6000819050919050565b6000611e60611e5b611e5684611cdd565b611e3b565b611cdd565b9050919050565b6000611e7282611e45565b9050919050565b6000611e8482611e67565b9050919050565b611e9481611e79565b82525050565b6000602082019050611eaf6000830184611e8b565b92915050565b600060208284031215611ecb57611eca611c64565b5b6000611ed984828501611d26565b91505092915050565b611eeb81611cfd565b82525050565b6000602082019050611f066000830184611ee2565b92915050565b60008060408385031215611f2357611f22611c64565b5b6000611f3185828601611d26565b9250506020611f4285828601611d26565b9150509250929050565b611f5581611d7b565b8114611f6057600080fd5b50565b600081359050611f7281611f4c565b92915050565b600060208284031215611f8e57611f8d611c64565b5b6000611f9c84828501611f63565b91505092915050565b7f4e487b7100000000000000000000000000000000000000000000000000000000600052602260045260246000fd5b60006002820490506001821680611fec57607f821691505b602082108103611fff57611ffe611fa5565b5b50919050565b7f4e6f7420746865206f776e657200000000000000000000000000000000000000600082015250565b600061203b600d8361196d565b915061204682612005565b602082019050919050565b6000602082019050818103600083015261206a8161202e565b9050919050565b7f52617465206d7573742062652067726561746572207468616e207a65726f0000600082015250565b60006120a7601e8361196d565b91506120b282612071565b602082019050919050565b600060208201905081810360008301526120d68161209a565b9050919050565b7f537761702064697361626c656400000000000000000000000000000000000000600082015250565b6000612113600d8361196d565b915061211e826120dd565b602082019050919050565b6000602082019050818103600083015261214281612106565b9050919050565b7f416d6f756e74206d757374206265203e20300000000000000000000000000000600082015250565b600061217f60128361196d565b915061218a82612149565b602082019050919050565b600060208201905081810360008301526121ae81612172565b9050919050565b60006060820190506121ca6000830186611ee2565b6121d76020830185611ee2565b6121e46040830184611b8b565b949350505050565b6000815190506121fb81611f4c565b92915050565b60006020828403121561221757612216611c64565b5b6000612225848285016121ec565b91505092915050565b60008151905061223d81611c69565b92915050565b60006020828403121561225957612258611c64565b5b60006122678482850161222e565b91505092915050565b60006040820190506122856000830185611ee2565b6122926020830184611b8b565b9392505050565b7f4e6f204e617469766520546f6b656e20746f2077697468647261770000000000600082015250565b60006122cf601b8361196d565b91506122da82612299565b602082019050919050565b600060208201905081810360008301526122fe816122c2565b9050919050565b600061231082611a10565b915061231b83611a10565b925082820190508082111561233357612332611a1a565b5b92915050565b600060608201905061234e6000830186611ee2565b61235b6020830185611b8b565b6123686040830184611b8b565b94935050505056fea2646970667358221220abf2c081d87d887a18ef3aa271e36ba3d62ffc2793a2ee838733b2e154907d2f64736f6c634300081d00334d61726b65742d456e61626c6564204167726963756c747572616c20546f6b656e",
  "linkReferences": {},
  "deployedLinkReferences": {}
}