{
  "_format": "hh-sol-artifact-1",
  "contractName": "MEAT",
  "sourceName": "contracts/MEAT.sol",
  "abi": [
    {
      "inputs": [
        {
          "internalType": "address",
          "name": "goatAddress",
          "type": "address"
        }
      ],
      "stateMutability": "nonpayable",
      "type": "constructor"
    },
    {
      "inputs": [
        {
          "internalType": "address",
          "name": "spender",
          "type": "address"
        },
        {
          "internalType": "uint256",
          "name": "allowance",
          "type": "uint256"
        },
        {
          "internalType": "uint256",
          "name": "needed",
          "type": "uint256"
        }
      ],
      "name": "ERC20InsufficientAllowance",
      "type": "error"
    },
    {
      "inputs": [
        {
          "internalType": "address",
          "name": "sender",
          "type": "address"
        },
        {
          "internalType": "uint256",
          "name": "balance",
          "type": "uint256"
        },
        {
          "internalType": "uint256",
          "name": "needed",
          "type": "uint256"
        }
      ],
      "name": "ERC20InsufficientBalance",
      "type": "error"
    },
    {
      "inputs": [
        {
          "internalType": "address",
          "name": "approver",
          "type": "address"
        }
      ],
      "name": "ERC20InvalidApprover",
      "type": "error"
    },
    {
      "inputs": [
        {
          "internalType": "address",
          "name": "receiver",
          "type": "address"
        }
      ],
      "name": "ERC20InvalidReceiver",
      "type": "error"
    },
    {
      "inputs": [
        {
          "internalType": "address",
          "name": "sender",
          "type": "address"
        }
      ],
      "name": "ERC20InvalidSender",
      "type": "error"
    },
    {
      "inputs": [
        {
          "internalType": "address",
          "name": "spender",
          "type": "address"
        }
      ],
      "name": "ERC20InvalidSpender",
      "type": "error"
    },
    {
      "anonymous": false,
      "inputs": [
        {
          "indexed": true,
          "internalType": "address",
          "name": "owner",
          "type": "address"
        },
        {
          "indexed": true,
          "internalType": "address",
          "name": "spender",
          "type": "address"
        },
        {
          "indexed": false,
          "internalType": "uint256",
          "name": "value",
          "type": "uint256"
        }
      ],
      "name": "Approval",
      "type": "event"
    },
    {
      "anonymous": false,
      "inputs": [
        {
          "indexed": false,
          "internalType": "uint256",
          "name": "oldRate",
          "type": "uint256"
        },
        {
          "indexed": false,
          "internalType": "uint256",
          "name": "newRate",
          "type": "uint256"
        }
      ],
      "name": "DepositRateChanged",
      "type": "event"
    },
    {
      "anonymous": false,
      "inputs": [
        {
          "indexed": true,
          "internalType": "address",
          "name": "oldAddress",
          "type": "address"
        },
        {
          "indexed": true,
          "internalType": "address",
          "name": "newAddress",
          "type": "address"
        }
      ],
      "name": "GoatAddressUpdated",
      "type": "event"
    },
    {
      "anonymous": false,
      "inputs": [
        {
          "indexed": true,
          "internalType": "address",
          "name": "to",
          "type": "address"
        },
        {
          "indexed": false,
          "internalType": "uint256",
          "name": "amount",
          "type": "uint256"
        }
      ],
      "name": "InitialSupplyMinted",
      "type": "event"
    },
    {
      "anonymous": false,
      "inputs": [
        {
          "indexed": true,
          "internalType": "address",
          "name": "user",
          "type": "address"
        },
        {
          "indexed": false,
          "internalType": "uint256",
          "name": "amount",
          "type": "uint256"
        }
      ],
      "name": "MeatRedeemed",
      "type": "event"
    },
    {
      "anonymous": false,
      "inputs": [
        {
          "indexed": true,
          "internalType": "address",
          "name": "user",
          "type": "address"
        },
        {
          "indexed": false,
          "internalType": "uint256",
          "name": "nativeReceived",
          "type": "uint256"
        },
        {
          "indexed": false,
          "internalType": "uint256",
          "name": "meatMinted",
          "type": "uint256"
        }
      ],
      "name": "MintedWithNative",
      "type": "event"
    },
    {
      "anonymous": false,
      "inputs": [
        {
          "indexed": true,
          "internalType": "address",
          "name": "to",
          "type": "address"
        },
        {
          "indexed": false,
          "internalType": "uint256",
          "name": "amount",
          "type": "uint256"
        }
      ],
      "name": "NativeWithdrawn",
      "type": "event"
    },
    {
      "anonymous": false,
      "inputs": [
        {
          "indexed": true,
          "internalType": "address",
          "name": "oldAddress",
          "type": "address"
        },
        {
          "indexed": true,
          "internalType": "address",
          "name": "newAddress",
          "type": "address"
        }
      ],
      "name": "RateHandlerUpdated",
      "type": "event"
    },
    {
      "anonymous": false,
      "inputs": [
        {
          "indexed": true,
          "internalType": "address",
          "name": "from",
          "type": "address"
        },
        {
          "indexed": true,
          "internalType": "bytes32",
          "name": "subtype",
          "type": "bytes32"
        },
        {
          "indexed": false,
          "internalType": "uint256",
          "name": "amount",
          "type": "uint256"
        }
      ],
      "name": "SubtypeBurned",
      "type": "event"
    },
    {
      "anonymous": false,
      "inputs": [
        {
          "indexed": true,
          "internalType": "address",
          "name": "to",
          "type": "address"
        },
        {
          "indexed": true,
          "internalType": "bytes32",
          "name": "subtype",
          "type": "bytes32"
        },
        {
          "indexed": false,
          "internalType": "uint256",
          "name": "amount",
          "type": "uint256"
        }
      ],
      "name": "SubtypeMinted",
      "type": "event"
    },
    {
      "anonymous": false,
      "inputs": [
        {
          "indexed": true,
          "internalType": "address",
          "name": "from",
          "type": "address"
        },
        {
          "indexed": true,
          "internalType": "address",
          "name": "to",
          "type": "address"
        },
        {
          "indexed": false,
          "internalType": "uint256",
          "name": "value",
          "type": "uint256"
        }
      ],
      "name": "Transfer",
      "type": "event"
    },
    {
      "inputs": [],
      "name": "DEPOSIT_DIVISOR",
      "outputs": [
        {
          "internalType": "uint256",
          "name": "",
          "type": "uint256"
        }
      ],
      "stateMutability": "view",
      "type": "function"
    },
    {
      "inputs": [],
      "name": "DepositRate",
      "outputs": [
        {
          "internalType": "uint256",
          "name": "",
          "type": "uint256"
        }
      ],
      "stateMutability": "view",
      "type": "function"
    },
    {
      "inputs": [],
      "name": "GOAT",
      "outputs": [
        {
          "internalType": "contract IGOAT",
          "name": "",
          "type": "address"
        }
      ],
      "stateMutability": "view",
      "type": "function"
    },
    {
      "inputs": [
        {
          "internalType": "address",
          "name": "owner",
          "type": "address"
        },
        {
          "internalType": "address",
          "name": "spender",
          "type": "address"
        }
      ],
      "name": "allowance",
      "outputs": [
        {
          "internalType": "uint256",
          "name": "",
          "type": "uint256"
        }
      ],
      "stateMutability": "view",
      "type": "function"
    },
    {
      "inputs": [
        {
          "internalType": "address",
          "name": "spender",
          "type": "address"
        },
        {
          "internalType": "uint256",
          "name": "value",
          "type": "uint256"
        }
      ],
      "name": "approve",
      "outputs": [
        {
          "internalType": "bool",
          "name": "",
          "type": "bool"
        }
      ],
      "stateMutability": "nonpayable",
      "type": "function"
    },
    {
      "inputs": [
        {
          "internalType": "address",
          "name": "account",
          "type": "address"
        }
      ],
      "name": "balanceOf",
      "outputs": [
        {
          "internalType": "uint256",
          "name": "",
          "type": "uint256"
        }
      ],
      "stateMutability": "view",
      "type": "function"
    },
    {
      "inputs": [
        {
          "internalType": "address",
          "name": "from",
          "type": "address"
        },
        {
          "internalType": "bytes32",
          "name": "subtype",
          "type": "bytes32"
        },
        {
          "internalType": "uint256",
          "name": "amount",
          "type": "uint256"
        }
      ],
      "name": "burnSubtype",
      "outputs": [],
      "stateMutability": "nonpayable",
      "type": "function"
    },
    {
      "inputs": [
        {
          "internalType": "uint256",
          "name": "newRate",
          "type": "uint256"
        }
      ],
      "name": "changeDepositRate",
      "outputs": [],
      "stateMutability": "nonpayable",
      "type": "function"
    },
    {
      "inputs": [],
      "name": "decimals",
      "outputs": [
        {
          "internalType": "uint8",
          "name": "",
          "type": "uint8"
        }
      ],
      "stateMutability": "view",
      "type": "function"
    },
    {
      "inputs": [
        {
          "internalType": "address",
          "name": "user",
          "type": "address"
        },
        {
          "internalType": "bytes32",
          "name": "subtype",
          "type": "bytes32"
        }
      ],
      "name": "getBalanceOfSubtype",
      "outputs": [
        {
          "internalType": "uint256",
          "name": "",
          "type": "uint256"
        }
      ],
      "stateMutability": "view",
      "type": "function"
    },
    {
      "inputs": [
        {
          "internalType": "uint256",
          "name": "meatAmount",
          "type": "uint256"
        }
      ],
      "name": "getEquivalentGOAT",
      "outputs": [
        {
          "internalType": "uint256",
          "name": "",
          "type": "uint256"
        }
      ],
      "stateMutability": "view",
      "type": "function"
    },
    {
      "inputs": [
        {
          "internalType": "uint256",
          "name": "goatAmount",
          "type": "uint256"
        }
      ],
      "name": "getEquivalentMEAT",
      "outputs": [
        {
          "internalType": "uint256",
          "name": "",
          "type": "uint256"
        }
      ],
      "stateMutability": "view",
      "type": "function"
    },
    {
      "inputs": [
        {
          "internalType": "bytes32",
          "name": "subtype",
          "type": "bytes32"
        }
      ],
      "name": "getTotalSupplyOfSubtype",
      "outputs": [
        {
          "internalType": "uint256",
          "name": "",
          "type": "uint256"
        }
      ],
      "stateMutability": "view",
      "type": "function"
    },
    {
      "inputs": [
        {
          "internalType": "address",
          "name": "",
          "type": "address"
        }
      ],
      "name": "isBurner",
      "outputs": [
        {
          "internalType": "bool",
          "name": "",
          "type": "bool"
        }
      ],
      "stateMutability": "view",
      "type": "function"
    },
    {
      "inputs": [
        {
          "internalType": "address",
          "name": "",
          "type": "address"
        }
      ],
      "name": "isMinter",
      "outputs": [
        {
          "internalType": "bool",
          "name": "",
          "type": "bool"
        }
      ],
      "stateMutability": "view",
      "type": "function"
    },
    {
      "inputs": [
        {
          "internalType": "address",
          "name": "to",
          "type": "address"
        },
        {
          "internalType": "bytes32",
          "name": "subtype",
          "type": "bytes32"
        },
        {
          "internalType": "uint256",
          "name": "amount",
          "type": "uint256"
        }
      ],
      "name": "mintSubtype",
      "outputs": [],
      "stateMutability": "nonpayable",
      "type": "function"
    },
    {
      "inputs": [],
      "name": "name",
      "outputs": [
        {
          "internalType": "string",
          "name": "",
          "type": "string"
        }
      ],
      "stateMutability": "view",
      "type": "function"
    },
    {
      "inputs": [],
      "name": "owner",
      "outputs": [
        {
          "internalType": "address",
          "name": "",
          "type": "address"
        }
      ],
      "stateMutability": "view",
      "type": "function"
    },
    {
      "inputs": [],
      "name": "rateHandler",
      "outputs": [
        {
          "internalType": "contract RateHandler",
          "name": "",
          "type": "address"
        }
      ],
      "stateMutability": "view",
      "type": "function"
    },
    {
      "inputs": [
        {
          "internalType": "uint256",
          "name": "amount",
          "type": "uint256"
        }
      ],
      "name": "redeemForMeat",
      "outputs": [],
      "stateMutability": "nonpayable",
      "type": "function"
    },
    {
      "inputs": [
        {
          "internalType": "address",
          "name": "account",
          "type": "address"
        },
        {
          "internalType": "bool",
          "name": "status",
          "type": "bool"
        }
      ],
      "name": "setBurner",
      "outputs": [],
      "stateMutability": "nonpayable",
      "type": "function"
    },
    {
      "inputs": [
        {
          "internalType": "address",
          "name": "goatAddress",
          "type": "address"
        }
      ],
      "name": "setGOATAddress",
      "outputs": [],
      "stateMutability": "nonpayable",
      "type": "function"
    },
    {
      "inputs": [
        {
          "internalType": "address",
          "name": "account",
          "type": "address"
        },
        {
          "internalType": "bool",
          "name": "status",
          "type": "bool"
        }
      ],
      "name": "setMinter",
      "outputs": [],
      "stateMutability": "nonpayable",
      "type": "function"
    },
    {
      "inputs": [
        {
          "internalType": "address",
          "name": "rateHandlerAddress",
          "type": "address"
        }
      ],
      "name": "setRateHandler",
      "outputs": [],
      "stateMutability": "nonpayable",
      "type": "function"
    },
    {
      "inputs": [
        {
          "internalType": "address",
          "name": "",
          "type": "address"
        },
        {
          "internalType": "bytes32",
          "name": "",
          "type": "bytes32"
        }
      ],
      "name": "subtypeBalances",
      "outputs": [
        {
          "internalType": "uint256",
          "name": "",
          "type": "uint256"
        }
      ],
      "stateMutability": "view",
      "type": "function"
    },
    {
      "inputs": [
        {
          "internalType": "bytes32",
          "name": "",
          "type": "bytes32"
        }
      ],
      "name": "subtypeTotalSupply",
      "outputs": [
        {
          "internalType": "uint256",
          "name": "",
          "type": "uint256"
        }
      ],
      "stateMutability": "view",
      "type": "function"
    },
    {
      "inputs": [],
      "name": "symbol",
      "outputs": [
        {
          "internalType": "string",
          "name": "",
          "type": "string"
        }
      ],
      "stateMutability": "view",
      "type": "function"
    },
    {
      "inputs": [],
      "name": "totalSupply",
      "outputs": [
        {
          "internalType": "uint256",
          "name": "",
          "type": "uint256"
        }
      ],
      "stateMutability": "view",
      "type": "function"
    },
    {
      "inputs": [
        {
          "internalType": "address",
          "name": "to",
          "type": "address"
        },
        {
          "internalType": "uint256",
          "name": "value",
          "type": "uint256"
        }
      ],
      "name": "transfer",
      "outputs": [
        {
          "internalType": "bool",
          "name": "",
          "type": "bool"
        }
      ],
      "stateMutability": "nonpayable",
      "type": "function"
    },
    {
      "inputs": [
        {
          "internalType": "address",
          "name": "from",
          "type": "address"
        },
        {
          "internalType": "address",
          "name": "to",
          "type": "address"
        },
        {
          "internalType": "uint256",
          "name": "value",
          "type": "uint256"
        }
      ],
      "name": "transferFrom",
      "outputs": [
        {
          "internalType": "bool",
          "name": "",
          "type": "bool"
        }
      ],
      "stateMutability": "nonpayable",
      "type": "function"
    },
    {
      "inputs": [],
      "name": "withdrawNative",
      "outputs": [],
      "stateMutability": "nonpayable",
      "type": "function"
    },
    {
      "stateMutability": "payable",
      "type": "receive"
    }
  ],
  "bytecode": "0x60a0604052346104d357611a906020813803918261001c816104d8565b9384928339810103126104d357516001600160a01b038116908190036104d35761004660606104d8565b90602182527f4d61726b65742d456e61626c6564204167726963756c747572616c20546f6b656020830152603760f91b604083015261008560406104d8565b60048152631351505560e21b602082015282519091906001600160401b0381116103dc57600354600181811c911680156104c9575b60208210146103bc57601f8111610464575b506020601f82116001146103fd57819293946000926103f2575b50508160011b916000199060031b1c1916176003555b81516001600160401b0381116103dc57600454600181811c911680156103d2575b60208210146103bc57601f8111610357575b50602092601f82116001146102f257928192936000926102e7575b50508160011b916000199060031b1c1916176004555b6064600a55600160ff19600b541617600b5580156102b05760018060a01b0319600554161760055533608052331561029a57600254683635c9adc5dea0000081018091116102845760025560003381528060205260408120683635c9adc5dea00000815401905560405190683635c9adc5dea0000082527fddf252ad1be2c89b69c2b068fc378daa952ba7f163c4a11628f55a4df523b3ef60203393a360018060a01b03608051167f0e9afdea29d93d82aeb661870b5f2ad12b3bd74d8526138188fe81fd920607ea6020604051683635c9adc5dea000008152a260405161159290816104fe823960805181818161030c01528181610417015281816107b6015281816109ff01528181610aa401528181610b5001528181610e900152610f6d0152f35b634e487b7160e01b600052601160045260246000fd5b63ec442f0560e01b600052600060045260246000fd5b60405162461bcd60e51b815260206004820152600f60248201526e496e76616c6964206164647265737360881b6044820152606490fd5b01519050388061014a565b601f198216936004600052806000209160005b86811061033f5750836001959610610326575b505050811b01600455610160565b015160001960f88460031b161c19169055388080610318565b91926020600181928685015181550194019201610305565b60046000527f8a35acfbc15ff81a39ae7d344fd709f28e8600b4aa8c65c6b64bfe7fe36bd19b601f830160051c810191602084106103b2575b601f0160051c01905b8181106103a6575061012f565b60008155600101610399565b9091508190610390565b634e487b7160e01b600052602260045260246000fd5b90607f169061011d565b634e487b7160e01b600052604160045260246000fd5b0151905038806100e6565b601f198216906003600052806000209160005b81811061044c57509583600195969710610433575b505050811b016003556100fc565b015160001960f88460031b161c19169055388080610425565b9192602060018192868b015181550194019201610410565b60036000527fc2575a0e9e593c00f959f8c92f12db2869c3395a3b0502d05e2516446f71f85b601f830160051c810191602084106104bf575b601f0160051c01905b8181106104b357506100cc565b600081556001016104a6565b909150819061049d565b90607f16906100ba565b600080fd5b6040519190601f01601f191682016001600160401b038111838210176103dc5760405256fe608080604052600436101561014b575b50361561001b57600080fd5b34156100fa576103e8610030600a5434611201565b0480156100bf5730600052600060205260406000205481811015600014610091575061005d8133306113b8565b6040519034825260208201527f5f04096cc8c6ee8d48a741bb08521c7f53c78b4f5f8f946baf110a223523f9a360403392a2005b6100a4816100aa926100af575b8361132c565b336114fe565b61005d565b6100ba8133306113b8565b61009e565b60405162461bcd60e51b81526020600482015260136024820152724d696e7420616d6f756e7420746f6f206c6f7760681b6044820152606490fd5b60405162461bcd60e51b815260206004820152602360248201527f4d7573742073656e64204e617469766520546f6b656e20746f206d696e74204d60448201526211505560ea1b6064820152608490fd5b60003560e01c90816306fdde031461107557508063088b131714611047578063095ea7b314610fc15780630d895ee114610f4257806315c203d914610e7657806318160ddd14610e5857806323b872dd14610d6b5780632527bae314610d4d57806327b6ec3114610957578063313ce56714610d315780633a94b9d614610d045780634334614a14610cc55780634eeb2e9014610c9c57806350431ce414610b3d5780635995627e14610a8557806369625e74146105c35780636b66cd3c146109e05780636ddd1713146109bd57806370a08231146109835780637b974bfb146109575780637e605a66146108cb57806380839a1d146107e55780638da5cb5b146107a05780639235e0c51461078357806395d89b411461067b578063a9059cbb1461064a578063aa271e1a1461060b578063aca0aa38146105c3578063bbe929271461046d578063cf456ae7146103ec578063d8e70000146103a8578063dd62ed3e146103575763e01af92c146102c3573861000f565b3461035257602036600319011261035257600435801515809103610352577f436b6cf978c7b6998fcce43dfe4d37e3a0dc2bb780144a2eb55d7138201e8a129060209061033a337f00000000000000000000000000000000000000000000000000000000000000006001600160a01b03161461122a565b60ff19600b541660ff821617600b55604051908152a1005b600080fd5b346103525760403660031901126103525761037061117a565b610378611190565b6001600160a01b039182166000908152600160209081526040808320949093168252928352819020549051908152f35b34610352576020366003190112610352576103c1611339565b80156103d65760209060043504604051908152f35b634e487b7160e01b600052601260045260246000fd5b346103525760403660031901126103525761046b61040861117a565b6104106111a6565b90610445337f00000000000000000000000000000000000000000000000000000000000000006001600160a01b03161461122a565b60018060a01b0316600052600660205260406000209060ff801983541691151516179055565b005b346103525761047b366111b5565b91909133600052600760205260ff6040600020541615610591576104a08315156112a4565b6104ab8115156112e2565b60018060a01b03821691826000526008602052604060002084600052602052816040600020541061054c57816105437fa09d49939f56edd6bbe4189c24c3aa41b7c41607a1c172ac28241937e92659149360209386600052600885526040600020886000528552604060002061052283825461132c565b90558760005260098552604060002061053c83825461132c565b905561147d565b604051908152a3005b60405162461bcd60e51b815260206004820152601c60248201527f496e73756666696369656e7420737562747970652062616c616e6365000000006044820152606490fd5b60405162461bcd60e51b815260206004820152600a6024820152692737ba10313ab93732b960b11b6044820152606490fd5b34610352576040366003190112610352576001600160a01b036105e461117a565b16600052600860205260406000206024356000526020526020604060002054604051908152f35b34610352576020366003190112610352576001600160a01b0361062c61117a565b166000526006602052602060ff604060002054166040519015158152f35b346103525760403660031901126103525761067061066661117a565b60243590336113b8565b602060405160018152f35b346103525760003660031901126103525760405160006004548060011c90600181168015610779575b6020831081146107655782855290811561074157506001146106e1575b6106dd836106d1818503826111df565b60405191829182611131565b0390f35b91905060046000527f8a35acfbc15ff81a39ae7d344fd709f28e8600b4aa8c65c6b64bfe7fe36bd19b916000905b808210610727575090915081016020016106d16106c1565b91926001816020925483858801015201910190929161070f565b60ff191660208086019190915291151560051b840190910191506106d190506106c1565b634e487b7160e01b84526022600452602484fd5b91607f16916106a4565b346103525760003660031901126103525760206040516103e88152f35b34610352576000366003190112610352576040517f00000000000000000000000000000000000000000000000000000000000000006001600160a01b03168152602090f35b34610352576107f3366111b5565b91909133600052600660205260ff60406000205416156108995760207f4d9c7eb2147a9d92f13ceb5ad7faf075ea8e4fb1ae54beb3e03a6d5631bc83dc9161083c8515156112a4565b6108478115156112e2565b6105438160018060a01b0386169586600052600885526040600020886000528552604060002061087883825461131f565b90558760005260098552604060002061089283825461131f565b90556114fe565b60405162461bcd60e51b815260206004820152600a6024820152692737ba1036b4b73a32b960b11b6044820152606490fd5b3461035257602036600319011261035257600435801561091d576108ef813361147d565b6040519081527f95ba5027b47b8fe4434fd2d984ba1404159af0f28901006cfb4d763f5a27b8b660203392a2005b60405162461bcd60e51b81526020600482015260126024820152710416d6f756e74206d757374206265203e20360741b6044820152606490fd5b346103525760203660031901126103525760043560005260096020526020604060002054604051908152f35b34610352576020366003190112610352576001600160a01b036109a461117a565b1660005260006020526020604060002054604051908152f35b3461035257600036600319011261035257602060ff600b54166040519015158152f35b34610352576020366003190112610352576109f961117a565b610a2d337f00000000000000000000000000000000000000000000000000000000000000006001600160a01b03161461122a565b6001600160a01b0316610a41811515611266565b600580546001600160a01b0319811683179091556001600160a01b03167fd54c77e46d0b5e608c05ba4e8081fdc157390ef20bc963c37569638f08c8b392600080a3005b3461035257602036600319011261035257610a9e61117a565b610ad2337f00000000000000000000000000000000000000000000000000000000000000006001600160a01b03161461122a565b6001600160a01b03811690610ae8821515611266565b600b8054610100600160a81b03198116600893841b610100600160a81b031617909155901c6001600160a01b03167f74c403300cf3c4677e574cb2de0bc0e16731e061ef7657aeaaf47c6b524331af600080a3005b34610352576000366003190112610352577f00000000000000000000000000000000000000000000000000000000000000006001600160a01b0316610b8333821461122a565b478015610c5757600080808084865af13d15610c52573d67ffffffffffffffff8111610c3c5760405190610bc1601f8201601f1916602001836111df565b8152600060203d92013e5b15610bfe5760207fc303ca808382409472acbbf899c316cf439f409f6584aae22df86dfa3c9ed50491604051908152a2005b60405162461bcd60e51b815260206004820152601660248201527513985d1a5d99481d1c985b9cd9995c8819985a5b195960521b6044820152606490fd5b634e487b7160e01b600052604160045260246000fd5b610bcc565b60405162461bcd60e51b815260206004820152601b60248201527f4e6f204e617469766520546f6b656e20746f20776974686472617700000000006044820152606490fd5b34610352576000366003190112610352576005546040516001600160a01b039091168152602090f35b34610352576020366003190112610352576001600160a01b03610ce661117a565b166000526007602052602060ff604060002054166040519015158152f35b3461035257600036600319011261035257600b5460405160089190911c6001600160a01b03168152602090f35b3461035257600036600319011261035257602060405160128152f35b34610352576000366003190112610352576020600a54604051908152f35b3461035257606036600319011261035257610d8461117a565b610d8c611190565b6001600160a01b0382166000818152600160209081526040808320338452909152902054909260443592916000198110610dcc575b5061067093506113b8565b838110610e3b578415610e25573315610e0f57610670946000526001602052604060002060018060a01b0333166000526020528360406000209103905584610dc1565b634a1406b160e11b600052600060045260246000fd5b63e602df0560e01b600052600060045260246000fd5b8390637dc7a0d960e11b6000523360045260245260445260646000fd5b34610352576000366003190112610352576020600254604051908152f35b3461035257602036600319011261035257600435610ebe337f00000000000000000000000000000000000000000000000000000000000000006001600160a01b03161461122a565b8015610efd5760407f7aaf6e876013942206286cfff5091af2fa84c63a6f07b849acdc1e7eb91780c091600a549080600a5582519182526020820152a1005b60405162461bcd60e51b815260206004820152601e60248201527f52617465206d7573742062652067726561746572207468616e207a65726f00006044820152606490fd5b346103525760403660031901126103525761046b610f5e61117a565b610f666111a6565b90610f9b337f00000000000000000000000000000000000000000000000000000000000000006001600160a01b03161461122a565b60018060a01b0316600052600760205260406000209060ff801983541691151516179055565b3461035257604036600319011261035257610fda61117a565b602435903315610e25576001600160a01b0316908115610e0f57336000526001602052604060002082600052602052806040600020556040519081527f8c5be1e5ebec7d5bd14f71427d1e84f3dd0314c0f7b2291e5b200ac8c7c3b92560203392a3602060405160018152f35b3461035257602036600319011261035257602061106d611065611339565b600435611201565b604051908152f35b346103525760003660031901126103525760006003548060011c90600181168015611127575b6020831081146107655782855290811561074157506001146110c7576106dd836106d1818503826111df565b91905060036000527fc2575a0e9e593c00f959f8c92f12db2869c3395a3b0502d05e2516446f71f85b916000905b80821061110d575090915081016020016106d16106c1565b9192600181602092548385880101520191019092916110f5565b91607f169161109b565b91909160208152825180602083015260005b818110611164575060409293506000838284010152601f8019910116010190565b8060208092870101516040828601015201611143565b600435906001600160a01b038216820361035257565b602435906001600160a01b038216820361035257565b60243590811515820361035257565b6060906003190112610352576004356001600160a01b038116810361035257906024359060443590565b90601f8019910116810190811067ffffffffffffffff821117610c3c57604052565b8181029291811591840414171561121457565b634e487b7160e01b600052601160045260246000fd5b1561123157565b60405162461bcd60e51b815260206004820152600d60248201526c2737ba103a34329037bbb732b960991b6044820152606490fd5b1561126d57565b60405162461bcd60e51b815260206004820152600f60248201526e496e76616c6964206164647265737360881b6044820152606490fd5b156112ab57565b60405162461bcd60e51b815260206004820152600f60248201526e496e76616c6964207375627479706560881b6044820152606490fd5b156112e957565b60405162461bcd60e51b815260206004820152600e60248201526d125b9d985b1a5908185b5bdd5b9d60921b6044820152606490fd5b9190820180921161121457565b9190820391821161121457565b600b5460081c6001600160a01b0316806113535750605590565b602060049160405192838092630f7fb07b60e41b82525afa9081156113ac5760009161137d575090565b90506020813d6020116113a4575b81611398602093836111df565b81010312610352575190565b3d915061138b565b6040513d6000823e3d90fd5b6001600160a01b0316908115611467576001600160a01b03169182156114515760008281528060205260408120548281106114375791604082827fddf252ad1be2c89b69c2b068fc378daa952ba7f163c4a11628f55a4df523b3ef958760209652828652038282205586815280845220818154019055604051908152a3565b916064928463391434e360e21b8452600452602452604452fd5b63ec442f0560e01b600052600060045260246000fd5b634b637e8f60e11b600052600060045260246000fd5b6001600160a01b03168015611467576000918183528260205260408320548181106114e557817fddf252ad1be2c89b69c2b068fc378daa952ba7f163c4a11628f55a4df523b3ef926020928587528684520360408620558060025403600255604051908152a3565b6064939263391434e360e21b8452600452602452604452fd5b6001600160a01b03169081156114515761151a8160025461131f565b6002557fddf252ad1be2c89b69c2b068fc378daa952ba7f163c4a11628f55a4df523b3ef602060009284845283825260408420818154019055604051908152a356fea26469706673582212207822087d1fbeefd47c3b190a6818eac700c4e94cb78dabe1356a3e914ffeccdf64736f6c634300081d0033",
  "linkReferences": {},
  "deployedLinkReferences": {}
}