{
  "_format": "hh-sol-artifact-1",
  "contractName": "MEAT",
  "sourceName": "contracts/MEAT.sol",
  "abi": [
    {
      "inputs": [],
      "stateMutability": "nonpayable",
      "type": "constructor"
    },
    {
      "inputs": [
        {
          "internalType": "address",
          "name": "spender",
          "type": "address"
        },
        {
          "internalType": "uint256",
          "name": "allowance",
          "type": "uint256"
        },
        {
          "internalType": "uint256",
          "name": "needed",
          "type": "uint256"
        }
      ],
      "name": "ERC20InsufficientAllowance",
      "type": "error"
    },
    {
      "inputs": [
        {
          "internalType": "address",
          "name": "sender",
          "type": "address"
        },
        {
          "internalType": "uint256",
          "name": "balance",
          "type": "uint256"
        },
        {
          "internalType": "uint256",
          "name": "needed",
          "type": "uint256"
        }
      ],
      "name": "ERC20InsufficientBalance",
      "type": "error"
    },
    {
      "inputs": [
        {
          "internalType": "address",
          "name": "approver",
          "type": "address"
        }
      ],
      "name": "ERC20InvalidApprover",
      "type": "error"
    },
    {
      "inputs": [
        {
          "internalType": "address",
          "name": "receiver",
          "type": "address"
        }
      ],
      "name": "ERC20InvalidReceiver",
      "type": "error"
    },
    {
      "inputs": [
        {
          "internalType": "address",
          "name": "sender",
          "type": "address"
        }
      ],
      "name": "ERC20InvalidSender",
      "type": "error"
    },
    {
      "inputs": [
        {
          "internalType": "address",
          "name": "spender",
          "type": "address"
        }
      ],
      "name": "ERC20InvalidSpender",
      "type": "error"
    },
    {
      "anonymous": false,
      "inputs": [
        {
          "indexed": true,
          "internalType": "address",
          "name": "owner",
          "type": "address"
        },
        {
          "indexed": true,
          "internalType": "address",
          "name": "spender",
          "type": "address"
        },
        {
          "indexed": false,
          "internalType": "uint256",
          "name": "value",
          "type": "uint256"
        }
      ],
      "name": "Approval",
      "type": "event"
    },
    {
      "anonymous": false,
      "inputs": [
        {
          "indexed": true,
          "internalType": "address",
          "name": "account",
          "type": "address"
        },
        {
          "indexed": false,
          "internalType": "bool",
          "name": "status",
          "type": "bool"
        }
      ],
      "name": "BurnerUpdated",
      "type": "event"
    },
    {
      "anonymous": false,
      "inputs": [
        {
          "indexed": false,
          "internalType": "uint256",
          "name": "oldRate",
          "type": "uint256"
        },
        {
          "indexed": false,
          "internalType": "uint256",
          "name": "newRate",
          "type": "uint256"
        }
      ],
      "name": "DepositRateChanged",
      "type": "event"
    },
    {
      "anonymous": false,
      "inputs": [
        {
          "indexed": true,
          "internalType": "address",
          "name": "user",
          "type": "address"
        },
        {
          "indexed": false,
          "internalType": "uint256",
          "name": "amount",
          "type": "uint256"
        }
      ],
      "name": "MeatRedeemed",
      "type": "event"
    },
    {
      "anonymous": false,
      "inputs": [
        {
          "indexed": true,
          "internalType": "address",
          "name": "user",
          "type": "address"
        },
        {
          "indexed": false,
          "internalType": "uint256",
          "name": "nativeReceived",
          "type": "uint256"
        },
        {
          "indexed": false,
          "internalType": "uint256",
          "name": "meatMinted",
          "type": "uint256"
        }
      ],
      "name": "MintedWithNative",
      "type": "event"
    },
    {
      "anonymous": false,
      "inputs": [
        {
          "indexed": true,
          "internalType": "address",
          "name": "account",
          "type": "address"
        },
        {
          "indexed": false,
          "internalType": "bool",
          "name": "status",
          "type": "bool"
        }
      ],
      "name": "MinterUpdated",
      "type": "event"
    },
    {
      "anonymous": false,
      "inputs": [
        {
          "indexed": true,
          "internalType": "address",
          "name": "to",
          "type": "address"
        },
        {
          "indexed": false,
          "internalType": "uint256",
          "name": "amount",
          "type": "uint256"
        }
      ],
      "name": "NativeWithdrawn",
      "type": "event"
    },
    {
      "anonymous": false,
      "inputs": [
        {
          "indexed": true,
          "internalType": "address",
          "name": "oldAddress",
          "type": "address"
        },
        {
          "indexed": true,
          "internalType": "address",
          "name": "newAddress",
          "type": "address"
        }
      ],
      "name": "RateHandlerUpdated",
      "type": "event"
    },
    {
      "anonymous": false,
      "inputs": [
        {
          "indexed": true,
          "internalType": "address",
          "name": "from",
          "type": "address"
        },
        {
          "indexed": true,
          "internalType": "bytes32",
          "name": "subtype",
          "type": "bytes32"
        },
        {
          "indexed": false,
          "internalType": "uint256",
          "name": "amount",
          "type": "uint256"
        }
      ],
      "name": "SubtypeBurned",
      "type": "event"
    },
    {
      "anonymous": false,
      "inputs": [
        {
          "indexed": true,
          "internalType": "address",
          "name": "user",
          "type": "address"
        },
        {
          "indexed": true,
          "internalType": "bytes32",
          "name": "subtype",
          "type": "bytes32"
        },
        {
          "indexed": false,
          "internalType": "uint256",
          "name": "lineageID",
          "type": "uint256"
        }
      ],
      "name": "SubtypeLineageUpdated",
      "type": "event"
    },
    {
      "anonymous": false,
      "inputs": [
        {
          "indexed": true,
          "internalType": "address",
          "name": "to",
          "type": "address"
        },
        {
          "indexed": true,
          "internalType": "bytes32",
          "name": "subtype",
          "type": "bytes32"
        },
        {
          "indexed": false,
          "internalType": "uint256",
          "name": "amount",
          "type": "uint256"
        }
      ],
      "name": "SubtypeMinted",
      "type": "event"
    },
    {
      "anonymous": false,
      "inputs": [
        {
          "indexed": true,
          "internalType": "address",
          "name": "from",
          "type": "address"
        },
        {
          "indexed": true,
          "internalType": "address",
          "name": "to",
          "type": "address"
        },
        {
          "indexed": false,
          "internalType": "uint256",
          "name": "value",
          "type": "uint256"
        }
      ],
      "name": "Transfer",
      "type": "event"
    },
    {
      "inputs": [],
      "name": "DEPOSIT_DIVISOR",
      "outputs": [
        {
          "internalType": "uint256",
          "name": "",
          "type": "uint256"
        }
      ],
      "stateMutability": "view",
      "type": "function"
    },
    {
      "inputs": [],
      "name": "DepositRate",
      "outputs": [
        {
          "internalType": "uint256",
          "name": "",
          "type": "uint256"
        }
      ],
      "stateMutability": "view",
      "type": "function"
    },
    {
      "inputs": [],
      "name": "GOATMEAT_SUBTYPE",
      "outputs": [
        {
          "internalType": "bytes32",
          "name": "",
          "type": "bytes32"
        }
      ],
      "stateMutability": "view",
      "type": "function"
    },
    {
      "inputs": [
        {
          "internalType": "address",
          "name": "owner",
          "type": "address"
        },
        {
          "internalType": "address",
          "name": "spender",
          "type": "address"
        }
      ],
      "name": "allowance",
      "outputs": [
        {
          "internalType": "uint256",
          "name": "",
          "type": "uint256"
        }
      ],
      "stateMutability": "view",
      "type": "function"
    },
    {
      "inputs": [
        {
          "internalType": "address",
          "name": "spender",
          "type": "address"
        },
        {
          "internalType": "uint256",
          "name": "value",
          "type": "uint256"
        }
      ],
      "name": "approve",
      "outputs": [
        {
          "internalType": "bool",
          "name": "",
          "type": "bool"
        }
      ],
      "stateMutability": "nonpayable",
      "type": "function"
    },
    {
      "inputs": [
        {
          "internalType": "address",
          "name": "account",
          "type": "address"
        }
      ],
      "name": "balanceOf",
      "outputs": [
        {
          "internalType": "uint256",
          "name": "",
          "type": "uint256"
        }
      ],
      "stateMutability": "view",
      "type": "function"
    },
    {
      "inputs": [
        {
          "internalType": "address",
          "name": "user",
          "type": "address"
        },
        {
          "internalType": "bytes32",
          "name": "subtype",
          "type": "bytes32"
        }
      ],
      "name": "balanceOfSubtypeWithLineage",
      "outputs": [
        {
          "internalType": "uint256",
          "name": "balance",
          "type": "uint256"
        },
        {
          "internalType": "uint256",
          "name": "lineageID",
          "type": "uint256"
        }
      ],
      "stateMutability": "view",
      "type": "function"
    },
    {
      "inputs": [
        {
          "internalType": "address",
          "name": "from",
          "type": "address"
        },
        {
          "internalType": "bytes32",
          "name": "subtype",
          "type": "bytes32"
        },
        {
          "internalType": "uint256",
          "name": "amount",
          "type": "uint256"
        }
      ],
      "name": "burnSubtype",
      "outputs": [],
      "stateMutability": "nonpayable",
      "type": "function"
    },
    {
      "inputs": [
        {
          "internalType": "uint256",
          "name": "newRate",
          "type": "uint256"
        }
      ],
      "name": "changeDepositRate",
      "outputs": [],
      "stateMutability": "nonpayable",
      "type": "function"
    },
    {
      "inputs": [],
      "name": "decimals",
      "outputs": [
        {
          "internalType": "uint8",
          "name": "",
          "type": "uint8"
        }
      ],
      "stateMutability": "view",
      "type": "function"
    },
    {
      "inputs": [
        {
          "internalType": "address",
          "name": "user",
          "type": "address"
        },
        {
          "internalType": "bytes32",
          "name": "subtype",
          "type": "bytes32"
        }
      ],
      "name": "getBalanceOfSubtype",
      "outputs": [
        {
          "internalType": "uint256",
          "name": "",
          "type": "uint256"
        }
      ],
      "stateMutability": "view",
      "type": "function"
    },
    {
      "inputs": [
        {
          "internalType": "bytes32",
          "name": "subtype",
          "type": "bytes32"
        }
      ],
      "name": "getTotalSupplyOfSubtype",
      "outputs": [
        {
          "internalType": "uint256",
          "name": "",
          "type": "uint256"
        }
      ],
      "stateMutability": "view",
      "type": "function"
    },
    {
      "inputs": [
        {
          "internalType": "address",
          "name": "",
          "type": "address"
        }
      ],
      "name": "isBurner",
      "outputs": [
        {
          "internalType": "bool",
          "name": "",
          "type": "bool"
        }
      ],
      "stateMutability": "view",
      "type": "function"
    },
    {
      "inputs": [
        {
          "internalType": "address",
          "name": "",
          "type": "address"
        }
      ],
      "name": "isMinter",
      "outputs": [
        {
          "internalType": "bool",
          "name": "",
          "type": "bool"
        }
      ],
      "stateMutability": "view",
      "type": "function"
    },
    {
      "inputs": [
        {
          "internalType": "address",
          "name": "to",
          "type": "address"
        },
        {
          "internalType": "bytes32",
          "name": "subtype",
          "type": "bytes32"
        },
        {
          "internalType": "uint256",
          "name": "amount",
          "type": "uint256"
        }
      ],
      "name": "mintSubtype",
      "outputs": [],
      "stateMutability": "nonpayable",
      "type": "function"
    },
    {
      "inputs": [],
      "name": "name",
      "outputs": [
        {
          "internalType": "string",
          "name": "",
          "type": "string"
        }
      ],
      "stateMutability": "view",
      "type": "function"
    },
    {
      "inputs": [],
      "name": "owner",
      "outputs": [
        {
          "internalType": "address",
          "name": "",
          "type": "address"
        }
      ],
      "stateMutability": "view",
      "type": "function"
    },
    {
      "inputs": [],
      "name": "rateHandler",
      "outputs": [
        {
          "internalType": "contract RateHandler",
          "name": "",
          "type": "address"
        }
      ],
      "stateMutability": "view",
      "type": "function"
    },
    {
      "inputs": [
        {
          "internalType": "uint256",
          "name": "amount",
          "type": "uint256"
        }
      ],
      "name": "redeemForMeat",
      "outputs": [],
      "stateMutability": "nonpayable",
      "type": "function"
    },
    {
      "inputs": [
        {
          "internalType": "address",
          "name": "account",
          "type": "address"
        },
        {
          "internalType": "bool",
          "name": "status",
          "type": "bool"
        }
      ],
      "name": "setBurner",
      "outputs": [],
      "stateMutability": "nonpayable",
      "type": "function"
    },
    {
      "inputs": [
        {
          "internalType": "address",
          "name": "account",
          "type": "address"
        },
        {
          "internalType": "bool",
          "name": "status",
          "type": "bool"
        }
      ],
      "name": "setMinter",
      "outputs": [],
      "stateMutability": "nonpayable",
      "type": "function"
    },
    {
      "inputs": [
        {
          "internalType": "address",
          "name": "rateHandlerAddress",
          "type": "address"
        }
      ],
      "name": "setRateHandler",
      "outputs": [],
      "stateMutability": "nonpayable",
      "type": "function"
    },
    {
      "inputs": [
        {
          "internalType": "address",
          "name": "user",
          "type": "address"
        },
        {
          "internalType": "bytes32",
          "name": "subtype",
          "type": "bytes32"
        },
        {
          "internalType": "uint256",
          "name": "lineageID",
          "type": "uint256"
        }
      ],
      "name": "setSubtypeLineage",
      "outputs": [],
      "stateMutability": "nonpayable",
      "type": "function"
    },
    {
      "inputs": [
        {
          "internalType": "address",
          "name": "",
          "type": "address"
        },
        {
          "internalType": "bytes32",
          "name": "",
          "type": "bytes32"
        }
      ],
      "name": "subtypeBalances",
      "outputs": [
        {
          "internalType": "uint256",
          "name": "balance",
          "type": "uint256"
        },
        {
          "internalType": "uint256",
          "name": "lineageID",
          "type": "uint256"
        }
      ],
      "stateMutability": "view",
      "type": "function"
    },
    {
      "inputs": [
        {
          "internalType": "bytes32",
          "name": "",
          "type": "bytes32"
        }
      ],
      "name": "subtypeTotalSupply",
      "outputs": [
        {
          "internalType": "uint256",
          "name": "",
          "type": "uint256"
        }
      ],
      "stateMutability": "view",
      "type": "function"
    },
    {
      "inputs": [],
      "name": "symbol",
      "outputs": [
        {
          "internalType": "string",
          "name": "",
          "type": "string"
        }
      ],
      "stateMutability": "view",
      "type": "function"
    },
    {
      "inputs": [],
      "name": "totalSupply",
      "outputs": [
        {
          "internalType": "uint256",
          "name": "",
          "type": "uint256"
        }
      ],
      "stateMutability": "view",
      "type": "function"
    },
    {
      "inputs": [
        {
          "internalType": "address",
          "name": "to",
          "type": "address"
        },
        {
          "internalType": "uint256",
          "name": "value",
          "type": "uint256"
        }
      ],
      "name": "transfer",
      "outputs": [
        {
          "internalType": "bool",
          "name": "",
          "type": "bool"
        }
      ],
      "stateMutability": "nonpayable",
      "type": "function"
    },
    {
      "inputs": [
        {
          "internalType": "address",
          "name": "from",
          "type": "address"
        },
        {
          "internalType": "address",
          "name": "to",
          "type": "address"
        },
        {
          "internalType": "uint256",
          "name": "value",
          "type": "uint256"
        }
      ],
      "name": "transferFrom",
      "outputs": [
        {
          "internalType": "bool",
          "name": "",
          "type": "bool"
        }
      ],
      "stateMutability": "nonpayable",
      "type": "function"
    },
    {
      "inputs": [],
      "name": "withdrawNative",
      "outputs": [],
      "stateMutability": "nonpayable",
      "type": "function"
    },
    {
      "stateMutability": "payable",
      "type": "receive"
    }
  ],
  "bytecode": "0x60a0604052346104dd576040516100176060826104e2565b602181527f4d61726b65742d456e61626c6564204167726963756c747572616c20546f6b656020820152603760f91b60408201526040516100596040826104e2565b60048152631351505560e21b602082015281516001600160401b0381116103e857600354600181811c911680156104d3575b60208210146103c857601f811161046e575b50602092601f821160011461040957928192936000926103fe575b50508160011b916000199060031b1c1916176003555b80516001600160401b0381116103e857600454600181811c911680156103de575b60208210146103c857601f8111610363575b50602091601f82116001146102ff579181926000926102f4575b50508160011b916000199060031b1c1916176004555b6064600a55336080523360005260056020526040600020600160ff1982541617905560405160208101906711d3d0551351505560c21b8252600881526101786028826104e2565b51902033600052600560205260ff60406000205416156102c257801561028b57336000526007602052604060002081600052602052604060002080541561027c575b6101c48154610505565b905580600052600960205260406000206101de8154610505565b90553315610266576101ef336105e0565b604051683635c9adc5dea0000081527f4d9c7eb2147a9d92f13ceb5ad7faf075ea8e4fb1ae54beb3e03a6d5631bc83dc60203392a3604051611b1c9081610674823960805181818161034b015281816107150152818161085401528181610ac501528181610b9001528181610dee0152610ed90152f35b63ec442f0560e01b600052600060045260246000fd5b610286823361055f565b6101ba565b60405162461bcd60e51b815260206004820152600f60248201526e496e76616c6964207375627479706560881b6044820152606490fd5b60405162461bcd60e51b815260206004820152600a6024820152692737ba1036b4b73a32b960b11b6044820152606490fd5b01519050388061011b565b601f198216926004600052806000209160005b85811061034b57508360019510610332575b505050811b01600455610131565b015160001960f88460031b161c19169055388080610324565b91926020600181928685015181550194019201610312565b60046000527f8a35acfbc15ff81a39ae7d344fd709f28e8600b4aa8c65c6b64bfe7fe36bd19b601f830160051c810191602084106103be575b601f0160051c01905b8181106103b25750610101565b600081556001016103a5565b909150819061039c565b634e487b7160e01b600052602260045260246000fd5b90607f16906100ef565b634e487b7160e01b600052604160045260246000fd5b0151905038806100b8565b601f198216936003600052806000209160005b868110610456575083600195961061043d575b505050811b016003556100ce565b015160001960f88460031b161c1916905538808061042f565b9192602060018192868501518155019401920161041c565b60036000527fc2575a0e9e593c00f959f8c92f12db2869c3395a3b0502d05e2516446f71f85b601f830160051c810191602084106104c9575b601f0160051c01905b8181106104bd575061009d565b600081556001016104b0565b90915081906104a7565b90607f169061008b565b600080fd5b601f909101601f19168101906001600160401b038211908210176103e857604052565b90683635c9adc5dea00000820180921161051b57565b634e487b7160e01b600052601160045260246000fd5b80548210156105495760005260206000200190600090565b634e487b7160e01b600052603260045260246000fd5b6001600160a01b03166000908152600860205260408120805490915b8181106105bb5750680100000000000000008110156103e8576105a391600182018155610531565b819291549060031b91821b91600019901b1916179055565b836105c68285610531565b90549060031b1c146105da5760010161057b565b50505050565b600254683635c9adc5dea00000810180911161051b576002556001600160a01b03168061065157683635c9adc5de9fffff19600254016002555b60007fddf252ad1be2c89b69c2b068fc378daa952ba7f163c4a11628f55a4df523b3ef6020604051683635c9adc5dea000008152a3565b8060005260006020526040600020683635c9adc5dea00000815401905561061a56fe6080806040526004361015610165575b50361561001b57600080fd5b341561011457600a5480340290348204036100fe576103e8900480156100c35730600052600060205260406000205481811015600014610095575061006181333061135e565b6040519034825260208201527f5f04096cc8c6ee8d48a741bb08521c7f53c78b4f5f8f946baf110a223523f9a360403392a2005b6100a8816100ae926100b3575b836112a6565b3361147c565b610061565b6100be81333061135e565b6100a2565b60405162461bcd60e51b81526020600482015260136024820152724d696e7420616d6f756e7420746f6f206c6f7760681b6044820152606490fd5b634e487b7160e01b600052601160045260246000fd5b60405162461bcd60e51b815260206004820152602360248201527f4d7573742073656e64204e617469766520546f6b656e20746f206d696e74204d60448201526211505560ea1b6064820152608490fd5b60003560e01c90816303f49dd6146110a35750806306fdde0314610fe4578063095ea7b314610f325780630d895ee114610ea057806315c203d914610dd457806318160ddd14610db657806323b872dd14610d7e5780632527bae314610d6057806327b6ec31146109b6578063313ce56714610d445780633a94b9d614610d1b5780634334614a14610cdc57806350431ce414610b7d5780635995627e14610aa65780635f60f30614610a6457806369625e7414610a1c57806370a08231146109e25780637b974bfb146109b65780637e605a661461092a5780637eb2d02f1461084157806380839a1d146107445780638da5cb5b146106ff5780639235e0c5146106e257806395d89b41146105da578063a9059cbb146105a9578063aa271e1a1461056a578063aca0aa3814610519578063bbe92927146103ab578063cf456ae7146103125763dd62ed3e146102bc573861000f565b3461030d57604036600319011261030d576102d56110f2565b6102dd611108565b6001600160a01b039182166000908152600160209081526040808320949093168252928352819020549051908152f35b600080fd5b3461030d5760207fb21afb9ce9be0a676f8f317ff0ca072fb89a4f8ce2d1b6fe80f8755c14f1cb1961034336611167565b9290610379337f00000000000000000000000000000000000000000000000000000000000000006001600160a01b0316146111e2565b6001600160a01b031660008181526005835260409020805460ff191660ff86151516179055925b6040519015158152a2005b3461030d576103b9366111b8565b91909133600052600660205260ff60406000205416156104e7576103de83151561121e565b6103e981151561125c565b60018060a01b038216918260005260076020526040600020846000526020526040600020918254928184106104a2578160209361047a9261044b837fa09d49939f56edd6bbe4189c24c3aa41b7c41607a1c172ac28241937e9265914986112a6565b80915515610493575b8760005260098552604060002061046c8382546112a6565b9055863303610483576113b5565b604051908152a3005b61048e8233836112b3565b6113b5565b61049d88826114d4565b610454565b60405162461bcd60e51b815260206004820152601c60248201527f496e73756666696369656e7420737562747970652062616c616e6365000000006044820152606490fd5b60405162461bcd60e51b815260206004820152600a6024820152692737ba10313ab93732b960b11b6044820152606490fd5b3461030d57604036600319011261030d576001600160a01b0361053a6110f2565b16600052600760205260406000206024356000526020526040806000206001815491015482519182526020820152f35b3461030d57602036600319011261030d576001600160a01b0361058b6110f2565b166000526005602052602060ff604060002054166040519015158152f35b3461030d57604036600319011261030d576105cf6105c56110f2565b602435903361135e565b602060405160018152f35b3461030d57600036600319011261030d5760405160006004548060011c906001811680156106d8575b6020831081146106c4578285529081156106a05750600114610640575b61063c8361063081850382611196565b6040519182918261111e565b0390f35b91905060046000527f8a35acfbc15ff81a39ae7d344fd709f28e8600b4aa8c65c6b64bfe7fe36bd19b916000905b80821061068657509091508101602001610630610620565b91926001816020925483858801015201910190929161066e565b60ff191660208086019190915291151560051b840190910191506106309050610620565b634e487b7160e01b84526022600452602484fd5b91607f1691610603565b3461030d57600036600319011261030d5760206040516103e88152f35b3461030d57600036600319011261030d576040517f00000000000000000000000000000000000000000000000000000000000000006001600160a01b03168152602090f35b3461030d57610752366111b8565b91909133600052600560205260ff604060002054161561080f5760207f4d9c7eb2147a9d92f13ceb5ad7faf075ea8e4fb1ae54beb3e03a6d5631bc83dc9161079b85151561121e565b6107a681151561125c565b61047a8160018060a01b03861695866000526007855260406000208860005285526040600020805415610800575b6107df838254611299565b9055876000526009855260406000206107f9838254611299565b905561147c565b61080a89836113fc565b6107d4565b60405162461bcd60e51b815260206004820152600a6024820152692737ba1036b4b73a32b960b11b6044820152606490fd5b3461030d5761084f366111b8565b9091337f00000000000000000000000000000000000000000000000000000000000000006001600160a01b0316148015610912575b156108dc5760207ff3dbe5c18d228fa4d94430ec5cc4d98cd443bbcf8f603e7b94accc254499b1e99160018060a01b0316928360005260078252604060002085600052825280600160406000200155604051908152a3005b60405162461bcd60e51b815260206004820152600e60248201526d139bdd08185d5d1a1bdc9a5e995960921b6044820152606490fd5b5033600052600560205260ff60406000205416610884565b3461030d57602036600319011261030d57600435801561097c5761094e81336113b5565b6040519081527f95ba5027b47b8fe4434fd2d984ba1404159af0f28901006cfb4d763f5a27b8b660203392a2005b60405162461bcd60e51b81526020600482015260126024820152710416d6f756e74206d757374206265203e20360741b6044820152606490fd5b3461030d57602036600319011261030d5760043560005260096020526020604060002054604051908152f35b3461030d57602036600319011261030d576001600160a01b03610a036110f2565b1660005260006020526020604060002054604051908152f35b3461030d57604036600319011261030d576001600160a01b03610a3d6110f2565b16600052600760205260406000206024356000526020526020604060002054604051908152f35b3461030d57600036600319011261030d576020604051818101906711d3d0551351505560c21b825260088152610a9b602882611196565b519020604051908152f35b3461030d57602036600319011261030d57610abf6110f2565b610af3337f00000000000000000000000000000000000000000000000000000000000000006001600160a01b0316146111e2565b6001600160a01b03168015610b4657600b80546001600160a01b0319811683179091556001600160a01b03167f74c403300cf3c4677e574cb2de0bc0e16731e061ef7657aeaaf47c6b524331af600080a3005b60405162461bcd60e51b815260206004820152600f60248201526e496e76616c6964206164647265737360881b6044820152606490fd5b3461030d57600036600319011261030d577f00000000000000000000000000000000000000000000000000000000000000006001600160a01b0316610bc33382146111e2565b478015610c9757600080808084865af13d15610c92573d67ffffffffffffffff8111610c7c5760405190610c01601f8201601f191660200183611196565b8152600060203d92013e5b15610c3e5760207fc303ca808382409472acbbf899c316cf439f409f6584aae22df86dfa3c9ed50491604051908152a2005b60405162461bcd60e51b815260206004820152601660248201527513985d1a5d99481d1c985b9cd9995c8819985a5b195960521b6044820152606490fd5b634e487b7160e01b600052604160045260246000fd5b610c0c565b60405162461bcd60e51b815260206004820152601b60248201527f4e6f204e617469766520546f6b656e20746f20776974686472617700000000006044820152606490fd5b3461030d57602036600319011261030d576001600160a01b03610cfd6110f2565b166000526006602052602060ff604060002054166040519015158152f35b3461030d57600036600319011261030d57600b546040516001600160a01b039091168152602090f35b3461030d57600036600319011261030d57602060405160128152f35b3461030d57600036600319011261030d576020600a54604051908152f35b3461030d57606036600319011261030d576105cf610d9a6110f2565b610da2611108565b60443591610db18333836112b3565b61135e565b3461030d57600036600319011261030d576020600254604051908152f35b3461030d57602036600319011261030d57600435610e1c337f00000000000000000000000000000000000000000000000000000000000000006001600160a01b0316146111e2565b8015610e5b5760407f7aaf6e876013942206286cfff5091af2fa84c63a6f07b849acdc1e7eb91780c091600a549080600a5582519182526020820152a1005b60405162461bcd60e51b815260206004820152601e60248201527f52617465206d7573742062652067726561746572207468616e207a65726f00006044820152606490fd5b3461030d5760207ff0e5abe4ab32ea692e3889b4c146fd4ddae5f17bb40ab4feba97fb67a2d4de0f610ed136611167565b9290610f07337f00000000000000000000000000000000000000000000000000000000000000006001600160a01b0316146111e2565b6001600160a01b031660008181526006835260409020805460ff191660ff86151516179055926103a0565b3461030d57604036600319011261030d57610f4b6110f2565b602435903315610fce576001600160a01b0316908115610fb857336000526001602052604060002082600052602052806040600020556040519081527f8c5be1e5ebec7d5bd14f71427d1e84f3dd0314c0f7b2291e5b200ac8c7c3b92560203392a3602060405160018152f35b634a1406b160e11b600052600060045260246000fd5b63e602df0560e01b600052600060045260246000fd5b3461030d57600036600319011261030d5760405160006003548060011c90600181168015611099575b6020831081146106c4578285529081156106a057506001146110395761063c8361063081850382611196565b91905060036000527fc2575a0e9e593c00f959f8c92f12db2869c3395a3b0502d05e2516446f71f85b916000905b80821061107f57509091508101602001610630610620565b919260018160209254838588010152019101909291611067565b91607f169161100d565b3461030d57604036600319011261030d576040906001600160a01b036110c76110f2565b1660005260076020528160002060243560005260205281600020600181549101549082526020820152f35b600435906001600160a01b038216820361030d57565b602435906001600160a01b038216820361030d57565b91909160208152825180602083015260005b818110611151575060409293506000838284010152601f8019910116010190565b8060208092870101516040828601015201611130565b604090600319011261030d576004356001600160a01b038116810361030d5790602435801515810361030d5790565b90601f8019910116810190811067ffffffffffffffff821117610c7c57604052565b606090600319011261030d576004356001600160a01b038116810361030d57906024359060443590565b156111e957565b60405162461bcd60e51b815260206004820152600d60248201526c2737ba103a34329037bbb732b960991b6044820152606490fd5b1561122557565b60405162461bcd60e51b815260206004820152600f60248201526e496e76616c6964207375627479706560881b6044820152606490fd5b1561126357565b60405162461bcd60e51b815260206004820152600e60248201526d125b9d985b1a5908185b5bdd5b9d60921b6044820152606490fd5b919082018092116100fe57565b919082039182116100fe57565b6001600160a01b0390811660008181526001602090815260408083209486168352939052919091205492919060001984106112ef575b50505050565b828410611339578015610fce576001600160a01b03821615610fb857600052600160205260406000209060018060a01b0316600052602052604060002091039055388080806112e9565b508290637dc7a0d960e11b60005260018060a01b031660045260245260445260646000fd5b91906001600160a01b0383161561139f576001600160a01b03811615611389576113879261186c565b565b63ec442f0560e01b600052600060045260246000fd5b634b637e8f60e11b600052600060045260246000fd5b906001600160a01b0382161561139f576113879161154d565b80548210156113e65760005260206000200190600090565b634e487b7160e01b600052603260045260246000fd5b6001600160a01b03166000908152600860205260408120805492915b83811061145d575068010000000000000000831015610c7c5782611444916001611387950181556113ce565b90919082549060031b91821b91600019901b1916179055565b8261146882846113ce565b90549060031b1c146112e957600101611418565b906001600160a01b0382161561138957611387916117fe565b805480156114be5760001901906114ac82826113ce565b8154906000199060031b1b1916905555565b634e487b7160e01b600052603160045260246000fd5b6001600160a01b03166000908152600860205260408120905b8154808210156112e9578361150283856113ce565b90549060031b1c1461151757506001016114ed565b90925060001981019081116100fe576113879261144461153a61154893856113ce565b90549060031b1c91846113ce565b611495565b6001600160a01b0381169291831580156117b45761156d82600254611299565b6002555b81600254036002556000857fddf252ad1be2c89b69c2b068fc378daa952ba7f163c4a11628f55a4df523b3ef6020604051868152a380156117ac575b80156117a4575b61179e57929081600052600860205260406000206000905b805480831080611795575b1561178c576115e683836113ce565b90549060031b1c96856000526007602052604060002088600052602052604060002092835492831561174d5750828211156117425761162583806112a6565b80855561172e575061163788866114d4565b8560005260086020526040600020975b60008181527f6d5257204ebe7d88fd91ae87941cb2dd9d8062b64ae5a2bd2d28ec40b9fbf6df6020526040902080549091906116dd5760007ff3dbe5c18d228fa4d94430ec5cc4d98cd443bbcf8f603e7b94accc254499b1e9602060016116d4986116b286866113fc565b0154806001870155604051908152a35b6116cd838254611299565b90556112a6565b925b92946115cc565b5092600180850154910154036116f6576116d4926116c2565b60405162461bcd60e51b815260206004820152601060248201526f098d2dccac2ceca40dad2e6dac2e8c6d60831b6044820152606490fd5b979360001981146100fe5760010193611647565b6116258280946112a6565b9250975094915060001981019081116100fe5761176d61177e91886113ce565b90549060031b1c61144484896113ce565b61178786611495565b6116d6565b50505050509050565b508615156115d7565b50509050565b5080156115b4565b5060016115ad565b8460005260006020526040600020548281106117e157829086600052600060205203604060002055611571565b90508463391434e360e21b60005260045260245260445260646000fd5b7fddf252ad1be2c89b69c2b068fc378daa952ba7f163c4a11628f55a4df523b3ef602060009261183085600254611299565b6002556001600160a01b031693841584146118575780600254036002555b604051908152a3565b8484528382526040842081815401905561184e565b6001600160a01b038116939284159291908315611a9e5761188f81600254611299565b6002555b6001600160a01b0383169384158015611a855782600254036002555b85887fddf252ad1be2c89b69c2b068fc378daa952ba7f163c4a11628f55a4df523b3ef6020604051878152a38115611a7d575b508015611a75575b611a6d57949283600052600860205260406000206000905b805480831080611a64575b15611a595761191c83836113ce565b90549060031b1c9887600052600760205260406000208a6000526020526040600020928354928315611a1a575082821115611a0f5761195b83806112a6565b8085556119fb575061196d8a876114d4565b8760005260086020526040600020995b85600052600760205260406000208160005260205260406000209086898354156000146119e057602060016119d7986116b2867ff3dbe5c18d228fa4d94430ec5cc4d98cd443bbcf8f603e7b94accc254499b1e9956113fc565b945b9496611902565b50505092600180850154910154036116f6576119d7926116c2565b999360001981146100fe576001019361197d565b61195b8280946112a6565b9250995096915060001981019081116100fe57611a3a611a4b918a6113ce565b90549060031b1c611444848b6113ce565b611a5488611495565b6119d9565b505050505050509050565b5088151561190d565b505050509050565b5080156118ea565b9050386118e2565b85600052600060205260406000208381540190556118af565b856000526000602052604060002054818110611acb57819087600052600060205203604060002055611893565b8663391434e360e21b60005260045260245260445260646000fdfea26469706673582212205a5ec9e5eec93eaa08d9d880399a5a00f64ccd458e65969274b7ed7ac66d50f764736f6c634300081d0033",
  "linkReferences": {},
  "deployedLinkReferences": {}
}