{
  "_format": "hh-sol-artifact-1",
  "contractName": "MEAT",
  "sourceName": "contracts/MEAT.sol",
  "abi": [
    {
      "inputs": [
        {
          "internalType": "address",
          "name": "goatAddress",
          "type": "address"
        }
      ],
      "stateMutability": "nonpayable",
      "type": "constructor"
    },
    {
      "inputs": [
        {
          "internalType": "address",
          "name": "spender",
          "type": "address"
        },
        {
          "internalType": "uint256",
          "name": "allowance",
          "type": "uint256"
        },
        {
          "internalType": "uint256",
          "name": "needed",
          "type": "uint256"
        }
      ],
      "name": "ERC20InsufficientAllowance",
      "type": "error"
    },
    {
      "inputs": [
        {
          "internalType": "address",
          "name": "sender",
          "type": "address"
        },
        {
          "internalType": "uint256",
          "name": "balance",
          "type": "uint256"
        },
        {
          "internalType": "uint256",
          "name": "needed",
          "type": "uint256"
        }
      ],
      "name": "ERC20InsufficientBalance",
      "type": "error"
    },
    {
      "inputs": [
        {
          "internalType": "address",
          "name": "approver",
          "type": "address"
        }
      ],
      "name": "ERC20InvalidApprover",
      "type": "error"
    },
    {
      "inputs": [
        {
          "internalType": "address",
          "name": "receiver",
          "type": "address"
        }
      ],
      "name": "ERC20InvalidReceiver",
      "type": "error"
    },
    {
      "inputs": [
        {
          "internalType": "address",
          "name": "sender",
          "type": "address"
        }
      ],
      "name": "ERC20InvalidSender",
      "type": "error"
    },
    {
      "inputs": [
        {
          "internalType": "address",
          "name": "spender",
          "type": "address"
        }
      ],
      "name": "ERC20InvalidSpender",
      "type": "error"
    },
    {
      "anonymous": false,
      "inputs": [
        {
          "indexed": true,
          "internalType": "address",
          "name": "owner",
          "type": "address"
        },
        {
          "indexed": true,
          "internalType": "address",
          "name": "spender",
          "type": "address"
        },
        {
          "indexed": false,
          "internalType": "uint256",
          "name": "value",
          "type": "uint256"
        }
      ],
      "name": "Approval",
      "type": "event"
    },
    {
      "anonymous": false,
      "inputs": [
        {
          "indexed": false,
          "internalType": "uint256",
          "name": "oldRate",
          "type": "uint256"
        },
        {
          "indexed": false,
          "internalType": "uint256",
          "name": "newRate",
          "type": "uint256"
        }
      ],
      "name": "DepositRateChanged",
      "type": "event"
    },
    {
      "anonymous": false,
      "inputs": [
        {
          "indexed": true,
          "internalType": "address",
          "name": "oldAddress",
          "type": "address"
        },
        {
          "indexed": true,
          "internalType": "address",
          "name": "newAddress",
          "type": "address"
        }
      ],
      "name": "GoatAddressUpdated",
      "type": "event"
    },
    {
      "anonymous": false,
      "inputs": [
        {
          "indexed": true,
          "internalType": "address",
          "name": "to",
          "type": "address"
        },
        {
          "indexed": false,
          "internalType": "uint256",
          "name": "amount",
          "type": "uint256"
        }
      ],
      "name": "InitialSupplyMinted",
      "type": "event"
    },
    {
      "anonymous": false,
      "inputs": [
        {
          "indexed": true,
          "internalType": "address",
          "name": "user",
          "type": "address"
        },
        {
          "indexed": false,
          "internalType": "uint256",
          "name": "amount",
          "type": "uint256"
        }
      ],
      "name": "MeatRedeemed",
      "type": "event"
    },
    {
      "anonymous": false,
      "inputs": [
        {
          "indexed": true,
          "internalType": "address",
          "name": "user",
          "type": "address"
        },
        {
          "indexed": false,
          "internalType": "uint256",
          "name": "nativeReceived",
          "type": "uint256"
        },
        {
          "indexed": false,
          "internalType": "uint256",
          "name": "meatMinted",
          "type": "uint256"
        }
      ],
      "name": "MintedWithNative",
      "type": "event"
    },
    {
      "anonymous": false,
      "inputs": [
        {
          "indexed": true,
          "internalType": "address",
          "name": "to",
          "type": "address"
        },
        {
          "indexed": false,
          "internalType": "uint256",
          "name": "amount",
          "type": "uint256"
        }
      ],
      "name": "NativeWithdrawn",
      "type": "event"
    },
    {
      "anonymous": false,
      "inputs": [
        {
          "indexed": true,
          "internalType": "address",
          "name": "user",
          "type": "address"
        },
        {
          "indexed": false,
          "internalType": "uint256",
          "name": "goatIn",
          "type": "uint256"
        },
        {
          "indexed": false,
          "internalType": "uint256",
          "name": "meatOut",
          "type": "uint256"
        }
      ],
      "name": "SwappedGOATForMEAT",
      "type": "event"
    },
    {
      "anonymous": false,
      "inputs": [
        {
          "indexed": true,
          "internalType": "address",
          "name": "user",
          "type": "address"
        },
        {
          "indexed": false,
          "internalType": "uint256",
          "name": "meatIn",
          "type": "uint256"
        },
        {
          "indexed": false,
          "internalType": "uint256",
          "name": "goatOut",
          "type": "uint256"
        }
      ],
      "name": "SwappedMEATForGOAT",
      "type": "event"
    },
    {
      "anonymous": false,
      "inputs": [
        {
          "indexed": true,
          "internalType": "address",
          "name": "from",
          "type": "address"
        },
        {
          "indexed": true,
          "internalType": "address",
          "name": "to",
          "type": "address"
        },
        {
          "indexed": false,
          "internalType": "uint256",
          "name": "value",
          "type": "uint256"
        }
      ],
      "name": "Transfer",
      "type": "event"
    },
    {
      "inputs": [],
      "name": "DepositRate",
      "outputs": [
        {
          "internalType": "uint256",
          "name": "",
          "type": "uint256"
        }
      ],
      "stateMutability": "view",
      "type": "function"
    },
    {
      "inputs": [],
      "name": "GOAT",
      "outputs": [
        {
          "internalType": "contract IGOAT",
          "name": "",
          "type": "address"
        }
      ],
      "stateMutability": "view",
      "type": "function"
    },
    {
      "inputs": [
        {
          "internalType": "address",
          "name": "owner",
          "type": "address"
        },
        {
          "internalType": "address",
          "name": "spender",
          "type": "address"
        }
      ],
      "name": "allowance",
      "outputs": [
        {
          "internalType": "uint256",
          "name": "",
          "type": "uint256"
        }
      ],
      "stateMutability": "view",
      "type": "function"
    },
    {
      "inputs": [
        {
          "internalType": "address",
          "name": "spender",
          "type": "address"
        },
        {
          "internalType": "uint256",
          "name": "value",
          "type": "uint256"
        }
      ],
      "name": "approve",
      "outputs": [
        {
          "internalType": "bool",
          "name": "",
          "type": "bool"
        }
      ],
      "stateMutability": "nonpayable",
      "type": "function"
    },
    {
      "inputs": [
        {
          "internalType": "address",
          "name": "account",
          "type": "address"
        }
      ],
      "name": "balanceOf",
      "outputs": [
        {
          "internalType": "uint256",
          "name": "",
          "type": "uint256"
        }
      ],
      "stateMutability": "view",
      "type": "function"
    },
    {
      "inputs": [
        {
          "internalType": "uint256",
          "name": "newRate",
          "type": "uint256"
        }
      ],
      "name": "changeDepositRate",
      "outputs": [],
      "stateMutability": "nonpayable",
      "type": "function"
    },
    {
      "inputs": [],
      "name": "decimals",
      "outputs": [
        {
          "internalType": "uint8",
          "name": "",
          "type": "uint8"
        }
      ],
      "stateMutability": "view",
      "type": "function"
    },
    {
      "inputs": [
        {
          "internalType": "uint256",
          "name": "meatAmount",
          "type": "uint256"
        }
      ],
      "name": "getEquivalentGOAT",
      "outputs": [
        {
          "internalType": "uint256",
          "name": "",
          "type": "uint256"
        }
      ],
      "stateMutability": "pure",
      "type": "function"
    },
    {
      "inputs": [
        {
          "internalType": "uint256",
          "name": "goatAmount",
          "type": "uint256"
        }
      ],
      "name": "getEquivalentMEAT",
      "outputs": [
        {
          "internalType": "uint256",
          "name": "",
          "type": "uint256"
        }
      ],
      "stateMutability": "pure",
      "type": "function"
    },
    {
      "inputs": [],
      "name": "name",
      "outputs": [
        {
          "internalType": "string",
          "name": "",
          "type": "string"
        }
      ],
      "stateMutability": "view",
      "type": "function"
    },
    {
      "inputs": [],
      "name": "owner",
      "outputs": [
        {
          "internalType": "address",
          "name": "",
          "type": "address"
        }
      ],
      "stateMutability": "view",
      "type": "function"
    },
    {
      "inputs": [
        {
          "internalType": "uint256",
          "name": "amount",
          "type": "uint256"
        }
      ],
      "name": "redeemForMeat",
      "outputs": [],
      "stateMutability": "nonpayable",
      "type": "function"
    },
    {
      "inputs": [
        {
          "internalType": "address",
          "name": "goatAddress",
          "type": "address"
        }
      ],
      "name": "setGOATAddress",
      "outputs": [],
      "stateMutability": "nonpayable",
      "type": "function"
    },
    {
      "inputs": [
        {
          "internalType": "bool",
          "name": "status",
          "type": "bool"
        }
      ],
      "name": "setSwapEnabled",
      "outputs": [],
      "stateMutability": "nonpayable",
      "type": "function"
    },
    {
      "inputs": [],
      "name": "swapEnabled",
      "outputs": [
        {
          "internalType": "bool",
          "name": "",
          "type": "bool"
        }
      ],
      "stateMutability": "view",
      "type": "function"
    },
    {
      "inputs": [
        {
          "internalType": "uint256",
          "name": "goatAmount",
          "type": "uint256"
        }
      ],
      "name": "swapGOATForMEAT",
      "outputs": [],
      "stateMutability": "nonpayable",
      "type": "function"
    },
    {
      "inputs": [
        {
          "internalType": "uint256",
          "name": "meatAmount",
          "type": "uint256"
        }
      ],
      "name": "swapMEATForGOAT",
      "outputs": [],
      "stateMutability": "nonpayable",
      "type": "function"
    },
    {
      "inputs": [],
      "name": "symbol",
      "outputs": [
        {
          "internalType": "string",
          "name": "",
          "type": "string"
        }
      ],
      "stateMutability": "view",
      "type": "function"
    },
    {
      "inputs": [],
      "name": "totalSupply",
      "outputs": [
        {
          "internalType": "uint256",
          "name": "",
          "type": "uint256"
        }
      ],
      "stateMutability": "view",
      "type": "function"
    },
    {
      "inputs": [
        {
          "internalType": "address",
          "name": "to",
          "type": "address"
        },
        {
          "internalType": "uint256",
          "name": "value",
          "type": "uint256"
        }
      ],
      "name": "transfer",
      "outputs": [
        {
          "internalType": "bool",
          "name": "",
          "type": "bool"
        }
      ],
      "stateMutability": "nonpayable",
      "type": "function"
    },
    {
      "inputs": [
        {
          "internalType": "address",
          "name": "from",
          "type": "address"
        },
        {
          "internalType": "address",
          "name": "to",
          "type": "address"
        },
        {
          "internalType": "uint256",
          "name": "value",
          "type": "uint256"
        }
      ],
      "name": "transferFrom",
      "outputs": [
        {
          "internalType": "bool",
          "name": "",
          "type": "bool"
        }
      ],
      "stateMutability": "nonpayable",
      "type": "function"
    },
    {
      "inputs": [],
      "name": "withdrawNative",
      "outputs": [],
      "stateMutability": "nonpayable",
      "type": "function"
    },
    {
      "stateMutability": "payable",
      "type": "receive"
    }
  ],
  "bytecode": "0x60a060405260646006556001600760006101000a81548160ff02191690831515021790555034801561003057600080fd5b50604051613096380380613096833981810160405281019061005291906104bf565b604051806060016040528060218152602001613075602191396040518060400160405280600481526020017f4d4541540000000000000000000000000000000000000000000000000000000081525081600390816100b0919061073c565b5080600490816100c0919061073c565b50505080600560006101000a81548173ffffffffffffffffffffffffffffffffffffffff021916908373ffffffffffffffffffffffffffffffffffffffff1602179055503373ffffffffffffffffffffffffffffffffffffffff1660808173ffffffffffffffffffffffffffffffffffffffff16815250506000683635c9adc5dea000009050610158608051826101af60201b60201c565b60805173ffffffffffffffffffffffffffffffffffffffff167f0e9afdea29d93d82aeb661870b5f2ad12b3bd74d8526138188fe81fd920607ea826040516101a0919061081d565b60405180910390a250506108fc565b600073ffffffffffffffffffffffffffffffffffffffff168273ffffffffffffffffffffffffffffffffffffffff16036102215760006040517fec442f050000000000000000000000000000000000000000000000000000000081526004016102189190610847565b60405180910390fd5b6102336000838361023760201b60201c565b5050565b600073ffffffffffffffffffffffffffffffffffffffff168373ffffffffffffffffffffffffffffffffffffffff160361028957806002600082825461027d9190610891565b9250508190555061035c565b60008060008573ffffffffffffffffffffffffffffffffffffffff1673ffffffffffffffffffffffffffffffffffffffff16815260200190815260200160002054905081811015610315578381836040517fe450d38c00000000000000000000000000000000000000000000000000000000815260040161030c939291906108c5565b60405180910390fd5b8181036000808673ffffffffffffffffffffffffffffffffffffffff1673ffffffffffffffffffffffffffffffffffffffff16815260200190815260200160002081905550505b600073ffffffffffffffffffffffffffffffffffffffff168273ffffffffffffffffffffffffffffffffffffffff16036103a557806002600082825403925050819055506103f2565b806000808473ffffffffffffffffffffffffffffffffffffffff1673ffffffffffffffffffffffffffffffffffffffff168152602001908152602001600020600082825401925050819055505b8173ffffffffffffffffffffffffffffffffffffffff168373ffffffffffffffffffffffffffffffffffffffff167fddf252ad1be2c89b69c2b068fc378daa952ba7f163c4a11628f55a4df523b3ef8360405161044f919061081d565b60405180910390a3505050565b600080fd5b600073ffffffffffffffffffffffffffffffffffffffff82169050919050565b600061048c82610461565b9050919050565b61049c81610481565b81146104a757600080fd5b50565b6000815190506104b981610493565b92915050565b6000602082840312156104d5576104d461045c565b5b60006104e3848285016104aa565b91505092915050565b600081519050919050565b7f4e487b7100000000000000000000000000000000000000000000000000000000600052604160045260246000fd5b7f4e487b7100000000000000000000000000000000000000000000000000000000600052602260045260246000fd5b6000600282049050600182168061056d57607f821691505b6020821081036105805761057f610526565b5b50919050565b60008190508160005260206000209050919050565b60006020601f8301049050919050565b600082821b905092915050565b6000600883026105e87fffffffffffffffffffffffffffffffffffffffffffffffffffffffffffffffff826105ab565b6105f286836105ab565b95508019841693508086168417925050509392505050565b6000819050919050565b6000819050919050565b600061063961063461062f8461060a565b610614565b61060a565b9050919050565b6000819050919050565b6106538361061e565b61066761065f82610640565b8484546105b8565b825550505050565b600090565b61067c61066f565b61068781848461064a565b505050565b5b818110156106ab576106a0600082610674565b60018101905061068d565b5050565b601f8211156106f0576106c181610586565b6106ca8461059b565b810160208510156106d9578190505b6106ed6106e58561059b565b83018261068c565b50505b505050565b600082821c905092915050565b6000610713600019846008026106f5565b1980831691505092915050565b600061072c8383610702565b9150826002028217905092915050565b610745826104ec565b67ffffffffffffffff81111561075e5761075d6104f7565b5b6107688254610555565b6107738282856106af565b600060209050601f8311600181146107a65760008415610794578287015190505b61079e8582610720565b865550610806565b601f1984166107b486610586565b60005b828110156107dc578489015182556001820191506020850194506020810190506107b7565b868310156107f957848901516107f5601f891682610702565b8355505b6001600288020188555050505b505050505050565b6108178161060a565b82525050565b6000602082019050610832600083018461080e565b92915050565b61084181610481565b82525050565b600060208201905061085c6000830184610838565b92915050565b7f4e487b7100000000000000000000000000000000000000000000000000000000600052601160045260246000fd5b600061089c8261060a565b91506108a78361060a565b92508282019050808211156108bf576108be610862565b5b92915050565b60006060820190506108da6000830186610838565b6108e7602083018561080e565b6108f4604083018461080e565b949350505050565b6080516127346109416000396000818161092a01528181610e1501528181610eed01528181610fb7015281816110290152818161129f015261160701526127346000f3fe6080604052600436106101395760003560e01c80636b66cd3c116100ab578063910b94721161006f578063910b94721461056b57806395d89b4114610594578063a9059cbb146105bf578063d8e70000146105fc578063dd62ed3e14610639578063e01af92c146106765761028a565b80636b66cd3c146104865780636ddd1713146104af57806370a08231146104da5780637e605a66146105175780638da5cb5b146105405761028a565b806323b872dd116100fd57806323b872dd146103885780632527bae3146103c5578063313ce567146103f05780634eeb2e901461041b5780634f220ef41461044657806350431ce41461046f5761028a565b806306fdde031461028f578063088b1317146102ba578063095ea7b3146102f757806315c203d91461033457806318160ddd1461035d5761028a565b3661028a5760003403610181576040517f08c379a000000000000000000000000000000000000000000000000000000000815260040161017890611c60565b60405180910390fd5b60006103e8600654346101949190611cb9565b61019e9190611d2a565b9050600081036101e3576040517f08c379a00000000000000000000000000000000000000000000000000000000081526004016101da90611da7565b60405180910390fd5b60006101ee3061069f565b9050818110610207576102023033846106e7565b610238565b600081111561021c5761021b3033836106e7565b5b6000818361022a9190611dc7565b905061023633826107db565b505b3373ffffffffffffffffffffffffffffffffffffffff167f5f04096cc8c6ee8d48a741bb08521c7f53c78b4f5f8f946baf110a223523f9a33484604051610280929190611e0a565b60405180910390a2005b600080fd5b34801561029b57600080fd5b506102a461085d565b6040516102b19190611eb2565b60405180910390f35b3480156102c657600080fd5b506102e160048036038101906102dc9190611f05565b6108ef565b6040516102ee9190611f32565b60405180910390f35b34801561030357600080fd5b5061031e60048036038101906103199190611fab565b610905565b60405161032b9190612006565b60405180910390f35b34801561034057600080fd5b5061035b60048036038101906103569190611f05565b610928565b005b34801561036957600080fd5b50610372610a44565b60405161037f9190611f32565b60405180910390f35b34801561039457600080fd5b506103af60048036038101906103aa9190612021565b610a4e565b6040516103bc9190612006565b60405180910390f35b3480156103d157600080fd5b506103da610a7d565b6040516103e79190611f32565b60405180910390f35b3480156103fc57600080fd5b50610405610a87565b6040516104129190612090565b60405180910390f35b34801561042757600080fd5b50610430610a90565b60405161043d919061210a565b60405180910390f35b34801561045257600080fd5b5061046d60048036038101906104689190611f05565b610ab6565b005b34801561047b57600080fd5b50610484610e13565b005b34801561049257600080fd5b506104ad60048036038101906104a89190612125565b611027565b005b3480156104bb57600080fd5b506104c46111ea565b6040516104d19190612006565b60405180910390f35b3480156104e657600080fd5b5061050160048036038101906104fc9190612125565b61069f565b60405161050e9190611f32565b60405180910390f35b34801561052357600080fd5b5061053e60048036038101906105399190611f05565b6111fd565b005b34801561054c57600080fd5b5061055561129b565b6040516105629190612161565b60405180910390f35b34801561057757600080fd5b50610592600480360381019061058d9190611f05565b6112c3565b005b3480156105a057600080fd5b506105a96114b3565b6040516105b69190611eb2565b60405180910390f35b3480156105cb57600080fd5b506105e660048036038101906105e19190611fab565b611545565b6040516105f39190612006565b60405180910390f35b34801561060857600080fd5b50610623600480360381019061061e9190611f05565b611568565b6040516106309190611f32565b60405180910390f35b34801561064557600080fd5b50610660600480360381019061065b919061217c565b61157e565b60405161066d9190611f32565b60405180910390f35b34801561068257600080fd5b5061069d600480360381019061069891906121e8565b611605565b005b60008060008373ffffffffffffffffffffffffffffffffffffffff1673ffffffffffffffffffffffffffffffffffffffff168152602001908152602001600020549050919050565b600073ffffffffffffffffffffffffffffffffffffffff168373ffffffffffffffffffffffffffffffffffffffff16036107595760006040517f96c6fd1e0000000000000000000000000000000000000000000000000000000081526004016107509190612161565b60405180910390fd5b600073ffffffffffffffffffffffffffffffffffffffff168273ffffffffffffffffffffffffffffffffffffffff16036107cb5760006040517fec442f050000000000000000000000000000000000000000000000000000000081526004016107c29190612161565b60405180910390fd5b6107d68383836116b0565b505050565b600073ffffffffffffffffffffffffffffffffffffffff168273ffffffffffffffffffffffffffffffffffffffff160361084d5760006040517fec442f050000000000000000000000000000000000000000000000000000000081526004016108449190612161565b60405180910390fd5b610859600083836116b0565b5050565b60606003805461086c90612244565b80601f016020809104026020016040519081016040528092919081815260200182805461089890612244565b80156108e55780601f106108ba576101008083540402835291602001916108e5565b820191906000526020600020905b8154815290600101906020018083116108c857829003601f168201915b5050505050905090565b60006055826108fe9190611cb9565b9050919050565b6000806109106118d5565b905061091d8185856118dd565b600191505092915050565b7f000000000000000000000000000000000000000000000000000000000000000073ffffffffffffffffffffffffffffffffffffffff163373ffffffffffffffffffffffffffffffffffffffff16146109b6576040517f08c379a00000000000000000000000000000000000000000000000000000000081526004016109ad906122c1565b60405180910390fd5b600081116109f9576040517f08c379a00000000000000000000000000000000000000000000000000000000081526004016109f09061232d565b60405180910390fd5b60006006549050816006819055507f7aaf6e876013942206286cfff5091af2fa84c63a6f07b849acdc1e7eb91780c08183604051610a38929190611e0a565b60405180910390a15050565b6000600254905090565b600080610a596118d5565b9050610a668582856118ef565b610a718585856106e7565b60019150509392505050565b6000600654905090565b60006012905090565b600560009054906101000a900473ffffffffffffffffffffffffffffffffffffffff1681565b600760009054906101000a900460ff16610b05576040517f08c379a0000000000000000000000000000000000000000000000000000000008152600401610afc90612399565b60405180910390fd5b60008111610b48576040517f08c379a0000000000000000000000000000000000000000000000000000000008152600401610b3f90612405565b60405180910390fd5b3073ffffffffffffffffffffffffffffffffffffffff166323b872dd3330846040518463ffffffff1660e01b8152600401610b8593929190612425565b6020604051808303816000875af1158015610ba4573d6000803e3d6000fd5b505050506040513d601f19601f82011682018060405250810190610bc89190612471565b506000605582610bd89190611d2a565b90506000600560009054906101000a900473ffffffffffffffffffffffffffffffffffffffff1673ffffffffffffffffffffffffffffffffffffffff166370a08231306040518263ffffffff1660e01b8152600401610c379190612161565b602060405180830381865afa158015610c54573d6000803e3d6000fd5b505050506040513d601f19601f82011682018060405250810190610c7891906124b3565b905081811015610d1d57600560009054906101000a900473ffffffffffffffffffffffffffffffffffffffff1673ffffffffffffffffffffffffffffffffffffffff1663449a52f8308385610ccd9190611dc7565b6040518363ffffffff1660e01b8152600401610cea9291906124e0565b600060405180830381600087803b158015610d0457600080fd5b505af1158015610d18573d6000803e3d6000fd5b505050505b600560009054906101000a900473ffffffffffffffffffffffffffffffffffffffff1673ffffffffffffffffffffffffffffffffffffffff1663a9059cbb33846040518363ffffffff1660e01b8152600401610d7a9291906124e0565b6020604051808303816000875af1158015610d99573d6000803e3d6000fd5b505050506040513d601f19601f82011682018060405250810190610dbd9190612471565b503373ffffffffffffffffffffffffffffffffffffffff167fb3815b5a8d3b29cfb2df4ae54f50951c672a72abe2b8d8e34a60db8ac53812af8484604051610e06929190611e0a565b60405180910390a2505050565b7f000000000000000000000000000000000000000000000000000000000000000073ffffffffffffffffffffffffffffffffffffffff163373ffffffffffffffffffffffffffffffffffffffff1614610ea1576040517f08c379a0000000000000000000000000000000000000000000000000000000008152600401610e98906122c1565b60405180910390fd5b600047905060008111610ee9576040517f08c379a0000000000000000000000000000000000000000000000000000000008152600401610ee090612555565b60405180910390fd5b60007f000000000000000000000000000000000000000000000000000000000000000073ffffffffffffffffffffffffffffffffffffffff1682604051610f2f906125a6565b60006040518083038185875af1925050503d8060008114610f6c576040519150601f19603f3d011682016040523d82523d6000602084013e610f71565b606091505b5050905080610fb5576040517f08c379a0000000000000000000000000000000000000000000000000000000008152600401610fac90612607565b60405180910390fd5b7f000000000000000000000000000000000000000000000000000000000000000073ffffffffffffffffffffffffffffffffffffffff167fc303ca808382409472acbbf899c316cf439f409f6584aae22df86dfa3c9ed5048360405161101b9190611f32565b60405180910390a25050565b7f000000000000000000000000000000000000000000000000000000000000000073ffffffffffffffffffffffffffffffffffffffff163373ffffffffffffffffffffffffffffffffffffffff16146110b5576040517f08c379a00000000000000000000000000000000000000000000000000000000081526004016110ac906122c1565b60405180910390fd5b600073ffffffffffffffffffffffffffffffffffffffff168173ffffffffffffffffffffffffffffffffffffffff1603611124576040517f08c379a000000000000000000000000000000000000000000000000000000000815260040161111b90612673565b60405180910390fd5b6000600560009054906101000a900473ffffffffffffffffffffffffffffffffffffffff16905081600560006101000a81548173ffffffffffffffffffffffffffffffffffffffff021916908373ffffffffffffffffffffffffffffffffffffffff1602179055508173ffffffffffffffffffffffffffffffffffffffff168173ffffffffffffffffffffffffffffffffffffffff167fd54c77e46d0b5e608c05ba4e8081fdc157390ef20bc963c37569638f08c8b39260405160405180910390a35050565b600760009054906101000a900460ff1681565b60008111611240576040517f08c379a000000000000000000000000000000000000000000000000000000000815260040161123790612405565b60405180910390fd5b61124a3382611984565b3373ffffffffffffffffffffffffffffffffffffffff167f95ba5027b47b8fe4434fd2d984ba1404159af0f28901006cfb4d763f5a27b8b6826040516112909190611f32565b60405180910390a250565b60007f0000000000000000000000000000000000000000000000000000000000000000905090565b600760009054906101000a900460ff16611312576040517f08c379a000000000000000000000000000000000000000000000000000000000815260040161130990612399565b60405180910390fd5b60008111611355576040517f08c379a000000000000000000000000000000000000000000000000000000000815260040161134c90612405565b60405180910390fd5b600560009054906101000a900473ffffffffffffffffffffffffffffffffffffffff1673ffffffffffffffffffffffffffffffffffffffff166323b872dd3330846040518463ffffffff1660e01b81526004016113b493929190612425565b6020604051808303816000875af11580156113d3573d6000803e3d6000fd5b505050506040513d601f19601f820116820180604052508101906113f79190612471565b5060006055826114079190611cb9565b905060006114143061069f565b905081811061142d576114283033846106e7565b61145e565b6000811115611442576114413033836106e7565b5b600081836114509190611dc7565b905061145c33826107db565b505b3373ffffffffffffffffffffffffffffffffffffffff167f0fc7b62c4ea3974c83eb006f8f17ae47b25ac86c526403f94afb0fd116a3270584846040516114a6929190611e0a565b60405180910390a2505050565b6060600480546114c290612244565b80601f01602080910402602001604051908101604052809291908181526020018280546114ee90612244565b801561153b5780601f106115105761010080835404028352916020019161153b565b820191906000526020600020905b81548152906001019060200180831161151e57829003601f168201915b5050505050905090565b6000806115506118d5565b905061155d8185856106e7565b600191505092915050565b60006055826115779190611d2a565b9050919050565b6000600160008473ffffffffffffffffffffffffffffffffffffffff1673ffffffffffffffffffffffffffffffffffffffff16815260200190815260200160002060008373ffffffffffffffffffffffffffffffffffffffff1673ffffffffffffffffffffffffffffffffffffffff16815260200190815260200160002054905092915050565b7f000000000000000000000000000000000000000000000000000000000000000073ffffffffffffffffffffffffffffffffffffffff163373ffffffffffffffffffffffffffffffffffffffff1614611693576040517f08c379a000000000000000000000000000000000000000000000000000000000815260040161168a906122c1565b60405180910390fd5b80600760006101000a81548160ff02191690831515021790555050565b600073ffffffffffffffffffffffffffffffffffffffff168373ffffffffffffffffffffffffffffffffffffffff16036117025780600260008282546116f69190612693565b925050819055506117d5565b60008060008573ffffffffffffffffffffffffffffffffffffffff1673ffffffffffffffffffffffffffffffffffffffff1681526020019081526020016000205490508181101561178e578381836040517fe450d38c000000000000000000000000000000000000000000000000000000008152600401611785939291906126c7565b60405180910390fd5b8181036000808673ffffffffffffffffffffffffffffffffffffffff1673ffffffffffffffffffffffffffffffffffffffff16815260200190815260200160002081905550505b600073ffffffffffffffffffffffffffffffffffffffff168273ffffffffffffffffffffffffffffffffffffffff160361181e578060026000828254039250508190555061186b565b806000808473ffffffffffffffffffffffffffffffffffffffff1673ffffffffffffffffffffffffffffffffffffffff168152602001908152602001600020600082825401925050819055505b8173ffffffffffffffffffffffffffffffffffffffff168373ffffffffffffffffffffffffffffffffffffffff167fddf252ad1be2c89b69c2b068fc378daa952ba7f163c4a11628f55a4df523b3ef836040516118c89190611f32565b60405180910390a3505050565b600033905090565b6118ea8383836001611a06565b505050565b60006118fb848461157e565b90507fffffffffffffffffffffffffffffffffffffffffffffffffffffffffffffffff81101561197e578181101561196e578281836040517ffb8f41b2000000000000000000000000000000000000000000000000000000008152600401611965939291906126c7565b60405180910390fd5b61197d84848484036000611a06565b5b50505050565b600073ffffffffffffffffffffffffffffffffffffffff168273ffffffffffffffffffffffffffffffffffffffff16036119f65760006040517f96c6fd1e0000000000000000000000000000000000000000000000000000000081526004016119ed9190612161565b60405180910390fd5b611a02826000836116b0565b5050565b600073ffffffffffffffffffffffffffffffffffffffff168473ffffffffffffffffffffffffffffffffffffffff1603611a785760006040517fe602df05000000000000000000000000000000000000000000000000000000008152600401611a6f9190612161565b60405180910390fd5b600073ffffffffffffffffffffffffffffffffffffffff168373ffffffffffffffffffffffffffffffffffffffff1603611aea5760006040517f94280d62000000000000000000000000000000000000000000000000000000008152600401611ae19190612161565b60405180910390fd5b81600160008673ffffffffffffffffffffffffffffffffffffffff1673ffffffffffffffffffffffffffffffffffffffff16815260200190815260200160002060008573ffffffffffffffffffffffffffffffffffffffff1673ffffffffffffffffffffffffffffffffffffffff168152602001908152602001600020819055508015611bd7578273ffffffffffffffffffffffffffffffffffffffff168473ffffffffffffffffffffffffffffffffffffffff167f8c5be1e5ebec7d5bd14f71427d1e84f3dd0314c0f7b2291e5b200ac8c7c3b92584604051611bce9190611f32565b60405180910390a35b50505050565b600082825260208201905092915050565b7f4d7573742073656e64204e617469766520546f6b656e20746f206d696e74204d60008201527f4541540000000000000000000000000000000000000000000000000000000000602082015250565b6000611c4a602383611bdd565b9150611c5582611bee565b604082019050919050565b60006020820190508181036000830152611c7981611c3d565b9050919050565b6000819050919050565b7f4e487b7100000000000000000000000000000000000000000000000000000000600052601160045260246000fd5b6000611cc482611c80565b9150611ccf83611c80565b9250828202611cdd81611c80565b91508282048414831517611cf457611cf3611c8a565b5b5092915050565b7f4e487b7100000000000000000000000000000000000000000000000000000000600052601260045260246000fd5b6000611d3582611c80565b9150611d4083611c80565b925082611d5057611d4f611cfb565b5b828204905092915050565b7f4d696e7420616d6f756e7420746f6f206c6f7700000000000000000000000000600082015250565b6000611d91601383611bdd565b9150611d9c82611d5b565b602082019050919050565b60006020820190508181036000830152611dc081611d84565b9050919050565b6000611dd282611c80565b9150611ddd83611c80565b9250828203905081811115611df557611df4611c8a565b5b92915050565b611e0481611c80565b82525050565b6000604082019050611e1f6000830185611dfb565b611e2c6020830184611dfb565b9392505050565b600081519050919050565b60005b83811015611e5c578082015181840152602081019050611e41565b60008484015250505050565b6000601f19601f8301169050919050565b6000611e8482611e33565b611e8e8185611bdd565b9350611e9e818560208601611e3e565b611ea781611e68565b840191505092915050565b60006020820190508181036000830152611ecc8184611e79565b905092915050565b600080fd5b611ee281611c80565b8114611eed57600080fd5b50565b600081359050611eff81611ed9565b92915050565b600060208284031215611f1b57611f1a611ed4565b5b6000611f2984828501611ef0565b91505092915050565b6000602082019050611f476000830184611dfb565b92915050565b600073ffffffffffffffffffffffffffffffffffffffff82169050919050565b6000611f7882611f4d565b9050919050565b611f8881611f6d565b8114611f9357600080fd5b50565b600081359050611fa581611f7f565b92915050565b60008060408385031215611fc257611fc1611ed4565b5b6000611fd085828601611f96565b9250506020611fe185828601611ef0565b9150509250929050565b60008115159050919050565b61200081611feb565b82525050565b600060208201905061201b6000830184611ff7565b92915050565b60008060006060848603121561203a57612039611ed4565b5b600061204886828701611f96565b935050602061205986828701611f96565b925050604061206a86828701611ef0565b9150509250925092565b600060ff82169050919050565b61208a81612074565b82525050565b60006020820190506120a56000830184612081565b92915050565b6000819050919050565b60006120d06120cb6120c684611f4d565b6120ab565b611f4d565b9050919050565b60006120e2826120b5565b9050919050565b60006120f4826120d7565b9050919050565b612104816120e9565b82525050565b600060208201905061211f60008301846120fb565b92915050565b60006020828403121561213b5761213a611ed4565b5b600061214984828501611f96565b91505092915050565b61215b81611f6d565b82525050565b60006020820190506121766000830184612152565b92915050565b6000806040838503121561219357612192611ed4565b5b60006121a185828601611f96565b92505060206121b285828601611f96565b9150509250929050565b6121c581611feb565b81146121d057600080fd5b50565b6000813590506121e2816121bc565b92915050565b6000602082840312156121fe576121fd611ed4565b5b600061220c848285016121d3565b91505092915050565b7f4e487b7100000000000000000000000000000000000000000000000000000000600052602260045260246000fd5b6000600282049050600182168061225c57607f821691505b60208210810361226f5761226e612215565b5b50919050565b7f4e6f7420746865206f776e657200000000000000000000000000000000000000600082015250565b60006122ab600d83611bdd565b91506122b682612275565b602082019050919050565b600060208201905081810360008301526122da8161229e565b9050919050565b7f52617465206d7573742062652067726561746572207468616e207a65726f0000600082015250565b6000612317601e83611bdd565b9150612322826122e1565b602082019050919050565b600060208201905081810360008301526123468161230a565b9050919050565b7f537761702064697361626c656400000000000000000000000000000000000000600082015250565b6000612383600d83611bdd565b915061238e8261234d565b602082019050919050565b600060208201905081810360008301526123b281612376565b9050919050565b7f416d6f756e74206d757374206265203e20300000000000000000000000000000600082015250565b60006123ef601283611bdd565b91506123fa826123b9565b602082019050919050565b6000602082019050818103600083015261241e816123e2565b9050919050565b600060608201905061243a6000830186612152565b6124476020830185612152565b6124546040830184611dfb565b949350505050565b60008151905061246b816121bc565b92915050565b60006020828403121561248757612486611ed4565b5b60006124958482850161245c565b91505092915050565b6000815190506124ad81611ed9565b92915050565b6000602082840312156124c9576124c8611ed4565b5b60006124d78482850161249e565b91505092915050565b60006040820190506124f56000830185612152565b6125026020830184611dfb565b9392505050565b7f4e6f204e617469766520546f6b656e20746f2077697468647261770000000000600082015250565b600061253f601b83611bdd565b915061254a82612509565b602082019050919050565b6000602082019050818103600083015261256e81612532565b9050919050565b600081905092915050565b50565b6000612590600083612575565b915061259b82612580565b600082019050919050565b60006125b182612583565b9150819050919050565b7f4e6174697665207472616e73666572206661696c656400000000000000000000600082015250565b60006125f1601683611bdd565b91506125fc826125bb565b602082019050919050565b60006020820190508181036000830152612620816125e4565b9050919050565b7f496e76616c696420616464726573730000000000000000000000000000000000600082015250565b600061265d600f83611bdd565b915061266882612627565b602082019050919050565b6000602082019050818103600083015261268c81612650565b9050919050565b600061269e82611c80565b91506126a983611c80565b92508282019050808211156126c1576126c0611c8a565b5b92915050565b60006060820190506126dc6000830186612152565b6126e96020830185611dfb565b6126f66040830184611dfb565b94935050505056fea264697066735822122007bb36bcaf53a9ed459a0434cf1eae18fcd47124650cf3e13550a3104b3f088664736f6c634300081d00334d61726b65742d456e61626c6564204167726963756c747572616c20546f6b656e",
  "linkReferences": {},
  "deployedLinkReferences": {}
}